:020000040000FA
:0600000002011A022117A3
:03002B0002287D2B
:0300530002218AFD
:03006B0002284B1D
:10008300021F83E5C754F84401F5C7790122000034
:100093000080FB120086B90003020104E479217891
:1000A30008B800028004F709D8FCE479297802B87B
:1000B30000028004F709D8FCE490028178E679070E
:1000C3008002F0A3D8FCD9FA781A90014A7A01BACF
:1000D30000028007E493A3F608DAF97A667B0990B5
:1000E300014B786779038015E493A3AD82AE838ACD
:1000F300828B83F0A3AA82AB838D828E83D8E9D9C6
:10010300E77582E37583A3740312012C75829175DD
:100113008300740012012C75D00075813F7518811E
:10012300751902759F00020096C09FF59FE473D076
:100133009F22D083D082C09FE493C0E0740193C018
:10014300E0740293F59F2201FF0000B40000280031
:100153002800283075A000A000A000A0000008001F
:1001630008E001F000100010001000100010001053
:100173000050005000500010001000D00700000095
:100183000000000F0001000500307507001000019A
:100193000081FF00000000FFAF05CD05B505FF029C
:1001A300020208025000A0000000E80302D581010A
:1001B3000000A281022281010000BD0902B3810176
:1001C3000000B302022281010000BE0902B58101D1
:1001D3000000C902022281010000BF0902B78101A8
:1001E3000000CB02022281010000C00902B981088C
:1001F3000000CC02022281010000C10902BB81017F
:100203000000C209FF0100FF2002D581010000A800
:1002130081022281010000260A02BD810000000044
:100223000002B18103000019036D0B6D0B6D0B6DA3
:100233000B6D0B6D0B6D0B6D0B6D0B6D0B6D0B6DFB
:100243000B6D0B010E190EFB0DFFFF110199010F31
:100253001264040102D581010000AB8102228101F5
:1002630000006E0A02D7810100006F0A02B1810308
:100273000000660702BF81010000700A0202020249
:100283000202020202010D000000100102D58101E9
:100293000000A5810222810100009A0A02D1810196
:1002A30000006C070222810100009B0A02CF81013A
:1002B300000015810222810100009C0A02CD810108
:1002C300000007810222810100009D0A02CB810107
:1002D300000081800222810100009E0A02C981017F
:1002E300000093800222810100009F0A02C781015E
:1002F3000000A580022281010000A00A02C581013D
:100303000000B780022281010000A10A02E18101FD
:100313000000F980022281010000A20A02C18101CA
:100323000000A30A01E803053F100A1209486561AA
:10033300727420526174652053656E736F7202018B
:100343000605020D180F1848656172742052617416
:10035300652053656E736F7200000000B5110000D5
:100363001002D581010000AE810222810100007ECE
:100373000B02DF81000000AC0802B181030000B072
:1003830008FF0001307503020106000000000000B1
:10039300000000000000000000000000000000005A
:1003A300000000000000FFFF0600800CE8031201BC
:1003B300352795031201353E95031201356F9503D9
:1003C300120135AA9503120135D49503120135FEA6
:1003D30095031201351596031201352C960312016C
:1003E300354396031201356C96031201357F96034C
:1003F300120135959603120135A89603120135CFE4
:100403009603120135D0A502120135D4A6021201BA
:10041300350CA7021201352FA7021201353AA702A4
:100423001201355DA7021201356CA8021201354194
:10043300A902120135BCA90212013544AA02120114
:10044300357FAA02120135B6AA0212013544AB0266
:100453001201351DAC021201357DAC021201358843
:10046300AC0212013507AD021201350AAD021201C9
:10047300350DAD021201359CAD021201359FAD025F
:10048300120135CFAD02120135F9AD02120135E784
:10049300AE0212013599AF02120135ABDE02120131
:1004A30035D3DE0212013501DF0212013538DF02D6
:1004B30012013596DF02120135E1DF021201352CFC
:1004C300E0021201356CE002120135B2E0021201C2
:1004D30035E0E0021201359DE102120135A7E10288
:1004E300120135B4E102120135E7E102120135B31D
:1004F300E202120135BFE202120135D7E202120114
:1005030035E1E20212013525A00312013533A003C0
:100513001201354BA00312013563A0031201355BB1
:10052300B90112013507BA0112013582BA0112016C
:1005330035A3BB01120135DFBB0112013588BC01B4
:100543001201356FBD01120135D3BE011201352AE7
:10055300BF01120135ABBF011201359BC00112016E
:1005630035E8C0011201356EC101120135A0C10188
:10057300120135B4C301120135F6C301120135145A
:10058300C40112013597C4011201356BC501120173
:100593003533C601120135E3C702120135B6C8026D
:1005A3001201355FC902120135B2C9021201356267
:1005B300CA02120135EECA02120135DACB02120168
:1005C3003509CC021201351CCD0212013564CD026E
:1005D30012013539CE0212013575CE021201359161
:1005E300CE0212013500A30312013500800312016C
:1005F300351680031201353C8003120135588103FF
:100603001201356281031201359782031201358F7E
:1006130083031201357BD402120135ABD5021201DB
:1006230035DED50212013528D602120135EFD70285
:100633001201355F6E00120135C96E0012013528B3
:100643007000120135387000120135657000120117
:1006530035BC70001201356571001201356C7200F2
:10066300120135367300120135967400120135D923
:1006730074001201357E7500120135CB750012012D
:1006830035F17500120135FF77001201350478004A
:10069300120135097A00120135567A00120135C963
:1006A3007A00120135FC7A001201359E7B0012019B
:1006B30035477C001201357F7C00120135827C00B6
:1006C300120135CA7C001201350A7D001201356121
:1006D3007D00120135E986031201350187031201FA
:1006E300354987031201355F8703120135A6870356
:1006F300120135BA88031201354789031201359275
:100703008903120135AC2800120135B82800120103
:1007130035F32800120135382900120135F8290074
:100723001201357E2A00120135AA2A00120135E38F
:100733002A00120135212D00120135052F00120167
:1007430035EB30001201352E32001201357C3400B6
:100753001201358E3500120135D93600120135E903
:1007630037001201350638001201354138001201F5
:1007730035633800120135C63800120135873D0054
:100783001201351C3E001201356D3E0012013594F5
:100793003E00120135E63E00120135043F0012010E
:1007A300355E3F001201355D4000120135E1400026
:1007B300120135F4E702120135FEE7021201354159
:1007C300E8021201355CE802120135ECE80212017D
:1007D3003514E90212013551E90212013588E902A3
:1007E300120135B1E90212013526EA021201353B45
:1007F300EA0212013550EA0212013581EA021201BE
:100803003595EA02120135BAEA02120135F4EA0219
:1008130012013520EB02120135A3EB02120135EC74
:10082300EB0212013516EC0212013541EC02120102
:1008330035419B03120135CF8D02120135FD8D0227
:100843001201354B8F021201352B90021201354AEA
:100853009002120135C790021201350A910212016A
:1008630035609202120135219302120135A89502D7
:100873001201354996021201353F97021201353CA8
:100883009802120135969902120135219A0212013A
:1008930035E699031201354F9A03120135A39A03E2
:1008A300120135CA9A03120135FB9A031201356905
:1008B300EC02120135D6EC021201351DED021201D4
:1008C3003535EE0212013531EF0212013514F00213
:1008D3001201350AB0021201354CB0021201351E65
:1008E300B102120135F7B102120135F1B202120160
:1008F30035D3B3021201353CB402120135F2B4020E
:1009030012013566B502120135D2B502120135FB6B
:10091300B50212013575B6021201350EB702120186
:100923003573B70212013588B702120135CEB7020B
:10093300120135E7B7021201354CB8021201354FE7
:10094300B802120135F5FC021201351DFD02120138
:10095300355BFD0212013519FE0212013580FE02DC
:100963001201359CFE02120135C4FE02120135F458
:10097300FE0212013503FF0212013580FF0212014C
:1009830035A6FF0212013523AA0112013501AC017C
:1009930012013533AE011201356FAE011201359CE0
:1009A300AE0112013586AF01120135D1AF0112013B
:1009B300351CB0011201352EB0011201356EB001A4
:1009C300120135A3B001120135F1B0011201352036
:1009D300B10112013543B10112013590B101120188
:1009E3003515B2011201352FB4011201356EB6016E
:1009F300120135AFB60112013551B801120135921A
:100A0300B80112013505B901120135BBF20112011A
:100A130035B9F30112013552FA0112013573FC01A4
:100A23001201353EFE01120135A6FF0112013548C0
:100A33004100120135F74100120135244200120131
:100A4300356A4200120135AA4300120135404500C0
:100A5300120135BA4500120135D545001201355052
:100A63004600120135AA47001201350A4900120156
:100A730035104A00120135714B001201358A4B00C3
:100A8300120135E84B00120135D64C00120135092D
:100A93004D00120135794D00120135F34D0012015D
:100AA300353D4E00120135074F00120135DC4F0072
:100AB300120135BB5000120135465100120135B405
:100AC3005100120135285200120135535200120110
:100AD3003512530012013577540012013594540036
:100AE300120135B35400120135A45500120135C962
:100AF3005500120135F355001201356E56001201EF
:100B030035C85600120135315800120135DF58003F
:100B1300120135205900120135E7E4011201353580
:100B2300E50112013541E5011201351FE60112010C
:100B33003550E60112013581E60112013501E70165
:100B430012013539E7011201358BE701120135C86E
:100B5300E701120135E5E9011201350BEC01120140
:100B630035F6ED01120135E0EF01120135A1280040
:100B73001201351096011201354096011201351903
:100B83009D011201359E9E011201359BA4011201A4
:100B93003583A501120135C0A501120135E3A50175
:100BA30012013514A6011201351DA60112013527C4
:100BB300A60112013515A7011201350BA801120177
:100BC300355059001201354F5D00120135555D0056
:100BD300120135906400120135A96900120135270D
:100BE300F902120135BDF902120135D3F9021201DE
:100BF3003549FA02120135BDFA02120135FBFA0238
:100C03001201356FFB02120135E8FB02120135F1C7
:100C1300FB02120135FDFB0212013512FC02120127
:100C23003550FC0212013566FC02120135C5FC0287
:100C3300120135D6F002120135E3F002120135FD3F
:100C4300F0021201353CF1021201357AF102120170
:100C530035DFF102120135F4F102120135FFF10221
:100C63001201350CF20212013523F2021201353161
:100C7300F2021201353CF20212013548F20212016E
:100C83003557F20212013562F20212013585F20282
:100C93001201352CF3021201353CF30212013556D1
:100CA300F30212013573F3021201358FF3021201BD
:100CB30035B4F302120135BFF302120135D4F30246
:100CC300120135E8F30212013549F4021201354FDE
:100CD300F40212013555F4021201355BF4021201DC
:100CE3003573F402120135A6F402120135BDD601A3
:100CF30012013541D701120135F0D7011201354FE9
:100D0300D90112013570DB011201355CDC011201DE
:100D13003591DC01120135B3DC0112013562DD01CD
:100D23001201355ADF0112013583DF011201351536
:100D3300E00112013547E00112013554E0011201CF
:100D430035ABE001120135D1E0011201353EE3017B
:100D530012013541E40112013599E4011201354CC8
:100D6300C80112013556C9011201353DCA011201EC
:100D73003547CA0112013569CA0112013575CA0125
:100D83001201350ECC011201353DCC01120135594A
:100D9300CD01120135B2CD0112013518CF01120177
:100DA30035F7CF0112013553D001120135C0D001FF
:100DB300120135FBD0011201353AD101120135F38D
:100DC300D3011201350DD40112013599D401120159
:100DD30035A7D40112013500D5011201350ED50115
:100DE30012013581D501120135E5D5011201352FE7
:100DF300D601120135A29A02120135C49A021201D8
:100E030035EA9C02120135FF9F0212013517A10238
:100E1300120135CAA102120135ACA2021201354EEC
:100E23007E00120135737E00120135E57E0012014A
:100E33003569C00212013572C0021201357BC0024E
:100E430012013552C10212013503C30212013539B1
:100E5300C30212013573C302120135A9C302120181
:100E630035E3C30212013517C40212013543C4022C
:100E73001201358CC402120135C6C4021201350FAA
:100E8300C50212013567C5021201359CC502120164
:100E930035F7C50212013531C60212013582C60289
:100EA300120135B8C602120135F2C602120135200D
:100EB300C70212013543C702120135BDA103120156
:100EC30035E9A10312013544A2031201354EA203F1
:100ED3001201355EA20312013506CF02120135104D
:100EE300CF021201354ECF0212013597CF02120104
:100EF30035D1CF0212013527D00212013548D00275
:100F030012013551D0021201359CD002120135C5B0
:100F1300D002120135CFD0021201353BD1021201AA
:100F230035D1D1021201351BD2021201354BD20247
:100F3300120135D4D20212013514D3021201354CF9
:100F4300D3021201355ED3021201357DD3021201A1
:100F53003586D30212013551D4021201355E9D0349
:100F63001201353893031201356E9303120135A430
:100F73009303120135ED940312013568A2031201A4
:100F8300357EA20312013588A203120135D2A203D2
:100F930012013568E3021201357DE3021201352D9A
:100FA300E4021201356DE40212013586E4021201F6
:100FB30035BAE40212013507E5021201353BE502B9
:100FC3001201357DE50212013581E702120135E791
:100FD300E70212013584A303120135559E03120162
:100FE300357E9E03120135A79E03120135BF9E0372
:100FF300120135019F03120135998303120135C98B
:101003008303120135DC83031201350B84031201C0
:10101300352A8403120135D584031201356785030C
:10102300120135EC8503120135B28603120135BC7A
:101033008903120135E189031201350B8A03120179
:101043003584A403120135E681011201354A840176
:10105300120135FB8501120135FD8601120135862A
:1010630087011201350A88011201352F8801120107
:1010730035688B01120135DC8B01120135CD8C01F2
:10108300120135078D01120135478D01120135FA21
:101093008E011201354D8F01120135968F01120118
:1010A300350490011201353690011201354E90013D
:1010B3001201356391011201357391011201358ECD
:1010C3009201120135B09201120135E6920112012B
:1010D300358A9401120135C99401120135EB95014A
:1010E300120135FCA0031201350DA103120135B223
:1010F300A1031201353BA4031201357AA4031201A3
:1011030035EEFF02120135469F03120135569F0348
:101113001201356B9F031201351FA0031201355ACB
:101123009C03120135DF9C03120135459D03120117
:10113300357E9803120135A99803120135FF9803F0
:10114300120135119903120135629903120135D940
:101153009903120135DC990312013523F5021201BB
:101163003537F502120135B0F50212013585F60265
:1011730012013557F802120135BCF802120135137A
:10118300F902120135F87F001201350391031201B0
:10119300358E9203120135EF920312013535930315
:1011A300120135A2D9021201357FDB021201353556
:1011B300DC02120135D4DC0212013515DE02120104
:1011C300356BDE02120135888C03120135C68C03A0
:1011D300120135D98C031201350A8D031201354AE8
:1011E3008D03120135AE8D031201358F8E0312016B
:1011F30035E19603120135319703120135BA97038E
:10120300120135209803120135C68E03120135F001
:101213008E03120135B68F0312013591900312012B
:101223003573B80212013530B9021201356BB902B8
:1012330012013593B902120135F5B9021201354194
:10124300BA02120135A1BA0212013534BB021201EE
:101253003533BC02120135C2BD0212013545BE024F
:10126300120135ACBE02120135C3BE02120135CDE7
:10127300BF021201350BC0021201350080021201B8
:1012830035608302120135E884021201353F85027D
:101293001201355E8502120135DC85021201356CBF
:1012A30087021201355088021201355C8C0212014B
:1012B300352C8D02120135D0FF01120135CBA40369
:1012C300E066701008A3E066700A08A3E066700485
:1012D30008A3E06622C3E7960809E7960809E7969C
:1012E3000809E79622C3E09608A3E09608A3E096D0
:1012F30008A3E09622C008C3E096F50808A3E09689
:10130300420808A3E096420808A3E0964508700146
:10131300D3D00822080808EAC0E0EBC0E086F0E773
:10132300A4FA180986F0E7A42AFA180986F0E7A4B4
:101333002AFA180986F0E7A42AFA1986F0E7A4FB2B
:10134300E5F02AFA190886F0E7A42BFBE5F03AFA50
:10135300190886F0E7A42BFBE5F03AFA181809867A
:10136300F0E7A4C5F02BFBE43AFA1908E7C5F0C689
:10137300A426F6E5F03BFBE43AFA1886F0E7A4F678
:10138300E5F00826F6E43B08F6E43A08F6D0E0FB7D
:10139300D0E0FA22E4CFC0E0E4CEC0E0E4CDC0E088
:1013A300E4CCC0E075F020E626F608E633F608E65E
:1013B30033F608E633F6181818EC33FCED33FDEE7C
:1013C30033FEEF33FFC3EC9709ED9709EE9709EF6F
:1013D30097191919400FFFEC97FC09ED97FD09EEDA
:1013E30097FE191906D5F0BFECF709EDF709EEF7EB
:1013F30009EFF7191919D0E0FCD0E0FDD0E0FED0D9
:10140300E0FF226016080808C6C313C618C613C631
:1014130018C613C618C613C6D5E0EA227009080811
:1014230008226016181818C6C333C608C633C60880
:10143300C633C608C633C6D5E0EA22E627F608094E
:10144300E637F60809E637F60809E637F622E02616
:10145300F608A3E036F608A3E036F608A3E036F66E
:1014630022E026F008A3E036F008A3E036F008A354
:10147300E036F022C3E697F60809E697F60809E690
:1014830097F60809E697F622C3E096F008A3E096DC
:10149300F008A3E096F008A3E096F022E657F608DA
:1014A30009E657F60809E657F60809E657F622E073
:1014B30056F608A3E056F608A3E056F608A3E0564E
:1014C300F622E056F008A3E056F008A3E056F00831
:1014D300A3E056F022E0F608A3E0F608A3E0F6083E
:1014E300A3E0F622E6F008A3E6F008A3E6F008A3DB
:1014F300E6F022E0FAA3E0FBA3E0FCA3E0FD22EA8E
:10150300F0A3EBF0A3ECF0A3EDF022E0FCA3E0FDED
:10151300A3E0FEA3E0FF22ECF0A3EDF0A3EEF0A323
:10152300EFF022E0F8A3E0F9A3E0FAA3E0FB22E85E
:10153300F0A3E9F0A3EAF0A3EBF022CAC0E0E6F0DF
:10154300A308DAFAD0E0FA22CAC0E0E0A3C582CC4D
:10155300C582C583CDC583F0A3C582CCC582C583AF
:10156300CDC583DAE6D0E0CA22C3E498F8E499F95A
:101573001215AD8026C3E49AFAE49BFBE920E7E960
:101583001215ADE498F8E499F922C3E498F8E499C4
:10159300F91215ADE498F8E499F9C3E49AFAE49BD7
:1015A300FB22EB20E7CFE920E7E0B90010BB0008FE
:1015B300E88AF084F8AAF022E4FBC8FA22EB70224E
:1015C3007B10C833C8C933C9335007C39AC3DBF28E
:1015D30080069A50012ADBEAC833F4C8C933F4C938
:1015E300FA2275F008E4C833C8C933C933C99AC9A4
:1015F3009B5004C92AC93BD5F0ECFBC833F4C8E4BB
:10160300C9FA22600D08C6A2E713C618C613C6D5C9
:10161300E0F322600C08C6C313C618C613C6D5E090
:10162300F422700422600D18C6C333C608C633C63D
:10163300D5E0F41822251810AF08F518400C151939
:101643008008F51840021519D2AF2200C0D0251822
:1016530010AF08F518500C05198008F5185002054D
:1016630019D2AFD0D0222518F58210AF08F5184053
:101673000C15198008F51840021519D2AF85198386
:10168300222518F582E43519F583222518F8E43567
:1016930019F9222518FAE43519FB222518FCE4353B
:1016A30019FD22E4732518C582C0E0E51934FFC58E
:1016B30083C0E0E518C3958224F810AF0885831929
:1016C3008582188008858319858218D2AFCEF0A34E
:1016D300E520F0A37808E608F0A3DEFAEFF0A3E52F
:1016E3008124FAF8E608F0A3E608F0A3E608F0A3DD
:1016F3000808E608F0A3E608F0A315811581D0E0F9
:10170300FED0E0F8158115811581E8C0E0EEC0E058
:10171300222518C582C0E0E51934FFC583C0E0E582
:1017230018C3958224F910AF088583198582188020
:1017330008858319858218D2AFCEF0A3E520F0A3E4
:101743007808E608F0A3DEFAEFF0A3E58124FBF8BE
:10175300E608F0A3E608F0A30808E608F0A3E60805
:10176300F0A315811581D0E0FED0E0F81581158135
:10177300E8C0E0EEC0E022851983851882E0A3FE6D
:10178300E0A3F5207808E0A3F608DFFAE0A3FFE082
:10179300A3C0E0E0A3C0E0E0A3C0E0E0A3C0E0E0BA
:1017A300A3C0E010AF08858218858319800885825D
:1017B30018858319D2AFD083D08202013285198371
:1017C300851882E0A3FEE0A3F5207808E0A3F608DD
:1017D300DFFAE0A3FFE0A3C0E0E0A3C0E0E0A3C022
:1017E300E0E0A3C0E010AF08858218858319800864
:1017F300858218858319D2AFD083D08222C0D025A9
:1018030018C582C0E0E51934FFC583C0E0E518C3FD
:10181300958224F310AF0885831985821880088583
:101823008319858218D2AFC8F0A3E9F0A3EAF0A325
:10183300EBF0A37908E709F0A3D8FAECF0A3EDF0F5
:10184300A3EEF0A3EFF0A3D0E0F0A3D0E0F0A3D099
:10185300E0F0A3E520F0A3E5F0F0A322851983854A
:101863001882E0C0E0A3E0F9A3E0FAA3E0FBA378C9
:1018730008E0F608A3DFFAE0FCA3E0FDA3E0FEA383
:10188300E0FFA3E0C0E0A3E0C0E0A3E0F5D0A3E065
:10189300F520A3E0A3F5F010AF088583198582181E
:1018A3008008858319858218D2AFD082D083D0E097
:1018B300F8D0E03274048006740280027401C0E040
:1018C300F404121669D0E012153E227404800474E5
:1018D300028000CCC0E0EDC0E0E518C39CCCAD199C
:1018E30050011D10AF068C188D1980068C188D19A8
:1018F300D2AF12154BD0E0FDD0E0FC22D083D082D2
:10190300E9C0E0E493A3C386F0C5F095F0F908E4D9
:1019130093A386F0C5F095F0700BE493A3C39940AD
:1019230005E9048002A3E475F002A42582F582E5AB
:10193300F03583F583D0E0F9E493A3C0E0E493C0EA
:10194300E022D083D082ECC0E0EDC0E0E493A3FCBE
:10195300E493A3FDED4C600D121991EC24FFFCED13
:1019630034FFFD80EFE493A3FCE493A3FDED4C600F
:101973000D1219D0EC24FFFCED34FFFD80EFD0E015
:10198300FDD0E0FCE493A3C0E0E493C0E022C0E018
:10199300C3E49396087401939618400FE49366701A
:1019A3000808740193661870007019A3A3C3E49325
:1019B30096087401939618A3A3400DD0E0D0E0D00D
:1019C300E0021981A3A3A3A3A3A3D0E022C0E0C094
:1019D300F088F0E493667008087401936618700049
:1019E300A8F0A3A3700BD0F0D0E0D0E0D0E00219B0
:0819F30081A3A3D0F0D0E02293
:1019FC0074F5121714EAFEEBFFEE2434F8EF340002
:101A0C00F988088909EE2435F582EF3400F583E076
:101A1C00F8EE2437F582EF3400F583E0F50AEC8517
:101A2C000AF0A4FCAAF0850AF0EDA42AFDE82CF833
:101A3C00E43DF97A257B001215ADEA85088285090B
:101A4C0083F0F8740758F97401B900028004C333A9
:101A5C00D9FCFAE8131313541FF8EE28F8EF3400EE
:101A6C00F9E8245DF582E93400F583E05A6008EE6C
:101A7C002434F582EF802CEE2434F582EF3400F51B
:101A8C0083E0C0E0EE2436F582EF3400F583E0F518
:101A9C00F0D0E084A8F0EE28F8EF3400F9E8243810
:101AAC00F582E93400F583E0F97F040217C074F580
:101ABC00121714EAFEEBFFEE2434F582EF3400F536
:101ACC0083E0C0E0EE2435F582EF3400F583D0E0FE
:101ADC00F08E828F83A3A3A3A3A3A3A3C082C083EE
:101AEC008E828F83A3A3A3A3A3E0F8A3E0F9D083F2
:101AFC00D082E0C398F508A3E099F509EE247FF5B0
:101B0C0082EF3400F583E064017069EE2480F58285
:101B1C00EF3400F583E0F8A3E0F98E828F83A3A362
:101B2C00A3A3A3A3A3E0FCA3E0FD8E828F83A3A3B6
:101B3C00A3A3A3E0FAA3E0FBC3EA9CEB9D5010C364
:101B4C00EC98ED99402EC3EA98EB995027800EC380
:101B5C00EA98EB994007C3EC98ED9940177CDC7D33
:101B6C0004EEFAEFFB120ACBEE247FF582EF340081
:101B7C00F583E4F0EE2434F8EF3400F9E8FCE9FDE9
:101B8C00EE2435F582EF3400F583E0F8EE2437F5DA
:101B9C0082EF3400F583E0F50AE508850AF0A4F538
:101BAC0008AAF0850AF0E509A42AF509E82508F841
:101BBC00E43509F97A257B001215ADEA8C828D8308
:101BCC00F0F8740758F97401B900028004C333D9D2
:101BDC00FCFAE8131313541FF8EE28F8EF3400F94D
:101BEC00E8245DF582E93400F583E05A6008EE24C0
:101BFC0034F582EF802CEE2434F582EF3400F5833B
:101C0C00E0C0E0EE2436F582EF3400F583E0F5F029
:101C1C00D0E084A8F0EE28F8EF3400F9E82438F589
:101C2C0082E93400F583E0F9122837021AB5C08234
:101C3C00C083851882851983E0F8A3E0F9C3EA9C78
:101C4C00EB9D5010C3EC98ED99401BC3EA98EB99AF
:101C5C005014800EC3EA98EB994007C3EC98ED99A9
:101C6C004004790180027900D083D08222EAC39C9F
:101C7C00FAEB9DFB2274EF1217149003A2E0640898
:101C8C006005E06407702A9061C8E060249003D07E
:101C9C00E0F4601DE0F875F003A4C8AAF02AF9740A
:101CAC00D228FE740339FF8E828F83A3A3A3E07026
:101CBC0003021DB1906060E0C0E0EE2468F582EF95
:101CCC003400F583D0E0F0750C45750D05750800F2
:101CDC00750900E5D914F50AE5D95403F50E60171A
:101CEC007403650E605CE50A6010EE2467F582EF04
:101CFC003400F583E07003021D96900540E064010A
:101D0C00602AEE2482F582EF3400F583E0600478DB
:101D1C000480027800850A08E508C398FA95E0FB70
:101D2C001209998A088B09EA45097005120CCF80B3
:101D3C0074EE2482F582EF3400F583E070048A0C93
:101D4C008B0DE50A6012850C82850D83F50BE5D9A8
:101D5C00F0A3150BE50B70F6EE2482F582EF340040
:101D6C00F583E0604474FC250AF50A780C1218BB64
:101D7C00AC0AA90EEEFAEFFB120B67740212164EA8
:101D8C00E97026AA08AB091211F7793D8E828F8370
:101D9C00A3A3A3A3E0FA7B0012086DEEFAEFFB12EB
:101DAC000AE3120B79790080747403650E60568512
:101DBC000A1075110078101218BBAC0CAD0DAA08E6
:101DCC00AB09120B43740212164EEE2468F582EF27
:101DDC003400F583E064807004747F8001E0F50CBE
:101DEC00780C1218BFE50EF50C780C1218BFA90A66
:101DFC00AC08AD099003D0E0FA7B001208317402F4
:101E0C0012164E80139003A2E06408600BAC0CAD6C
:101E1C000DEEFAEFFB120BD3120CDB79017F0A02E9
:101E2C0017C074F512171474FC121638EAFEEBFF87
:101E3C008908A2AFE433F509C2AF806AEE2463F8D7
:101E4C00EF3400F97A007B00A2AFE433F50AC2AF9D
:101E5C0088828983E0FCA3E0FDEC4D603A8882899E
:101E6C0083E0FAA3E0FB8A828B83E0FCA3E0FD888D
:101E7C00828983ECF0A3EDF08A828B83E4F0A3F0EB
:101E8C0088828983E0FCA3E0FDEC4D700A8882898E
:101E9C0083A3A3E4F0A3F0E50AA2E092AF1211F73A
:101EAC009004E3E004F0EE2463F582EF3400F58354
:101EBC00E0F8A3E0F9E849603DEE2463F582EF34E5
:101ECC0000F583E02402FAA3E03400FBEA2402F5D7
:101EDC000AEB3400F50B780A1218BB8A828B83E06C
:101EEC00FCA3E0F9EEFAEFFB120B07740212164E8C
:101EFC00E97003021E489004E3E060639004E4E0A0
:101F0C00F89004E3E0C398500C740265087050908C
:101F1C0004E5E0604A8E828F83A3A3A3A3E0851817
:101F2C0082851983F0A3E4F09004E3E0F8740212C4
:101F3C001684E8F0A3E4F09004E3E0F89004E2E007
:101F4C0028F07402121684AC82AD83851882851930
:101F5C0083AA82AB83790112083D9004E3E4F0E597
:101F6C0009A2E092AF740412164E021AB5000000DA
:101F7C008521878522C622C0E0C0D0E8C0E0E9C038
:101F8C00E0EAC0E0EBC0E0ECC0E0EDC0E0EEC0E0A9
:101F9C00C008C009C00AC00BC082C083C0F0A2AF89
:101FAC00E433FEC2AF759B00906182E0A2E0501258
:101FBC00E591A2E0500C7591FE740165217003123D
:101FCC001C81E0A2E55051E591A2E5504B7591DFE3
:101FDC009003A2E064076005E06408702374016557
:101FEC0021703579019003D0E0FA75F003A4CAA8EA
:101FFC00F028FB74D22AFA74033BFB121E2E8018B5
:10200C00E0640D70139003C4E004F064287002E4E3
:10201C00F07A00E0F9120CE1906182E0A2E6400354
:10202C000220CAE591A2E640030220CA7591BF9036
:10203C0003A2E064057008120C09120C158003123F
:10204C000C0F752100120C6FE99003A3F0790012AC
:10205C000C63120A417A017B009003A1E0F9120F84
:10206C0033907803E064427055900544E014F070AE
:10207C004DC2AF12208200782AD0E0F618D0E0F6DC
:10208C00E59F540770057509FF800375097FC4C06F
:10209C00E07829E6F50808E65509F509740B780887
:1020AC00121616D0E02508F8906270E0A2E740F80E
:1020BC00E8C333906272F0906270E0D2E0F090610D
:1020CC0081E0A2E35009E5E9A2E3500375E9F7A327
:1020DC00E0A2E75009E591A2E7500375917FEEA2CB
:1020EC00E092AFD0F0D083D082D00BD00AD009D000
:1020FC0008D0E0FED0E0FDD0E0FCD0E0FBD0E0FA70
:10210C00D0E0F9D0E0F8D0D0D0E032C0E0C0D0C000
:10211C0082C083906183E0A2E05009E5BFA2E05049
:10212C000375BFFEE0A2E15009E5BFA2E1500375C3
:10213C00BFFDE0A2E25009E5BFA2E2500375BFFB70
:10214C00E0A2E35009E5BFA2E3500375BFF7E0A29C
:10215C00E45009E5BFA2E4500375BFEFE0A2E550DF
:10216C0009E5BFA2E5500375BFDFE0A2E65009E523
:10217C00BFA2E6500375BFBFD083D0828088C0E079
:10218C00C0D0E8C0E0E9C0E0EAC0E0EBC0E0ECC0E1
:10219C00E0EDC0E0C0F0E5A7A2E6500FE5A1A2E695
:1021AC00500953A7BF75A1BF1221EFE5A7A2E550B7
:1021BC000CE5A1A2E5500653A7DF75A1DFE5A7A2A8
:1021CC00E15009E5A1A2E1500375A1FDE5A7A2E24A
:1021DC00500CE5A1A2E2500653A7FB75A1FBD0F071
:1021EC0002210074F81217147521019003A2E06407
:1021FC00067015120B978A828B83A3A3A3A3A3A3A8
:10220C00E0FAA3E0FB120BF7A2AFE433FED2AF90DF
:10221C0003A8E0640170187A207B009003A1E0F918
:10222C00120FB77A207B009003A1E0F9120F3990BE
:10223C006182E0D2E6F0900541E0602185C6228003
:10224C00169003A7E064017008E5C654F84405F540
:10225C00C653BEFC121F7C7401652160E4EEA2E043
:10226C0092AF7F010217C0008E238F2485822885B0
:10227C008327851882851983E0CEA3E0CF85288239
:10228C00852783EBC9EAC8EDCBECCA75F010C3E81F
:10229C0033C8E933C9EA33CAEB33CBC3EA9EF5261C
:1022AC00EB9FF525B35004AB25AA26EC33CCED33CC
:1022BC00CDD5F0DAAE23AF242274E912171474F8DA
:1022CC00121638851882851983ECF0A3EDF08A0874
:1022DC008B099003A2E024F7C394055006750801FE
:1022EC0002245C120B978A0A8B0BAE0AAF0BEE4FD3
:1022FC007003022459AC08AD097402121684AA8228
:10230C00AB83120C278E828F83A3A3750CFF750DE4
:10231C00FF750EFF750F00780C1214B274021216B2
:10232C00847510FF7511FF7512FF7513007810126C
:10233C0014B2780C79101212D8502A780C79101229
:10234C0014777508017509C8750A00750B007808B3
:10235C00790C1212D85052850C08850D09850E0A7D
:10236C00850F0B80507514017515C87516007517FF
:10237C000085100885110985120A85130B780879D8
:10238C000C121477781479081212D8401C750800B6
:10239C00750900750A00750B01780879101214770D
:1023AC007808790C12143E800C75080175090075BB
:1023BC000A00750B007409780812141F750C19F5B6
:1023CC000DF50EF50F7808790C1213978E828F830A
:1023DC00A3A3A3A3A3A3E0F8A3E0F97AD07B0312F1
:1023EC0015AD880C890DE4F50EF50F7808790C12F3
:1023FC00143E7406121684E0F8A3E0F97AD07B033D
:10240C001215ADE8FA8A0CE4F50D7808790C121265
:10241C00D850077808790C1214779003A2E064085E
:10242C00600AE064066005E06405702D750C0D789B
:10243C000C79081212D84021750CF4750DFF750E2D
:10244C00FF750FFF7808790C12143E800C7508008C
:10245C00750900750A00750B00851882851983E0D3
:10246C00F8A3E0F583888278081214E77408121632
:10247C004E7F100217C074F7121714120C39900506
:10248C003FE064017010906245E4F0A3F053F4F364
:10249C0043FE0C5390F3120BE5E5C654804449F50A
:1024AC00C6E59E547F644970F8906185740FF09076
:1024BC00053DE0F47002A3E0604E90053EE060083C
:1024CC0014601B14602E804075080175090090057E
:1024DC003DE07808121625E508F45280802A75082C
:1024EC000175090090053DE07808121625E508F401
:1024FC005290801475080175090090053DE078082C
:10250C00121625E508F452A079007F020217C07458
:10251C00F7121714E9FEEAFF74016E700C7A807BD7
:10252C00009003A1E0F9120F339028A4E493F46017
:10253C0008E493F9120A35800953C680E59E547F4E
:10254C0070FA120BEB90053FE064017003120A4D18
:10255C0090053DE0F47002A3E0604B90053EE06016
:10256C000814601A14602C803D75080175090090E0
:10257C00053DE07808121625E5084280802875088C
:10258C000175090090053DE07808121625E5084212
:10259C0090801375080175090090053DE0780812CC
:1025AC001625E50842A0120C39120B978A088B09E4
:1025BC00A808A909E8496015E5E170FCE82414F5C0
:1025CC0082E93400F583E0F46003E0F5E174016F17
:1025DC00700A7A019003A1E0F9120F870225167494
:1025EC00ED1217148A088B098C0A8D0B74131216B2
:1025FC0084780C1214D87808790C1212D875100142
:10260C007511C875120075130050127808790C12E8
:10261C001477781079081212D850168010780C792B
:10262C00081214777810790C1212D84004790180B2
:10263C000279007F0C0217C074ED1217148A088BF4
:10264C00098C0A8D0B7413121684780C1214D8781A
:10265C000C79081212D840117808790C121477AA48
:10266C0008AB09AC0AAD0B80227510007511007512
:10267C0012007513017810790C1214777810790800
:10268C0012143EAA10AB11AC12AD1380A68A828B29
:10269C00837508FF7509FF750AFF750B0078081222
:1026AC0014C57F040217C074F51217148C828D8325
:1026BC0078081214D88A828B83780812148BEA2437
:1026CC0004F8EB3400F98C828D83A3A3A3A3E0FC64
:1026DC00A3E0FD88828983C3E09CF0A3E09DF08891
:1026EC00828983C3E09420A3E0944E40268A828B97
:1026FC00837508FF7509FF750AFF750BFF780812C3
:10270C0014648A828B83A3A3A3A3E02420F0A3E008
:10271C00344EF002269974F5121714E9FE9004F762
:10272C00E0FAA3E0FBEEC333F8E433F974C928F5FF
:10273C0082748039F583E02AF508A3E03BF509782B
:10274C00081218BB7A407B427C0F7D0012227474F5
:10275C000212164E8A088B098C0A8D0B741078089D
:10276C00121406AA08AB097F040217C074F11217E1
:10277C00148A0C8B0D8C0E8D0F740F121684E0FACC
:10278C00A3E0FB7411121684E0F508A3E0F50978B8
:10279C00081218BBEA2401F508EB3400F509E4F53E
:1027AC000AF50B780C790812131775087175090264
:1027BC00780C7908121317AA0CAB0DAC0EAD0F12D6
:1027CC002274740212164E8B09EA450960047A01D0
:1027DC0080027A00EC2AFCED3400FD74131216848E
:1027EC00E0F8A3E0F9E8FEE9FFECF8EDF97A717B8B
:1027FC00021215AD880889098E828F83780812140D
:10280C00E7ECF8EDF97A717B021215AD8A088B09A9
:10281C00740578081216258E828F83A3A3A3A3E5D3
:10282C0008F0A3E509F07F080217C0C082C083E955
:10283C00906000F0D083D08222C2AF02000022C090
:10284C00E074F2121800A2AFE433FED2AFE589A215
:10285C00E04006E589A2E150031211497589007523
:10286C008900C2C5751A00EEA2E092AF7F01021872
:10287C005FC0E0C0D0E8C0E0E9C0E0E5A8D2AFC2DC
:10288C00C7751A00A2E7A2E792AFD0E0F9D0E0F842
:10289C00D0D0D0E032020132FFFFFFFFFFFFFFFF7D
:1028AC00C082C083E9900A25F0022AD674F712166A
:1028BC00A8E99002E1F07C197D037AFF7BFF1207F7
:1028CC008F9002E274FFF0A3F0A3E4F0A3F079057B
:1028DC0012071D9002E1E0F912063F7AA77B07125E
:1028EC00094B7F0102177A74F41216A88A088B0917
:1028FC00EB548060309002E1E0F9120F1B8A0A8BD6
:10290C000BAE0AAF0BEE4F60138E828F83E064B078
:10291C00700312072FEEFAEFFB120F09AA08E50954
:10292C006480FB80047A007B00022AA574F21216E4
:10293C00A874FC121638EAFEEBFFEE4F60387402F6
:10294C00121684EEF0A3EF122D0AECF0A3ED122D6B
:10295C000AAA82AB83120639E9F508707374121255
:10296C0016841238BEE50A450B60658E828F831281
:10297C0029E6EE4F700575080280557A067B001229
:10298C000F6F8A0C8B0DA80CA90DE8497005750802
:10299C0013803D88828983E41229F0A3A3EEF0A36F
:1029AC00EF123D57E50AF0A3E50BF09002E7122A6F
:1029BC00789002E76017E0FCA3E08003EAFCEBFDF3
:1029CC008C828D83122A7870F38C828D831237E37C
:1029DC00A908740412164E023F59A3A3A3A3E0FE48
:1029EC00A3E0FF22F0A3F0888289832274F21216EE
:1029FC00A8890AE975F017A4FEAFF09002E6E4F09E
:102A0C009002E4122A78600A120F759002E4E4F046
:102A1C00A3F0EEFAEFFB120F6F8A088B09EA450957
:102A2C00602FEEFCEFFD7900120EF79002E4E50842
:102A3C00F0A3E509F07B008008122A62E4F0A3F011
:102A4C000BEBC3950A40F2E50A9002E6F0790080A0
:102A5C00027913023F59EB75F017A4F8A9F0900214
:102A6C00E4E028FAA3E0398A82F58322123579EA68
:102A7C004B2274F41216A87900EAA2E0501B7508D8
:102A8C004475098178081218BB7C047D007A277B79
:102A9C000A120717740212164E7F0402177AC082AC
:102AAC00C0839002E7122ADD601C88828983A3A36D
:102ABC00E06A7003A3E06B8882898370E8A3A3A308
:102ACC00A312357580047A007B00D083D08202017A
:102ADC003212402CE8492274EE1216A874FC12161D
:102AEC0038EAFEEBFF851882851983E4F0A3F0EE3B
:102AFC0024021237C7EE2405122CF8EE2404F50E2E
:102B0C00EF1230DDE024FE603924FC604624FE60C8
:102B1C005224FE605E24FE7003022BFD24FE700323
:102B2C00022C7524FE7003022C8424FE7003022CEC
:102B3C009324FC7003022CA224FE7003022CB1021D
:102B4C002CEE9003007417F0A3E4122D121203B7AD
:102B5C00022CEE851882851983AC82AD8312073561
:102B6C00022CBE851882851983AC82AD8312073B7B
:102B7C00022CBE850C08850D097402121684AC82D9
:102B8C00AD8385088285098312357512065D8A0C22
:102B9C008B0DAC0CAD0DEC4D6042E4F50CF50D78E5
:102BAC000C1218BB750C00750D03780C1218BB7544
:102BBC000C01750D03780C1218BB740812168412D4
:102BCC0018D2791612356F120777740812164EE95F
:102BDC00F50C700B12356B1203CF800F750C018541
:102BEC000882850983122D001237E3850C08022C0C
:102BFC00C17402121684AC82AD83850C82850D8360
:102C0C0012357512065D8A108B11AC10AD11EC4D9E
:102C1C006043850C82850D83A3A31218D275100016
:102C2C0075110378101218BB75100175110378100B
:102C3C001218BB74081216841218D2791612356F3A
:102C4C00120777740812164EE9F509700B12356BE2
:102C5C001203D5800F750901850C82850D83122D09
:102C6C00001237E3850908804C851882851983ACDE
:102C7C0082AD83120741803A851882851983AC8214
:102C8C00AD83120747802B851882851983AC82ADE2
:102C9C008312074D801C851882851983AC82AD8305
:102CAC00120753800D851882851983AC82AD83126F
:102CBC000759E9F508E50860298E828F83A3E06443
:102CCC0014601F850E82850F83E0900300122D0A7D
:102CDC001240289003011237E3E508A3122D1212BB
:102CEC0003B1EEFAEFFB1206DB0236CFF50CEF3434
:102CFC0000F50D2212402C85188285198322F0854F
:102D0C00188285198322F07C007D03850A82850B4D
:102D1C00831235792274EE1216A874FC1216388AB6
:102D2C000A8B0B8C0E8D0FEA2405F508EB3400F59D
:102D3C00097C157D0079007A007B03120EF7E508FB
:102D4C002402F50CE509122CFB8518828519838564
:102D5C00821085831178101218BB8508828509832F
:102D6C00A3A3A3A31232251218BBE5082405F51062
:102D7C00E5093400F51178101218BB850C82850D0D
:102D8C008312357F120657740612164E8A108B1159
:102D9C00AE10AF11E50A2402F50AE50B1237CAEEA4
:102DAC004F7003022EE780177402121684123575C9
:102DBC0088828983EAF0A3EBF0900300E004F090A2
:102DCC000300E0C394054003022EE7E4F510F5116F
:102DDC0078101218BB7510E975110278101218BB17
:102DEC007510EA75110278101218BB74061216844D
:102DFC001218D27910EEFCEFFD12356F12077774B2
:102E0C000812164EE9705E850882850983A3A3A378
:102E1C00A3A3A3A3E0F89002E9E06870481232255E
:102E2C001218BB7CEA7D02E5082408FAE509340097
:102E3C00FB120EF1740212164EE960298E828F83FA
:102E4C00A3A3A3A3123575900300E0F510740278C8
:102E5C001012162574012510F58274033511F583B3
:102E6C00EAF0A3EBF07402121684858210858311AC
:102E7C0078101218BB74021216841218D2850C82A8
:102E8C00850D8312403D120663740412164E8A108F
:102E9C008B11AE10AF11900300E0F510751100749A
:102EAC0002781012162574002510F874033511F9E8
:102EBC0088828983A3122A787003022DABE824033D
:102ECC00F8E93400F9EE4F6003022DB4888289834F
:102EDC0074FFF0A3F0900300E004F0900300E060B6
:102EEC000A12356B1203C37900800B8508828509A1
:102EFC00831237DA790A0236CF74EA1216A874FEF6
:102F0C001216388C128D13EA2405F50CEB1240477F
:102F1C001229EA750800750900EA2402F510EB3451
:102F2C0000F51185188285198385820A85830B78B3
:102F3C000A1218BB850C82850D83A3A3A3A31230A0
:102F4C00E71218BBE50C2405F50AE50D1237CA7813
:102F5C000A1218BB850C82850D8312403B12065752
:102F6C00740612164E8A0A8B0BEA450B700302305C
:102F7C0098EA2404F50EEB1230DD1229EA8A828BD2
:102F8C0083A3A3A3E0F985108285118312357512F2
:102F9C000645E9F5096003023098E4F514F5157857
:102FAC00141218BB7514E975150278141218BB7538
:102FBC0014EA75150278141218BB740612168412D2
:102FCC0018D27913AC0AAD0B85108285118312359A
:102FDC0075120777740812164EE9F5096003023072
:102FEC00989002E9E0F8E5087009E02402900301EA
:102FFC00F08017900301E0FCE82402FAE43400FBB3
:10300C00EA6C7001EB600302309C850882AA821284
:10301C00321C94141232145073850E82850F83E087
:10302C00C0E074022A1230D4D0E0F00508850E827C
:10303C00850F83A3E0C0E085080A7402250A1230CC
:10304C00D4D0E0F005089002E91230E71218BB7CEE
:10305C00EA7D0285080A7402250AFA74033400FB1F
:10306C00120EDF740212164E9002E9E02508F508E4
:10307C0074FF6E700374FF6F6012EE24010EEF3458
:10308C0000FFE508C394145003022F2FE5086013CA
:10309C001234608510828511831235751203C9793B
:1030AC00008014E509700375090A85128285138363
:1030BC00EEF0A3EFF0A909740212164E7F0E021760
:1030CC007A85080C7402250CF58274033400F583A0
:1030DC00223400F50F850E82F58322123D6A22748C
:1030EC00EE1216A874FE1216388C0E8D0FEA2405FB
:1030FC00F50CEB122CFB750B00900300E4F0F50AB9
:10310C00EA2402F508EB3400F5098049900300E04D
:10311C00FA9002E9E0F812321C9417123214400DA6
:10312C00900300E0F87416C3989002E9F01232256F
:10313C001218BB7CEA7D0274012AFA74033400FB7A
:10314C00120EDF740212164E9002E9E0F8900300A2
:10315C00E028F0050AE50C2416F582E50D1230D8AE
:10316C00E0F8E50AC39840030231FD900300E0C388
:10317C009416507DE50AC333F8E433F9E50C28FEC8
:10318C00E50D39FF851882851983AC82AD838E825B
:10319C008F8312357512065D8A108B11AC10AD1130
:1031AC00EC4D7005750B018043E4F510F5117810AA
:1031BC001218BB7510E975110278101218BB751036
:1031CC00EA75110278101218BB74061216841218C4
:1031DC00D2791685088285098312357512077774A2
:1031EC000812164EE9F50B70030231181237D6800F
:1031FC00107C007D038508828509831235751203C6
:10320C00DBA90B74020236D1E99400C365D03322DA
:10321C00EA28F8E43400F9E822E0F510751100789A
:10322C00102274EA1216A874FC1216388A0C8B0D34
:10323C008C128D13EA2405F50AEB1237CA750800B7
:10324C00750900E50A2402F510E50B3400F511743C
:10325C000212168485820E85830F780E1218BB8598
:10326C000A82850B83A3A3A3A3123D161218BBE5F8
:10327C000A2405F50EE50B3400F50F780E1218BB79
:10328C008510828511831237D012356F1206577450
:10329C000612164E8A0E8B0FAE0EAF0FE50C2402E3
:1032AC00F50EE50D3400F50F80408882898374FF9C
:1032BC00F005081230CD74FFF005089002E9E0F536
:1032CC000C750D00780C1218BB7CEA7D0285080C7D
:1032DC007402250CFA74033400FB120EDF74021214
:1032EC00164E9002E9E02508F508EE4F60718E82CB
:1032FC008F83A3A3A3E0F9850E82850F8312357506
:10330C00120645E9F509EE2404122CF8E97044E4A0
:10331C00F514F51578141218BB7514E975150278A7
:10332C00141218BB7514EA75150278141218BB74B4
:10333C00081216841218D27911EEFCEFFD850E825C
:10334C00850F83123575120777740812164EE9F53E
:10335C00096027850C82850D831234561237E3E5FC
:10336C0008700302343C123460850E82850F831280
:10337C0035751203E17900023451850882AA82EA7C
:10338C009002E97009E02404900301F08022E0F837
:10339C00900301E0F514E82404FCE43400FDEC6532
:1033AC00147001ED70C012321C941212321450B60B
:1033BC00850C82850D83E0C0E074022A1230D4D0D3
:1033CC00E0F00508850C82850D83A3E0C0E0123087
:1033DC00CDD0E012347285820C85830D780C1218D6
:1033EC00BB74041216841218D285108285118312B4
:1033FC00403D120663740412164E8A0C8B0DAE0CF3
:10340C00AF0D85080C7402250CF874033400F9EE2A
:10341C004F70030232B6851882851983E088828941
:10342C0083123472A3E0C0E01230CDD0E00232C47B
:10343C00E509700375090A850A82850B83123456D7
:10344C001237E3A90974040230C512402C8512828C
:10345C0085138322900301E0F5F0E50884900300C6
:10346C00F07C007D0322F0050885188285198322E3
:10347C0074EC1216A874FE1216388A088B098C0E7E
:10348C008D0FEA2405FEEB3400FF85188285198325
:10349C00AC82AD838E828F8312357512065D8A0ADB
:1034AC008B0BEE2418122CF8EA450B7003023546F0
:1034BC001236B85032851882851983123575120769
:1034CC006B8A108B11EA4511606B7912AC0AAD0B4B
:1034DC0085088285098312357585108285118312C2
:1034EC0016A6E9F50A7058E4F50AF50B780A1218D5
:1034FC00BB8E828F83A3A3E0F50A780A1218BBEE69
:10350C0024031237C7780A1218BB8E828F831235A8
:10351C007F12077D740612164EE9F50A7021850C90
:10352C0082850D83E0701F850882850983123575AD
:10353C001203E78011750A0E8009750A018004E5F3
:10354C000A60031237D6850C82850D83E0600479FE
:10355C00008002A90A740212164E7F0C02177A7CA4
:10356C00007D03850A82850B8312357922E0FAA34C
:10357C00E0FB22E0FCA3E0FD85088285098312357F
:10358C00792274EE1216A874FE1216388A088B096A
:10359C008C0C8D0DEA2405FEEB3400FF750E0085B6
:1035AC001882851983AC82AD838E828F8312357518
:1035BC0012065D8A0A8B0BEA450B70030236A412C5
:1035CC0036B8503585188285198312357512076BFC
:1035DC008A0E8B0FEA450F605E7912AC0AAD0B8533
:1035EC000882850983123575850E82850F83121624
:1035FC00A6E9F50E60030236A785088285098312B9
:10360C0038BEAA0AFB12075F8A108B11A810A911E9
:10361C00E849701E7AFF7BFF12075F8A108B11A896
:10362C0010A911E849606C88828983E50AF0A3E54A
:10363C000BF0750A008007750E0E805F050A90026C
:10364C00E6E0FAE50AC39A504AE50A75F017A4FABF
:10365C00ABF088828983A3A3E02AFAA3E03BFB8A20
:10366C00828B831237D0EC4D70D2750A17750B0014
:10367C00780A1218BBEEFCEFFD120EDF7402121664
:10368C004EEEFCEFFD850882850983123575120319
:10369C00ED8014750E098003750E01124024850C03
:1036AC0082850D831237E3A90E02320FE50824023E
:1036BC00F508E5093400F5098A828B83A3A3A3E0FE
:1036CC00A2E522740412164E7F0A02177A74EC12C9
:1036DC0016A88C108D11EA2405F50CEB122CFB7539
:1036EC000F00EA2402F50AEB1237CA850A82F58329
:1036FC0012357512075F8A088B09EA4509700302B7
:10370C0037BC750E008071850C82850D83E06401D9
:10371C00704F8E828F83A3A31218D28E828F83A3B5
:10372C00A3A3A3E0F51275130078121218BBEE24B4
:10373C0005F512EF3400F51378121218BB12356F21
:10374C0012077D740612164EE9F50F6014850C8273
:10375C00850D83E4F0124024851082851183123785
:10376C00E37C177D007900EEFAEFFB120EF78E82E8
:10377C008F83E4F0A3F0050E9002E6E0F8E50EC3AB
:10378C0098501EE50E75F017A4F8A9F085088285EF
:10379C000983A3A31240511237D0EC4D60030237BA
:1037AC001385088285098374FFF0A3F0E50F70067A
:1037BC0012356F1203F3A90F023566F50AEF3400C8
:1037CC00F50B22A3E0FCA3E0FD228E828F83124036
:1037DC002C850E82850F83E8F0A3E9F022C082C00D
:1037EC00839002E2E06A7003A3E06B70067AE27BDE
:1037FC000280047A007B00022AD6C082C083780043
:10380C008C828D83E06A7003A3E06B7010E875F016
:10381C0003A4F8A9F0EC28FAED39FB8015088C828A
:10382C008D83A3A3A3E06A7003A3E06B60DF7A002F
:10383C007B00022AD674F61216A81207298A828BEC
:10384C0083E582458370067A007B008007A3A3A3DF
:10385C00A3123575023ED574F21216A8E9FE740E49
:10386C001216841238BE7410121684123D368C82D5
:10387C008D83E064027036A3124032F50CA3E0F99C
:10388C00A80C74026870037429697021750C027598
:10389C000D00780C1218BB78081218BB780A121895
:1038AC00BBEEF91207A1740612164E8002790102C2
:1038BC003F59E0F50AA3E0F50B2274E81216A87440
:1038CC00FB121638E9851882851983F08A168B1736
:1038DC00ECFEEDFF751000741D1216841240287456
:1038EC001D1216841237E38E828F83A3A3A3E0A24A
:1038FC00E4502D741D12168412357512076B8A82D2
:10390C008B83E58245837003023D07790AEEFCEF59
:10391C00FDAA16AB171216A6E9F5106003023D0AB4
:10392C00741F121684123D3674211216841238BE7E
:10393C007423121684E0F50EA3E0F50F8E828F83AC
:10394C00E064026003023CB5A3124028850882851E
:10395C000983A3858212858313EE2406122CF88822
:10396C00828983E0FAA3E0F9EA2400F514E439F53E
:10397C00157814121945010000280128AA390700EE
:10398C0002286F3A0328DC390029A63B0129D13BD8
:10399C000229723B0329A63B0429503CB53CE50E99
:1039AC00450F6003023CB0850C82850D83123D2BC4
:1039BC00FAE9FB8A828B83E0850A82850B83123DB0
:1039CC00611218BB8A828B83A3E0FCA3E0023C3A11
:1039DC00E50E450F6003023CB0850A82850B8374AB
:1039EC0001F0123D3E850882850983F07C007D0044
:1039FC008E828F83A3A3A3A3E02401FAA3E0340057
:103A0C00FB12065DEA4B60418A828B83E02402F84C
:103A1C00850A82850B83E028F0EA2404F8EB340055
:103A2C00F988828983E0851282851383123D731293
:103A3C003D611218BB8A828B831237CFE5082403B1
:103A4C00FAE5093400FB023C3F850A82850B83E0D2
:103A5C002404F07C047D007900AA12AB13120EF73B
:103A6C00023D0AE50E450F6003023CB0123D3EFEDE
:103A7C00A3E0FF850A82850B837404F0EE8508822F
:103A8C00850983F0EF851282851383F07403121677
:103A9C0084AC82AD83EEFAEFFB12065D8A0C8B0DC3
:103AAC00EA450D7003023B538A828B83A3A3122930
:103ABC00E6740112168485820E85830F780E121817
:103ACC00BB74051216841218D27CFF7DFF1206639C
:103ADC00740412164E8B0FEA450F7033850C8285D9
:103AEC000D83123D161218BB850C82850D83A31213
:103AFC0018D27C027D007AC37B8112048F7404126D
:103B0C00164EE9700A740112168474FFF0A3F08E3D
:103B1C00828F83E064027039750C02750D00780C8D
:103B2C001218BB8E828F831237CFE5082404FAE576
:103B3C00093400FB120EDF740212164E850A8285C0
:103B4C000B83E0240280097401121684EEF0A3EFBB
:103B5C00F07401121684123D27F07401121684A31E
:103B6C00123D1F023CAAE50E450F6003023CB085D6
:103B7C000C82850D831237D0AA16AB1712079585C8
:103B8C000A82850B837402F0EA850882850983F02A
:103B9C00851282851383EB023CADE50E450F600365
:103BAC00023CB0123D3EF8A3E0F9850A82850B83F6
:103BBC007402F0E8850882850983F0E98512828514
:103BCC001383023CAD850C82850D83123575120E64
:103BDC00D9EAFC8C82A882C3950EE4950F405FE86D
:103BEC00650E7002E50F70047C00802285188285BA
:103BFC001983E0FAE50E2AFAE50F3400FBC3EA98C4
:103C0C00EB94005003E08005E50ECCC39CFCEC85E6
:103C1C000A82850B83F08C0A750B00780A1218BB8C
:103C2C00850C82850D83E0250EFCA3E0350FFDAAE3
:103C3C0008AB09120EDF740212164E023D0A751003
:103C4C0007023D0AE50E450F705A850C82850D83DF
:103C5C00124028850A82850B8374071229F2123DC3
:103C6C001F1229F2A3E0851282851383F0E8240247
:103C7C00FAE93400FB8A828B83123D1F123D4E12EF
:103C8C003D27A3123D57123D30F0E82405F8E934E6
:103C9C0000F988828983123D30A3123D73A3A3A33C
:103CAC00A3F0805A75100B8055741D1216841235B2
:103CBC00751207298A828B83E5824583603D124009
:103CCC0028880C890DE8450D6031780E1218BB78E8
:103CDC000A1218BB78081218BB7406121684E0F985
:103CEC00EEFCEFFDAA16AB17850C82850D83121620
:103CFC00A6740612164EE9F510800375100EA91065
:103D0C00740512164E7F1002177AE0F50E750F002F
:103D1C00780E22E085088285098322123D7D2212CD
:103D2C00402CE822123D7DA3A322E0F508A3E0F588
:103D3C000922850C82850D83E0F8A3E0F583888247
:103D4C00E022A3A3F08A828B83A322F0888289834A
:103D5C00A3A3A3A322F08A828B83123D6A22E0F5EF
:103D6C000A750B00780A22F088828983A3123D7DA4
:103D7C0022E0850882850983A3A32274EE1216A87B
:103D8C0074FE1216388A0A8B0BECFAEDFB741412C3
:103D9C001684E0F510A3E0F5117416121684E0FEFB
:103DAC007418121684E0F50EA3E0F50F85188285C1
:103DBC001983AC82AD8312065D8A0C8B0DEA450D1E
:103DCC0060498518828519831235751207298A82F4
:103DDC008B83E5824583602FA3A3123D36E508450E
:103DEC00096024780E1218BB78101218BBEEF9ACCF
:103DFC000CAD0DAA0AAB0B8508828509831216A699
:103E0C00740412164E8006790E8002790102320F6C
:103E1C0074F61216A874FE121638740C121684124C
:103E2C003D2B851882851983F07401121684E9F0F4
:103E3C00E4F508F50978081218BB75080278081221
:103E4C0018BB7404121684858208858309780812BD
:103E5C0018BB12077D740612164E740212164E8091
:103E6C006874F71216A8EAFEEBFF89087C197D032B
:103E7C00120795EA5402600BA908EEFAEFFB120642
:103E8C0051800279010228EE74F61216A874FF6AAA
:103E9C00700374FF6B70168C828D83123EDAE4F023
:103EAC008C828D83A3A3A3123EDAA380181207651C
:103EBC008A088B09A808A909E849600D88828983BA
:103ECC0074FF1229F0A3A3E4F07F0202177A74FFA7
:103EDC00F0A3F08C828D83A3A32274F61216A81281
:103EEC0007658A828B83E58245836006A3A3E0FA8B
:103EFC0080027A007B0080D174F21216A88A088B9B
:103F0C0009ECFEEDFF740E121684E0F50A1207653B
:103F1C008A0C8B0DA80CA90DE8497026EEFCEFFD60
:103F2C007AFF7BFF1207658A0C8B0DA80CA90DE894
:103F3C004970047911801688828983E508F0A3E51D
:103F4C0009F088828983A3A3E50AF079007F060231
:103F5C00177A74EE1216A8EAFEEBFF8C088D09890D
:103F6C000C7414121684124028741612168412350E
:103F7C0075750D00E849600302401C7402650C6005
:103F8C00030240177412121684124032FCA3E0F99B
:103F9C00EC2400F50EE439F50FEAF4F8EBF4F9EC47
:103FAC0058F8E50F59F9E849705CE5082406F8ED76
:103FBC003400F9880A890B8882F58312403D120778
:103FCC00958A108B11E50E65107004E50F65116074
:103FDC0042780E1218BB850A82850B8312403D1263
:103FEC00079B740212164EE9F50D7027780E121805
:103FFC00BB850882850983A3A312403B1207AD74CD
:10400C000212164E800D750D808008750D0D800303
:10401C00750D0BA90D0236D48E828F8312402C2283
:10402C00E0F8A3E0F92212402C88828983E022A3D5
:10403C00A3E0FCA3E0FDEEFAEFFB223400F50D85C6
:10404C000C82F58322E028FEA3E039FF8E828F8359
:10405C002274F21216A8EAFEEBFF890B7401650BB1
:10406C00600E7402650B706A7901120969E970625D
:10407C00EEFAEFFB12075F8A088B09EA45096047E5
:10408C00750A00800B7C177D007900120EF7050A6B
:10409C009002E6E0F8E50AC3985021E50A75F0179E
:1040AC00A4F8A9F0850882850983A3A3E028FAA3C4
:1040BC00E039FB8A828B83122ADD70C985088285E0
:1040CC00098374FFF0A3F07C197D03EEFAEFFB1269
:1040DC00078F023F5974F21216A88A088B09ECFE5E
:1040EC00EDFF740E1216841238BE900A25E0F460AF
:1040FC003D7A097B00120F03EA4B60328A828B8374
:10410C0074B1F0A3E4123D50A3123D4EA3E508F0A8
:10411C00A3E50912413DEEF0A3EF12413DA3A3E547
:10412C000AF0A3E50BF0900A25E0F9120F0F023FFD
:10413C0059F08A828B83A3A3A3A3A322C082C0833A
:10414C009061907404F0A37448F0A37402F0906131
:10415C00807440F09061BC7403F09061877419F026
:10416C00906265741BF0906249E0C3941390619C5B
:10417C00400A7409F090606674018007740DF09029
:10418C006066E4F090619A7433F0A37455F090611A
:10419C00A0743AF090053FE064017009C29190035D
:1041AC00A6746780059003A67461F09028AAE49326
:1041BC00906186F09028A4E493F46027E493540F64
:1041CC00F8906185E0686012E5C654804449F5C6F4
:1041DC00E59E547F644970F8E8F053C680E59E5420
:1041EC007F70FA7905120CC30243A3C082C083E925
:1041FC00540FF9906185E0696012E5C6548044491A
:10420C00F5C6E59E547F644970F8E9F053C680E525
:10421C009E547F70FA0243A3C082C083E5A8F85372
:10422C00A87E906181E4F0A3F0A3F0C2BA539AFE89
:10423C00C289759B00C2C275E90075910075BF00FB
:10424C0075A91175B905906181F0A374C0F0A3E450
:10425C00F0D2BA439A0174805842A80243A3C08298
:10426C00C08374F81216389003A4E0F8A3E0F9E8C0
:10427C004970030243989003A4E0544060237908EA
:10428C00851882851983AA82AB83120B2585188227
:10429C00851983AA82AB831208199003A4E054BF3A
:1042AC00F0E054806010790C7A657B05120B259038
:1042BC0003A4E0547FF0E0A2E0503190619A743393
:1042CC00F0A37455F09061A0743AF090053FE0644F
:1042DC00017009C2919003A6746780059003A674BF
:1042EC0061F012081F9003A4E054FEF0E054026049
:1042FC003190619A743FF0A3745AF09061A0747F6E
:10430C00F090053FE064017009D2919003A674719E
:10431C0080059003A6746AF012081F9003A4E05461
:10432C00FDF0E0540460139028A8E493906186F0AB
:10433C001208259003A4E054FBF0E054086013909D
:10434C0028A9E493906186F01208259003A4E05408
:10435C00F7F0E0541060139028AAE493906186F073
:10436C001208259003A4E054EFF0E05420600A12E8
:10437C0008259003A4E054DFF0A3E05401600D1273
:10438C000A4D12082B9003A5E054FEF07408121687
:10439C004E0243A3F0A3F0D083D08202013274EC1E
:1043AC001216A874F4121638851882851983AC82FB
:1043BC00AD8375838175829A740412154B9028A86D
:1043CC0093F46003024536907808E0C394025003DE
:1043DC000245167404121684AC82AD837583817504
:1043EC00822A740812154B851882851983858212CE
:1043FC008583137404121684AC82AD83750EFF751D
:10440C000FFF7FFF7E00750C48750D7880157408C2
:10441C006E70030244AA74096E70030244AA740AF3
:10442C006E607B850C82850D8378081214D88C8283
:10443C008D83A909E50AC9F8881074187808121434
:10444C0006E5104508F8C3E098A3E099850C828531
:10445C000D8378081214D840188C828D83741878C8
:10446C0008121406E5104508F8E0C398F8A3E0809C
:10447C001C74187808121406E5104508FAE9FB8C30
:10448C00828D83E0F8A3E0F9EAC398F8EB99F9C3BD
:10449C00E8950EE9950F5006880E890FEEFF0EE594
:1044AC000C2404F50CE50D3400F50DEEC3941350FB
:1044BC000302441A74FF650E700474FF650F6023C9
:1044CC008F087402780812162574482508F5827432
:1044DC00783509F58378081214D8851282851383F0
:1044EC00E508F0EC2402FCED3400FD851282851306
:1044FC0083A3858212858313740C121684E5826C57
:10450C007003E5836D6003024408750801750900AA
:10451C0078081218BB7402121684AC82AD837A2A06
:10452C007B0A121125740212164E740C12164E7F51
:10453C000C02177AC082C0839061AE7468F0A374C9
:10454C006AF090624574FBF0A304F053F4FD43FE53
:10455C000290053F7401F09061A0E0643A90619A7A
:10456C0070237433F0A37455F09061A0743AF07416
:10457C000164017009C2919003A6746780289003AE
:10458C00A674618021743FF0A3745AF09061A074FA
:10459C007FF0740164017009D2919003A67471804C
:1045AC00059003A6746A0243A27F0802177AC082A0
:1045BC00C0839004F1E06401700A9004F6E060049A
:1045CC00790C800279000243A3C082C08375E1F1AB
:1045DC009004F4E0605B14600914605F146057147D
:1045EC00705E120A5F9004EAE0F97AEB7B04120C1D
:1045FC00457AD67BBE7C897D8E120C7B7A557B5599
:10460C007C557D00120C519004F5E0F9120C5D798B
:10461C0001120CB79004E8E0F8A3E0C82416F58268
:10462C00E83400F5837477F0A3740AF07900024340
:10463C00A3120A6580AF120A6B80AA120A7180A5B8
:10464C00791280EA74F01216A875D90D9004D5E091
:10465C00A2E0E4331313F89004EAE0C4333354C0FB
:10466C00484401F5D978E8790488828983A3A3A307
:10467C00E0F5D988828983A3A882A983E864EE70C7
:10468C0003E9640470E378D5790488828983A3E014
:10469C00F5D988828983A3A882A983E864DB700397
:1046AC00E9640470E575E1959004D5E0F97AD67B60
:1046BC0004120C4B900A47740BF0A3740AF0A37409
:1046CC006DF0A3740BF0A3746DF0A3740BF0A374D2
:1046DC006DF0A3740BF0A37411F0A3740AF0A3741F
:1046EC006DF0A3740BF0A37429F0A3740AF0900A74
:1046FC0055746DF0A3740BF0A3746DF0A3740BF0F0
:10470C00A3746DF0A3740BF0A3746DF0A3740BF091
:10471C00A3746DF0A3740BF0A3746DF0A3740BF081
:10472C009004F4E064019004E87012E0F8A3E0F562
:10473C00838882A3A37508007509088010E0F8A38C
:10474C00E0F5838882A3A3750804750900750A0037
:10475C00750B007808121451750CFF750DFF750E52
:10476C00FF750F007808790C12149F9004E8E0F89C
:10477C00A3E0C8240EF582E83400F58378081214FF
:10478C00E79004E8E0F8A3E0C82414F582E83400CC
:10479C00F5837413F09003A27402F00245B574F71C
:1047AC001216A89004FAE02407F5D99004EAE0C4A4
:1047BC00333354C0F5D978E8790488828983A3A36C
:1047CC00A3E0F5D988828983A3A882A983E864EE43
:1047DC007003E9640470E39004FAE0601F78E879F0
:1047EC0004FAE82413F582E93400F583E0F5D9885E
:1047FC00828983A3A882A9831AEA70E690051AE03D
:10480C002407F5D99004EAE0C4333354C04404F5CA
:10481C00D978E8790488828983A3A3A3E0F5D988A1
:10482C00828983A3A882A983E864EE7003E96404F7
:10483C0070E390051AE0601F78E87904FAE82433F5
:10484C00F582E93400F583E0F5D988828983A3A841
:10485C0082A9831AEA70E675E195900A477417F0FD
:10486C00A3740AF0A3746DF0A3740BF0A3746DF031
:10487C00A3740BF0A3746DF0A3740BF0A37411F07C
:10488C00A3740AF0A3746DF0A3740BF0A37429F055
:10489C00A3740AF0900A55746DF0A3740BF0A37412
:1048AC006DF0A3740BF0A3746DF0A3740BF0A374F0
:1048BC006DF0A3740BF0A3746DF0A3740BF0A374E0
:1048CC006DF0A3740BF09004E8E0F8A3E0C8240E9C
:1048DC00F582E83400F58374FFF0A3F0A3F0A3F0A5
:1048EC009004E8E0F8A3E0C82414F582E83400F55D
:1048FC00837412F09003A27401F0FF02177A74F71C
:10490C001216A89004FAE02407F5D99004EAE0C442
:10491C00333354C04402F5D978E87904888289830A
:10492C00A3A3A3E0F5D988828983A3A882A983E8ED
:10493C0064EE7003E9640470E39004FAE0601F789D
:10494C00E87904FAE82413F582E93400F583E0F5FC
:10495C00D988828983A3A882A9831AEA70E675E1B3
:10496C0095900A477423F0A3740AF0A37423F0A360
:10497C00740AF0A37423F0A3740AF0A37423F0A3B5
:10498C00740AF0A37423F0A3740AF0A37423F0A3A5
:10499C00740AF0A37429F0A3740AF0900A55746D8C
:1049AC00F0A3740BF0A3746DF0A3740BF0A3746DEF
:1049BC00F0A3740BF0A3746DF0A3740BF0A3746DDF
:1049CC00F0A3740BF0A3746DF0A3740BF09004E8D7
:1049DC00E0F8A3E0C8240EF582E83400F58374FFF8
:1049EC00F0A3F0A3F0A3F09004E8E0F8A3E0C8244F
:1049FC0014F582E83400F5837414F09003A2740467
:104A0C00F0024CD174F71216A89004FAE02407F5C2
:104A1C00D99004EAE0C4333354C04406F5D978E89D
:104A2C00790488828983A3A3A3E0F5D9888289833A
:104A3C00A3A882A983E864EE7003E9640470E39090
:104A4C0004FAE0601F78E87904FAE82413F582E9A7
:104A5C003400F583E0F5D988828983A3A882A983E1
:104A6C001AEA70E690051AE02407F5D99004EAE0FA
:104A7C00C4333354C04404F5D978E8790488828966
:104A8C0083A3A3A3E0F5D988828983A3A882A983F1
:104A9C00E864EE7003E9640470E390051AE0601FAB
:104AAC0078E87904FAE82433F582E93400F583E0F8
:104ABC00F5D988828983A3A882A9831AEA70E6753E
:104ACC00E195900A47741DF0A3740AF0A3746DF07D
:104ADC00A3740BF0A3746DF0A3740BF0A3746DF0BE
:104AEC00A3740BF0A3746DF0A3740BF0A3746DF0AE
:104AFC00A3740BF0A37429F0A3740AF0900A5574F4
:104B0C006DF0A3740BF0A3746DF0A3740BF0A3748D
:104B1C006DF0A3740BF0A3746DF0A3740BF0A3747D
:104B2C006DF0A3740BF0A3746DF0A3740BF09004F0
:104B3C00E8E0F8A3E0C8240EF582E83400F58374AD
:104B4C00FFF0A3F0A3F0A3F09004E8E0F8A3E0C812
:104B5C002414F582E83400F5837415F09003A274E4
:104B6C0003F0024CD1C082C0839004E8E0F8A3E0CB
:104B7C00C82406F582E83400F583E40243A074F7F8
:104B8C001216A89003D0E0F875F003A4C8AAF02A76
:104B9C00F974D228F8740339F9E82405FAE93400D9
:104BAC00FB8A828B83E0FCA3E0FD88828983A3A32C
:104BBC00A3A3A3A3A3A3A3ECF0A3EDF08882898302
:104BCC00A3A3A3A3A3A3A3E024FFF8A3E034FFF9BA
:104BDC008A828B83E8F0A3E9F0024CD174F71216A9
:104BEC00A8EAFEEBFF9061D0E06003024CC575D9DA
:104BFC000E75D90375D904EE248BF582EF3400F5CC
:104C0C0083E5822408F8E5833400F9E0F5D9A3E8BC
:104C1C0065827003E9658370F2EE2483F582EF34CC
:104C2C0000F583E5822404F8E5833400F9E0F5D936
:104C3C00A3E865827003E9658370F275E1957908E4
:104C4C00EE248BFAEF3400FB120B197904EE24835B
:104C5C00FAEF3400FB120B197C00EEF8EFF9ECFACA
:104C6C00C3E49AFA95E0FBEE2AFAEF3BFBEA248ABE
:104C7C00F582EB3400F583E0C0E0E824AAF582E984
:104C8C003400F583D0E0F00C88828983A3A882A934
:104C9C0083ECC3940840C7EE246FF582EF3400F523
:104CAC0083E0F8A3E0F9EE2471F582EF3400F5838C
:104CBC00E8F0A3E9F07901800279008008F0EEA217
:104CCC00E092AF79007F0102177AC082C08375D958
:104CDC000275D90375D90575E195EA246FF582EB58
:104CEC003400F583E0F8A3E0F9EA2471F582EB34A3
:104CFC0000F583E8F0A3E9F079010243A374F612FE
:104D0C0016A8EAFEEBFF9005457406F0750845758C
:104D1C00090578081218BB7C017903120B61740227
:104D2C0012164E75D90675D903758245758305E043
:104D3C00F5D9A3E582644A7004E583640570F075C7
:104D4C00E1959003A2E06408701EEE246FF582EFEB
:104D5C003400F583E0F8A3E0F9EE2471F582EF342A
:104D6C0000F583E8F0A3E9F07901024FD774F6124D
:104D7C0016A8EAFEEBFF9061D0E070667801900512
:104D8C0045740BF09003A2E0640770197508457523
:104D9C00090578081218BB7C017903120B617402A7
:104DAC0012164E7805740128F5D975D9037582450C
:104DBC00758305E8FAE0F5D9A31AEA70F875E19560
:104DCC00EE246FF582EF3400F583E0F8A3E0F9EE02
:104DDC002471F582EF3400F583E8F0A3E9F0790152
:104DEC0080027900024FD774F71216A8EAFEEBFF87
:104DFC0075D90375D90375D90DEE24DDF582EF3421
:104E0C0000F583E0F5D975E1957904120C81EE2457
:104E1C006FF582EF3400F583E0F8A3E0F9EE24712E
:104E2C00F582EF3400F583E8F0A3E9F07901024C48
:104E3C00D174F61216A8EAFEEBFF9061D0E0F8747C
:104E4C0080C398FAEE2482F582EF3400F583E0609B
:104E5C0004780480027800E8240BF8EAC398500325
:104E6C00024F027D09900545EDF0EE24E2F8EF3497
:104E7C0000F97A467B057C0888828983E08A828BDC
:104E8C0083F088828983A3A882A9838A828B83A3D7
:104E9C00AA82AB831CEC70E0EE2482F582EF340026
:104EAC00F583E0601D75084575090578081218BB77
:104EBC007C097903EEFAEFFB120B61740212164EA9
:104ECC007D0D74012DF5D975D90375824575830552
:104EDC008D08E0F5D9A31508E50870F675E195790C
:104EEC0004120C81EE241DF582EF3400F583E4F0FE
:104EFC00A3F0790180027900024FD774F61216A83C
:104F0C00EAFEEBFF9061D0E0F87480C398FAEE24CF
:104F1C0082F582EF3400F583E06004780480027837
:104F2C0000E82408F8EAC3985003024FD57806909D
:104F3C000545740CF09003BFE0900546F09003C05B
:104F4C00E0900547F09003C1E0900548F09003C253
:104F5C00E0900549F09003C3E090054AF0EE2482FE
:104F6C00F582EF3400F583E0601B75084575090583
:104F7C0078081218BB7C067903EEFA120B617402E6
:104F8C0012164E780A740128F5D975D90375824525
:104F9C007583058808E0F5D9A31508E50870F67542
:104FAC00E1957904120C81EE246FF582EF3400F553
:104FBC0083E0F8A3E0F9EE2471F582EF3400F58379
:104FCC00E8F0A3E9F07901800279007F0202177AF8
:104FDC0074F61216A8EAFEEBFF9061D0E0F874802C
:104FEC00C398FAEE2482F582EF3400F583E0600476
:104FFC00780480027800E82404F8EAC3985003028D
:10500C0050B67802900545E8F0EE24F4F582EF34C2
:10501C0000F583E0900546F0EE2482F582EF340033
:10502C00F583E0601B75084575090578081218BBF7
:10503C007C027903EEFA120B61740212164E78069A
:10504C00740128F5D975D9037582457583058808CF
:10505C00E0F5D9A31508E50870F675E195EE247313
:10506C00F582EF3400F583E4F0EE247FF582EF3423
:10507C0000F583E4F0EE241DF582EF3400F583E4B3
:10508C00F0A3F07904120C81EE240DF582EF3400BC
:10509C00F583E0F8A3E0F9EE2471F582EF3400F526
:1050AC0083E8F0A3E9F0790180027900024FD7740C
:1050BC00F61216A89061D0E0F87480C398FCEA242C
:1050CC0082F582EB3400F583E0600478048002788A
:1050DC0000E82404F8ECC398405B79029005457411
:1050EC0007F0EA24F5F582EB3400F583E0900546F1
:1050FC00F0EA2482F582EB3400F583E06018750841
:10510C004575090578081218BB7C0209120B6174ED
:10511C000212164E7906740129F5D975D9037582D8
:10512C0045758305E9F8E0F5D9A318E870F875E141
:10513C0095790180027900024FD774F51216A8E90F
:10514C00FCA2AFE433F50AC2AF7D0080010DEA2466
:10515C006EF582EB3400F583E0F8EDC398501A8DB0
:10516C0008EA2508F8EB3400F9E8246AF582E934FA
:10517C0000F583E06C70D68024EA246EF8EB3400E2
:10518C00F9E0FEEA2EFAEB3400FBEA246AF582EB36
:10519C003400F583ECF088828983E004F0E50AA200
:1051AC00E092AF7F0302177A74F61216A8A2AFE44E
:1051BC0033FDC2AFEA246EF582EB3400F583E014C4
:1051CC00F07C0060368C08EA2508F8EB3400F9E82E
:1051DC00246BF582E93400F583E0C0E0E8246AF53D
:1051EC0082E93400F583D0E0F00CEA246EF582EB12
:1051FC003400F583E0F8ECC39840CAEA246DF582DC
:10520C00EB3400F58374FFF0EA2469F582EB34008B
:10521C00F583E4F0EDA2E092AF024FD7C082C083D9
:10522C00E5A8F8C2AFEA246AF582EB3400F583E90D
:10523C00F0EA2469F582EB3400F583E4F0E8A2E7A8
:10524C00A2E792AF0243A374F31216A8EAFEEBFF97
:10525C00ECFAEDFB8A828B83A3A3A3A3E0541FF08B
:10526C00EE2436F582EF3400F583E4F0F50AEEFC1B
:10527C00EFFD8A828B83E0C0E0EC245DF582ED3497
:10528C0000F583D0E0F0750B00E50A33333354F8A6
:10529C00F50C8A828B83E0F508750900E50B78081C
:1052AC00121606E508A2E0502FEE2436F8EF340073
:1052BC00F988828983E0F508EE2508F508EF3400BB
:1052CC00F509E5082438F582E5093400F583E50C89
:1052DC00F088828983E004F0050B050CE50BC39480
:1052EC000840AF050A8A828B83A3AA82AB838C8287
:1052FC008D83A3AC82AD83E50AC39405500302529F
:10530C007E7F0502177A74F71216A89003CEE0641C
:10531C000170030254707A009003D4E060030254CD
:10532C00707401F0A3E4F0A3F090043404F0900442
:10533C0039F09003D7E4F0A3F0A3F0A3F09003E1CD
:10534C0004F0900407E4F09003EAF0A3F0A3F0A3B8
:10535C00F0A3F0A3F0A3F0900451F0900445F0906A
:10536C00043A7480F0A3E4F0900440F09004BCF094
:10537C00A3F0A3F0A3F0A3F0A3F0A3F0A3F0900488
:10538C00C5F0900454F09004A4F0A3F0A3F0A3F0A3
:10539C00A3F0A3F0A3F0A3F0A3F0A3F09004B0F05B
:1053AC009004B2F09004AEF09004C8F0A3F0A3F017
:1053BC00A3F0A3F0A3F0A3F0A3F078CE7903E82434
:1053CC006EF582E93400F58374FFF00A88828983D4
:1053DC00A3A882A983EAC3940440E37ACE7B037822
:1053EC00DC790488828983E0C0E0EA2461F582EBF1
:1053FC003400F583D0E0F088828983A3A882A98346
:10540C008A828B83A3AA82AB83E864E17003E9648C
:10541C000470D07ACE7B0378B5790388828983A314
:10542C00E0C0E0EA24E6F582EB3400F583D0E0F04E
:10543C0088828983A3A882A9838A828B83A3AA8268
:10544C00AB83E864BD7003E9640370CF9003CEE0D6
:10545C0004F0640170089003D6E09003D0F07AD287
:10546C007B0380047A007B00024CD1C082C0839005
:10547C0003D5E4F09003D4F09003CEF0A3F0A37422
:10548C00FFF075E1F10243A3C082C083780079007C
:10549C009003D5E0600478D2790388828983A3A332
:1054AC00A3A3E0F90243A374F61216A8EAFEEBFFDD
:1054BC00EE2463F582EF3400F583E0F8A3E0F9E81D
:1054CC00497003025558EE2463F8EF3400F97A0062
:1054DC007B00A2AFE433F508C2AF88828983E0FC7D
:1054EC00A3E0FDEC4D603A88828983E0FAA3E0FBEF
:1054FC008A828B83E0FCA3E0FD88828983ECF0A395
:10550C00EDF08A828B83E4F0A3F088828983E0FC3F
:10551C00A3E0FDEC4D700A88828983A3A3E4F0A379
:10552C00F0E508A2E092AF1211F79004E2E004F06B
:10553C009004E3E004F0EE2463F582EF3400F5838D
:10554C00E0F8A3E0F9E84960030254D28E828F831D
:10555C00A3A3A3E0600F8E828F83A3A3A3E4F09098
:10556C0003CFE014F09003CEE014F070069003D05B
:10557C0074FFF08E828F83A3A3E4F09004E1E070BB
:10558C000D9003CFE0640170057900120C63EEFA04
:10559C00EFFB120B91024FD774F71216A8EAFEEB31
:1055AC00FF8E828F83A3A3A3A3E0FA7B0012086D66
:1055BC00EEFAEFFB120AE3120B79024CD1C082C057
:1055CC008378B5790388828983A3E4F08882898300
:1055DC00A3A882A983E864BD7003E9640370E69014
:1055EC0003B674010243A274F61216A8EAFEEBFF8E
:1055FC00EC2403F8ED3400F988088909EC2407F849
:10560C00ED3400F9E8FCE9FD8C828D83E0F8A3E031
:10561C00F9850882850983E0FAA3E0FB1215ADEE4B
:10562C00240DF582EF3400F583E8F0A3E9F08C82C9
:10563C008D83E0F8A3E0F9850882850983E0FAA35D
:10564C00E0FB1215AD8B09EA45096013EE240DF54C
:10565C0082EF3400F583E02401F0A3E03400F00283
:10566C004FD774F61216A8EAFEEBFFEE242EF58245
:10567C00EF3400F583E0FCA3E0FD780079FAECFA56
:10568C00EDFB1215ADEE246FF582EF3400F583E8D7
:10569C00F0A3E9F0780079FAECFAEDFB1215AD8B7A
:1056AC0009EA45096013EE246FF582EF3400F583A7
:1056BC00E02401F0A3E03400F0024FD774EC121692
:1056CC00A8EAFEEBFF741412168478081214D81290
:1056DC000C218A0C8B0D8C0E8D0F75100275110020
:1056EC00751200751300780C791012143E7510FFAA
:1056FC007511FF7512FF780C791012149F780C122B
:10570C0018B78E828F83E0F8A3E0F5838882A3A379
:10571C001214F61225EB740412164EE960030258AB
:10572C002C8E828F83E02402F8A3E03400F9E8FA8F
:10573C00E9FB8A828B8378081214648A828B8375C6
:10574C0008FF7509FF750AFF750B0078081214C560
:10575C00EE240BF582EF3400F583C082C0838E8279
:10576C008F83A3A3A3A3A3E02401F8A3E03400F93F
:10577C00D083D082E0687003A3E0697005790102E0
:10578C00582E8E828F83A3A3A3A3A3A3A3E02401EB
:10579C00F0A3E03400F0EE2473F582EF3400F583CF
:1057AC00E064017036EE2474F582EF3400F583E08A
:1057BC00F8A3E0F98E828F83A3A3A3A3A3A3A3E0F2
:1057CC00687003A3E0697013EE2474F582EF340063
:1057DC00F583E02401F0A3E03400F0EE247FF582A1
:1057EC00EF3400F583E064017036EE2480F582EF2F
:1057FC003400F583E0F8A3E0F98E828F83A3A3A392
:10580C00A3A3A3A3E0687003A3E0697013EE248044
:10581C00F582EF3400F583E02401F0A3E03400F0CE
:10582C00790002453B74F61216A8E9FEECFFEA2457
:10583C0062F582EB3400F583E0640160030258DA10
:10584C009061D0E0F508EA2482F582EB3400F58310
:10585C00E060047804800278007480C39508FC959D
:10586C00E0FDEF28F8E43400F9E82402F8E934000C
:10587C00F9EC98ED99A2D265D033404E740A121609
:10588C0084E0F508A3E0F509EA2482F582EB340004
:10589C00F583E0601578081218BBEFFCEEF9120BDB
:1058AC0061740212164E74042FFF74012FF5D98EF9
:1058BC00D9EF600F850882850983F8E0F5D9A31824
:1058CC00E870F875E195790080067907800279FF18
:1058DC00024FD774F71216A8A2AFE433FEC2AF8AF8
:1058EC00828B83E0F8A3E0F9E8498A828B83600A13
:1058FC00A3A3E0F8A3E0F5838882ECF0A3EDF08A93
:10590C00828B83A3A3ECF0A3EDF08C828D83E4F067
:10591C00A3024CC974F71216A8E96021F88C828D89
:10592C0083E08A828B83F08C828D83A3AC82AD83DF
:10593C008A828B83A3AA82AB8318E870E0ECFAED21
:10594C00FB024CD174F41216A8907803E0644270F8
:10595C0055900544E014F0704DC2AF12596A0078AE
:10596C002AD0E0F618D0E0F6E59F540770057509CB
:10597C00FF800375097FC4C0E07829E6F50808E6C6
:10598C005509F509740B7808121616D0E02508F89D
:10599C00906270E0A2E740F8E8C333906272F09036
:1059AC006270E0D2E0F09003D0E0F47003025D4A44
:1059BC00E0F875F003A4C8AAF02AF974D228FE7492
:1059CC000339FFEE2401F582EF3401F583E0F8A3EF
:1059DC00E0F9E849601EEE2401F582EF3401F5830D
:1059EC00E0FAA3E0FBEE2400F582EF3401F583E04E
:1059FC00F9120F338E828F83A3A3A3A3A3A3A3E0D7
:105A0C00F8A3E0F98E828F83A3A3A3A3A3E8F0A34A
:105A1C00E9F0906054E09003A9F0906055E0900399
:105A2C00AAF0906056E09003ABF0906057E09003C2
:105A3C00ACF0906058E09003ADF0906059E09003AA
:105A4C00AEF090605AE09003AFF090605BE0900392
:105A5C00B0F090605CE0FC9003B1F090605DE0FB16
:105A6C009003B2F090605EE0FD9003B3F090605F45
:105A7C00E0FA9003B4F09003AFE08C082508F8E44A
:105A8C003400F98D08E82508F8E93400F98B08E8AA
:105A9C002508F8E93400F98A08E82508FAE9340001
:105AAC00FBEE24F6F582EF3400F583E02AF0A3E058
:105ABC003BF08C08EE24F8F582EF3400F583E025FA
:105ACC0008F0A3E03400F0EE24FAF582EF3400F590
:105ADC0083E02401F0A3E03400F0EE24FEF582EF25
:105AEC003400F583E0F8A3E0F9E8496042906000E7
:105AFC00E0C333FCE433FDE82CF582E93DF583E0AB
:105B0C002AF0A3E03BF0906000E0FA9003B1E0FCD7
:105B1C00EAC333FAE433FBE82AF8E93BF9E8244A10
:105B2C00F582E93400F583E02CF0A3E03400F0902A
