:020000040000FA
:0600000002011A02242394
:03002B00022B891C
:03005300022496EE
:03006B00022B570E
:1000830002228FE5C754F84401F5C7790122000025
:100093000080FB120086B90003020104E479217891
:1000A30008B800028004F709D8FCE479297802B87B
:1000B30000028004F709D8FCE490028178017908F2
:1000C3008002F0A3D8FCD9FA781A90014A7A01BACF
:1000D30000028007E493A3F608DAF97A817B09909A
:1000E300014B780079048015E493A3AD82AE838A33
:1000F300828B83F0A3AA82AB838D828E83D8E9D9C6
:10010300E77582F07583B8740312012C75829175BB
:100113008300740012012C75D00075813F7518811E
:10012300751902759F00020096C09FF59FE473D076
:100133009F22D083D082C09FE493C0E0740193C018
:10014300E0740293F59F2201FF0000B40000280031
:100153002800283075A000A000A000A0000008001F
:1001630008E001F000100010001000100010001053
:100173000050005000500010001000D00700000095
:100183000000000F0001000500307507001000019A
:100193000081FF00000000FF480766074E07FF02CB
:1001A300020208025000A0000000E803021A8201C4
:1001B3000000DC81020C82010000D80902228101C7
:1001C3000000B302020C82010000D90902E8810198
:1001D3000000C902020C82010000DA090230820128
:1001E3000000CB02020C82010000DB0902EC810853
:1001F3000000CC02020C82010000DC0902EE810146
:100203000000DD09FF0100FF20021A82010000CD7A
:1002130081020C82010000410A02F081000000000B
:100223000002FA810300001903300D300D300D3048
:100233000D300D300D300D300D300D300D300D30D3
:100243000D300DC40FDC0FBE0FFFFF0A4163636562
:100253006C20456E61626C650000021400416363AB
:10026300656C2052616E6765000010101041636376
:10027300656C20582D436F6F7264696E61746500FD
:1002830000416363656C20592D436F6F7264696E1F
:100293006174650000416363656C205A2D436F6F81
:1002A3007264696E6174650000021A82010000D9EC
:1002B30081020C82010000840A02EA810300005FCC
:1002C30007020082010000850A020C8201000093EC
:1002D3000A02F481010000940A02008201000096E0
:1002E3000A020C82010000A30A02F68100000060EA
:1002F3000702FA810300006307020082010000A6DF
:100303000A020C82010000A40A02F88100000061C5
:100313000702FA810300006907020082010000BAA4
:100323000A020C82010000A50A0218820000006282
:100333000702FA810300006F07020082010000CE6A
:100343000A110199010F12640401021A82010000CB
:10035300D681020C820100007F0B021E8201000085
:10036300800B02FA810300007D0702F28101000085
:10037300810B020202020202020202010D000000CE
:100383001001021A82010000E581020C82010000C3
:10039300AB0B0214820100008407020C82010000EF
:1003A300AC0B0212820100001581020C82010000D5
:1003B300AD0B0210820100000781020C82010000D4
:1003C300AE0B020682010000A580020C8201000030
:1003D300AF0B020482010000B780020C820100000F
:1003E300B00B0202820100008180020C8201000036
:1003F300B10B022E820100009380020C82010000E7
:10040300B20B02FE81010000F980020C82010000A0
:10041300B30B02FC81010000B40B01E803053F109C
:100423000A104B657920436F756E74657200000086
:100433000000021A82010000DF81020C8201000029
:100443005A0C020A82000000A50802FA8103000088
:10045300A9080200820100005B0C0B094B65796659
:100463006F6264656D6F02010507020318021804C9
:1004730018544920424C45204B6579666F62000051
:100483000000000000000214000008140E14FF0016
:1004930001307503020106000000000000000000A7
:1004A3000000000000000000000000000000000049
:1004B300000000FFFF0600800CE8030A0412021A82
:1004C30082010000D381020C82010000F40C022699
:1004D300820300007109021A82010000D081020C1C
:1004E30082010000F50C0226820200007209021A42
:1004F30082010000E281020C82010000F60C022856
:1005030082010000730902FA810300007409104B91
:1005130065792050726573732053746174650002AA
:100523001A82010000CA81020C82010000470D02F9
:1005330034820000007A0902FA810300007B090279
:100543000082010000480D120135A7A603120135F0
:10055300BEA603120135EFA6031201352AA7031223
:10056300013554A7031201357EA70312013595A760
:1005730003120135ACA703120135C3A703120135DA
:10058300ECA703120135FFA70312013515A80312C7
:10059300013528A8031201354FA8031201358BB585
:1005A300021201358FB602120135C7B602120135A8
:1005B300EAB602120135F5B60212013518B7021276
:1005C300013527B802120135FCB80212013577B99B
:1005D30002120135FFB9021201353ABA021201358E
:1005E30071BA02120135FFBA02120135D8BB0212E9
:1005F300013538BC0212013543BC02120135C2BCBD
:1006030002120135C5BC02120135C8BC0212013504
:1006130057BD021201355ABD021201358ABD0212BD
:100623000135B4BD02120135A2BE0212013554BF19
:100633000212013556EE021201357EEE0212013529
:10064300ACEE02120135E3EE0212013541EF021264
:1006530001358CEF02120135D7EF0212013517F085
:10066300021201355DF0021201358BF002120135E1
:1006730048F10212013552F1021201355FF1021203
:10068300013592F1021201355EF2021201356AF26E
:100693000212013582F2021201358CF20212013587
:1006A300F9B40312013507B5031201351FB503125F
:1006B300013537B50312013580CB011201352CCC3E
:1006C30001120135A7CC01120135C8CD0112013544
:1006D30004CE01120135ADCE0112013594CF0112C2
:1006E3000135F8D0011201354FD101120135D0D1B6
:1006F30001120135C0D2011201350DD301120135AA
:1007030093D301120135C5D301120135D9D5011295
:1007130001351BD60112013539D601120135BCD67C
:100723000112013590D70112013558D80112013554
:100733008FD70212013562D8021201350BD902128A
:1007430001355ED9021201350EDA021201359ADA49
:100753000212013586DB02120135B5DB02120135C7
:10076300C8DC0212013510DD02120135E5DD02128B
:10077300013521DE021201353DDE0212013575FF1E
:10078300011201351F8C03120135358C031201351B
:100793005B8C03120135778D03120135818D0312B2
:1007A3000135B68E03120135AE8F0312013527E4EE
:1007B3000212013557E5021201358AE502120135AD
:1007C300D4E5021201359BE70212013591BB0112F8
:1007D3000135FBBB011201355ABD011201356ABD5A
:1007E3000112013597BD01120135EEBD011201352C
:1007F30097BE011201359EBF0112013568C0011277
:100803000135C8C1011201350BC201120135B0C255
:1008130001120135FDC20112013523C30112013555
:1008230031C50112013536C5011201353BC701122D
:10083300013588C701120135FBC7011201352EC8E6
:1008430001120135D0C80112013579C901120135F0
:10085300B1C901120135B4C901120135FCC9011234
:1008630001353CCA0112013593CA01120135AD9815
:1008730003120135C598031201350D990312013591
:100883002399031201356A99031201357E9A0312E3
:1008930001350B9B03120135569B03120135B82B0F
:1008A30000120135C42B00120135FF2B0012013554
:1008B300442C00120135042D001201358A2D00123B
:1008C3000135EF2D001201351B2E00120135542E78
:1008D30000120135923000120135763200120135D3
:1008E3005C34001201359F3500120135ED370012DB
:1008F3000135FF38001201354A3A001201355A3BDF
:1009030000120135773B00120135B23B001201356D
:10091300D43B00120135373C00120135F840001278
:1009230001358D4100120135DE41001201350542CA
:10093300001201355742001201357542001201358C
:10094300CF4200120135B843001201352E45001283
:100953000135B245001201354EE90212013558E95D
:10096300021201359BE902120135B6E90212013583
:1009730046EA021201356EEA02120135ABEA0212AF
:100983000135E2EA021201350BEB0212013580EB6D
:100993000212013595EB02120135AAEB0212013561
:1009A300DBEB02120135EFEB0212013514EC0212FC
:1009B30001354EEC021201357AEC02120135B2EC2C
:1009C3000212013560ED0212013590ED021201357C
:1009D300D9ED0212013503EE021201352EEE021299
:1009E300013515B003120135B8A802120135E6A886
:1009F3000212013534AA0212013514AB0212013579
:100A030033AB02120135B0AB02120135F3AB021264
:100A1300013549AD021201350AAE0212013591B01A
:100A23000212013532B10212013528B20212013528
:100A330025B3021201357FB4021201350AB5021241
:100A43000135BAAE0312013523AF0312013577AF77
:100A5300031201359EAF03120135CFAF03120135E7
:100A63009FF7021201350CF80212013553F80212F6
:100A730001356BF90212013567FA021201354AFB9F
:100A8300021201350CF7011201354EF7011201353F
:100A930020F801120135F9F801120135F3F90112B9
:100AA3000135D5FA011201353EFB01120135F4FB84
:100AB3000112013568FC01120135D4FC0112013524
:100AC300FDFC0112013577FD0112013510FE011203
:100AD300013575FE011201358AFE01120135D0FE82
:100AE30001120135E9FE011201354EFF01120135F4
:100AF30051FF01120135D79203120135FF92031200
:100B030001353D9303120135FB93031201356294C2
:100B1300031201357E9403120135A69403120135A5
:100B2300D69403120135E59403120135629503123D
:100B3300013588950312013576AA0112013554ACAB
:100B43000112013586AE01120135C2AE0112013523
:100B5300EFAE01120135D9AF0112013524B00112F4
:100B630001356FB00112013581B001120135C1B0F9
:100B730001120135F6B00112013544B101120135FC
:100B830073B10112013596B101120135E3B10112BE
:100B9300013568B20112013582B401120135C1B6C3
:100BA3000112013502B701120135A4B80112013552
:100BB300E5B80112013558B901120135A9B901127D
:100BC300013584BA01120135A39B02120135A19CA0
:100BD300021201353AA3021201355BA50212013557
:100BE30026A7021201358EA80212013519460012FA
:100BF3000135C84600120135F546001201353B4761
:100C0300001201357148001201359F480012013569
:100C1300354A00120135AF4A00120135CA4A0012A3
:100C23000135454B001201359F4C00120135FF4D34
:100C330000120135054F00120135665000120135CF
:100C43007F5000120135DD5000120135CB510012E7
:100C53000135FE51001201356E5200120135E85282
:100C630000120135325300120135FC5300120135D5
:100C7300D15400120135B055001201353B56001214
:100C83000135A956001201351D5700120135485789
:100C9300001201350758001201356C590012013555
:100CA300895900120135A85900120135995A0012C9
:100CB3000135BE5A00120135E85A00120135635B53
:100CC30000120135BD5B00120135265D00120135AE
:100CD300D45D00120135155E001201350080021249
:100CE30001354E80021201355A80021201353881D6
:100CF300021201356981021201359A81021201350E
:100D03001A8202120135528202120135A4820212A2
:100D13000135E18202120135FE8402120135248776
:100D2300021201350F8902120135F98A02120135C7
:100D3300AD2B001201356396011201359396011212
:100D430001356C9D01120135F19E01120135EEA4AE
:100D530001120135D6A50112013513A60112013581
:100D630036A60112013567A60112013570A60112DC
:100D730001357AA60112013568A7011201355EA873
:100D830001120135455E001201354462001201353E
:100D93004A62001201358569001201359E6E001208
:100DA3000135518803120135E78803120135FD88A7
:100DB30003120135738903120135E78903120135E3
:100DC300258A03120135998A03120135128B031206
:100DD30001351B8B03120135278B031201353C8B25
:100DE300031201357A8B03120135908B03120135FF
:100DF300EF8B031201350080031201350D800312BE
:100E03000135278003120135668003120135A48062
:100E1300031201350981031201351E8103120135C5
:100E23002981031201353681031201354D810312E5
:100E330001355B810312013566810312013572812D
:100E4300031201358181031201358C8103120135AF
:100E5300AF810312013556820312013566820312F4
:100E630001358082031201359D8203120135B98257
:100E730003120135DE8203120135E98203120135C3
:100E8300FE820312013512830312013573830312A9
:100E930001357983031201357F830312013585837D
:100EA300031201359D8303120135D08303120135EB
:100EB300E2E80112013566E90112013515EA011272
:100EC300013574EB0112013595ED0112013581EE07
:100ED30001120135B6EE01120135D8EE01120135CA
:100EE30087EF011201357FF101120135A8F10112DB
:100EF30001353AF2011201356CF20112013579F232
:100F030001120135D0F201120135F6F20112013559
:100F130063F50112013566F601120135BEF60112C1
:100F2300013571DA011201357BDB0112013562DC17
:100F3300011201356CDC011201358EDC0112013521
:100F43009ADC0112013533DE0112013562DE011232
:100F530001357EDF01120135D7DF011201353DE195
:100F6300011201351CE20112013578E2011201354B
:100F7300E5E20112013520E3011201355FE30112BD
:100F8300013518E60112013532E601120135BEE6DC
:100F930001120135CCE60112013525E701120135B5
:100FA30033E701120135A6E7011201350AE8011200
:100FB300013554E80112013554730012013576737B
:100FC300001201359C7500120135B178001201350C
:100FD300C979001201357C7A001201355E7B00125B
:100FE300013510AA0312013535AA03120135A7AA48
:100FF3000312013515D0021201351ED0021201353C
:1010030027D002120135FED002120135AFD20212EF
:101013000135E5D2021201351FD30212013555D332
:10102300021201358FD302120135C3D302120135E7
:10103300EFD30212013538D40212013572D40212F1
:101043000135BBD40212013513D50212013548D53F
:1010530002120135A3D502120135DDD50212013585
:101063002ED60212013564D6021201359ED6021223
:101073000135CCD602120135EFD6021201354EB737
:10108300031201357AB703120135D5B703120135BF
:10109300DFB703120135EFB703120135B2DE0212D7
:1010A3000135BCDE02120135FADE0212013543DFDF
:1010B300021201357DDF02120135D3DF0212013541
:1010C300F4DF02120135FDDF0212013548E002129E
:1010D300013571E0021201357BE002120135E7E0D0
:1010E300021201357DE102120135C7E10212013519
:1010F300F7E10212013580E202120135C0E2021269
:101103000135F8E2021201350AE30212013529E33F
:101113000212013532E302120135FDE302120135F9
:1011230032B20312013591B803120135B8A4031288
:101133000135EEA40312013524A5031201356DA672
:1011430003120135F9B7031201350FB80312013544
:1011530019B80312013563B80312013513F30212F0
:10116300013528F302120135D8F30212013518F4C0
:101173000212013531F40212013565F40212013510
:10118300B2F402120135E6F40212013528F5021217
:1011930001352CF70212013592F70212013529B3FA
:1011A3000312013552B3031201357BB30312013528
:1011B30093B303120135D5B3031201350CFC0212AC
:1011C300013567FC0212013584FC0212013593FDDF
:1011D30002120135DEFD02120135A9FE02120135AC
:1011E30099FF02120135D0950312013507960312B8
:1011F3000135269603120135D19603120135639703
:1012030003120135E79703120135827E001201357F
:10121300017F00120135117F00120135297F001271
:101223000135497F00120135CD7F00120135DB7F87
:101233000012013591B603120135B2B6031201351E
:1012430043B703120135809B03120135A59B03129B
:101253000135CF9B0312013591B903120135398250
:10126300011201359D84011201354E8601120135AB
:10127300508701120135D987011201355D880112AA
:101283000135828801120135BB8B011201352F8C88
:1012930001120135208D011201355A8D01120135DC
:1012A3009A8D011201354D8F01120135A08F011264
:1012B3000135E98F011201355790011201358990EB
:1012C30001120135A19001120135B69101120135C8
:1012D300C69101120135E192011201350393011206
:1012E3000135399301120135DD94011201351C9545
:1012F300011201353E9601120135D0B503120135B5
:10130300E1B50312013586B60312013548B903125C
:10131300013587B903120135E6FF021201351AB40C
:10132300031201352AB4031201353FB40312013508
:10133300F3B4031201352EB103120135B3B1031215
:10134300013519B20312013552AD031201357DADDA
:1013530003120135D3AD03120135E5AD0312013597
:1013630036AE03120135ADAE03120135B0AE031232
:1013730001354D8403120135618403120135DA848A
:1013830003120135AF85031201358187031201353D
:10139300E687031201353D8803120135F87F0012F9
:1013A300013589A00312013514A20312013575A278
:1013B30003120135BBA203120135BEA2031201358C
:1013C30003A30312013516A3031201353FA303122E
:1013D3000135B0A30312013549A40312013580A4DA
:1013E30003120135C5BF02120135C2C10212013514
:1013F300BAC30212013587C40212013528C502128D
:10140300013547C50212013578C602120135B7C648
:1014130002120135FFC602120135DEC70212013581
:10142300B5AB0312013505AC031201358EAC0312C3
:101433000135F4AC031201354C9E03120135769E3F
:10144300031201353C9F0312013517A00312013526
:101453001FC802120135DCC80212013517C9021276
:1014630001353FC902120135A1C902120135EDC987
:10147300021201354DCA02120135E0CA02120135CA
:10148300DFCB021201356ECD02120135F1CD02120E
:10149300013558CE021201356FCE0212013579CFD4
:1014A30002120135B7CF02120135D48D0212013574
:1014B300349102120135BC920212013513930212C8
:1014C3000135329302120135B09302120135409572
:1014D30002120135249602120135309A02120135A7
:1014E300009B02120135B88F0312013536900312A7
:1014F3000135539003120135DC9003120135079136
:10150300031201359091031201359E9203120135A6
:1015130061A803120135A6A803120135FAA8031224
:10152300013578A903120135D7A903120135D8B9BA
:101533000312013504BA03E066701008A3E0667075
:101543000A08A3E066700408A3E06622C3E79608CE
:1015530009E7960809E7960809E79622C3E0960883
:10156300A3E09608A3E09608A3E09622C008C3E090
:1015730096F50808A3E096420808A3E096420808F7
:10158300A3E09645087001D3D00822080808EAC0F2
:10159300E0EBC0E086F0E7A4FA180986F0E7A42A96
:1015A300FA180986F0E7A42AFA180986F0E7A42AAC
:1015B300FA1986F0E7A4FBE5F02AFA190886F0E7A2
:1015C300A42BFBE5F03AFA190886F0E7A42BFBE518
:1015D300F03AFA18180986F0E7A4C5F02BFBE43AB1
:1015E300FA1908E7C5F0C6A426F6E5F03BFBE43A92
:1015F300FA1886F0E7A4F6E5F00826F6E43B08F6C9
:10160300E43A08F6D0E0FBD0E0FA22E4CFC0E0E40D
:10161300CEC0E0E4CDC0E0E4CCC0E075F020E62627
:10162300F608E633F608E633F608E633F618181834
:10163300EC33FCED33FDEE33FEEF33FFC3EC9709E0
:10164300ED9709EE9709EF97191919400FFFEC97DA
:10165300FC09ED97FD09EE97FE191906D5F0BFECCD
:10166300F709EDF709EEF709EFF7191919D0E0FCBF
:10167300D0E0FDD0E0FED0E0FF221216E5181818E6
:1016830012160E1216D4191919221216D419191971
:10169300080808E618181820E7E012160E1216E5D7
:1016A30018181822090909E719191920E7DC08088D
:1016B30008E618181820E70302160E1216E5181884
:1016C3001812160E1216E51818181216D41919192D
:1016D30022E4C397F709E497F709E497F709E49736
:1016E300F722E4C396F608E496F608E496F608E4CF
:1016F30096F6226017080808C6A2E713C618C61391
:10170300C618C613C618C613C6D5E0E92260160864
:101713000808C6C313C618C613C618C613C618C608
:1017230013C6D5E0EA2270090808082260161818C3
:1017330018C6C333C608C633C608C633C608C6337D
:10174300C6D5E0EA22E627F60809E637F60809E6F1
:1017530037F60809E637F622E026F608A3E036F660
:1017630008A3E036F608A3E036F622E026F008A345
:10177300E036F008A3E036F008A3E036F022C3E633
:1017830097F60809E697F60809E697F60809E69733
:10179300F622C3E096F008A3E096F008A3E096F0E3
:1017A30008A3E096F022E657F60809E657F608097B
:1017B300E657F60809E657F622E056F608A3E05680
:1017C300F608A3E056F608A3E056F622E056F00822
:1017D300A3E056F008A3E056F008A3E056F022E099
:1017E300F608A3E0F608A3E0F608A3E0F622E6F085
:1017F30008A3E6F008A3E6F008A3E6F022E0FAA3C4
:10180300E0FBA3E0FCA3E0FD22EAF0A3EBF0A3ECF2
:10181300F0A3EDF022E0FCA3E0FDA3E0FEA3E0FFD4
:1018230022ECF0A3EDF0A3EEF0A3EFF022E0F8A397
:10183300E0F9A3E0FAA3E0FB22E8F0A3E9F0A3EACE
:10184300F0A3EBF022CAC0E0E6F0A308DAFAD0E096
:10185300FA22CAC0E0E0A3C582CCC582C583CDC548
:1018630083F0A3C582CCC582C583CDC583DAE6D018
:10187300E0CA22C3E498F8E499F91218B78026C3A2
:10188300E49AFAE49BFBE920E7E91218B7E498F835
:10189300E499F922C3E498F8E499F91218B7E498A3
:1018A300F8E499F9C3E49AFAE49BFB22EB20E7CF2F
:1018B300E920E7E0B90010BB0008E88AF084F8AA41
:1018C300F022E4FBC8FA22EB70227B10C833C8C9AC
:1018D30033C9335007C39AC3DBF280069A50012AF7
:1018E300DBEAC833F4C8C933F4C9FA2275F008E453
:1018F300C833C8C933C933C99AC99B5004C92AC953
:101903003BD5F0ECFBC833F4C8E4C9FA22600D08F8
:10191300C6A2E713C618C613C6D5E0F322600C08A7
:10192300C6C313C618C613C6D5E0F42270042260DA
:101933000D18C6C333C608C633C6D5E0F41822252E
:101943001810AF08F518400C15198008F518400257
:101953001519D2AF2200C0D0251810AF08F51850C2
:101963000C05198008F51850020519D2AFD0D02202
:101973002518F58210AF08F518400C15198008F5E5
:101983001840021519D2AF851983222518F582E470
:101993003519F583222518F8E43519F9222518FAA3
:1019A300E43519FB222518FCE43519FD22E47325DF
:1019B30018C582C0E0E51934FFC583C0E0E518C34C
:1019C300958224F810AF08858319858218800885CD
:1019D3008319858218D2AFCEF0A3E520F0A378084F
:1019E300E608F0A3DEFAEFF0A3E58124FAF8E608AF
:1019F300F0A3E608F0A3E608F0A30808E608F0A3BE
:101A0300E608F0A315811581D0E0FED0E0F815813A
:101A130015811581E8C0E0EEC0E0222518C582C01B
:101A2300E0E51934FFC583C0E0E518C3958224F9C6
:101A330010AF0885831985821880088583198582EC
:101A430018D2AFCEF0A3E520F0A37808E608F0A300
:101A5300DEFAEFF0A3E58124FBF8E608F0A3E6083D
:101A6300F0A30808E608F0A3E608F0A315811581A2
:101A7300D0E0FED0E0F815811581E8C0E0EEC0E0CB
:101A830022851983851882E0A3FEE0A3F520780858
:101A9300E0A3F608DFFAE0A3FFE0A3C0E0E0A3C001
:101AA300E0E0A3C0E0E0A3C0E0E0A3C0E010AF0823
:101AB3008582188583198008858218858319D2AF9A
:101AC300D083D082020132851983851882E0A3FE78
:101AD300E0A3F5207808E0A3F608DFFAE0A3FFE02F
:101AE300A3C0E0E0A3C0E0E0A3C0E0E0A3C0E01037
:101AF300AF08858218858319800885821885831924
:101B0300D2AFD083D08222C0D02518C582C0E0E5F1
:101B13001934FFC583C0E0E518C3958224F310AFE1
:101B2300088583198582188008858319858218D2D0
:101B3300AFC8F0A3E9F0A3EAF0A3EBF0A37908E7B9
:101B430009F0A3D8FAECF0A3EDF0A3EEF0A3EFF0C5
:101B5300A3D0E0F0A3D0E0F0A3D0E0F0A3E520F021
:101B6300A3E5F0F0A322851983851882E0C0E0A3E2
:101B7300E0F9A3E0FAA3E0FBA37808E0F608A3DF0B
:101B8300FAE0FCA3E0FDA3E0FEA3E0FFA3E0C0E0D6
:101B9300A3E0C0E0A3E0F5D0A3E0F520A3E0A3F524
:101BA300F010AF088583198582188008858319850D
:101BB3008218D2AFD082D083D0E0F8D0E032740460
:101BC3008006740280027401C0E0F404121973D019
:101BD300E0121848227404800474028000CCC0E030
:101BE300EDC0E0E518C39CCCAD1950011D10AF0644
:101BF3008C188D1980068C188D19D2AF121855D0F8
:101C0300E0FDD0E0FC22D083D082E9C0E0E493A3DE
:101C1300C386F0C5F095F0F908E493A386F0C5F008
:101C230095F0700BE493A3C3994005E9048002A3E4
:101C3300E475F002A42582F582E5F03583F583D0BF
:101C4300E0F9E493A3C0E0E493C0E022D083D08220
:101C5300ECC0E0EDC0E0E493A3FCE493A3FDED4C02
:101C6300600D121C9BEC24FFFCED34FFFD80EFE4C0
:101C730093A3FCE493A3FDED4C600D121CDAEC245A
:101C8300FFFCED34FFFD80EFD0E0FDD0E0FCE493FA
:101C9300A3C0E0E493C0E022C0E0C3E493960874D9
:101CA30001939618400FE4936670080874019366D5
:101CB3001870007019A3A3C3E49396087401939654
:101CC30018A3A3400DD0E0D0E0D0E0021C8BA3A367
:101CD300A3A3A3A3D0E022C0E0C0F088F0E49366FE
:101CE30070080874019366187000A8F0A3A3700B22
:101CF300D0F0D0E0D0E0D0E0021C8BA3A3D0F0D092
:021D0300E022DC
:101D080074F5121A1EEAFEEBFFEE2434F8EF3400E5
:101D1800F988088909EE2435F582EF3400F583E067
:101D2800F8EE2437F582EF3400F583E0F50AEC8508
:101D38000AF0A4FCAAF0850AF0EDA42AFDE82CF824
:101D4800E43DF97A257B001218B7EA8508828509EF
:101D580083F0F8740758F97401B900028004C3339A
:101D6800D9FCFAE8131313541FF8EE28F8EF3400DF
:101D7800F9E8245DF582E93400F583E05A6008EE5D
:101D88002434F582EF802CEE2434F582EF3400F50C
:101D980083E0C0E0EE2436F582EF3400F583E0F509
:101DA800F0D0E084A8F0EE28F8EF3400F9E8243801
:101DB800F582E93400F583E0F97F04021ACA74F564
:101DC800121A1EEAFEEBFFEE2434F582EF3400F51A
:101DD80083E0C0E0EE2435F582EF3400F583D0E0EF
:101DE800F08E828F83A3A3A3A3A3A3A3C082C083DF
:101DF8008E828F83A3A3A3A3A3E0F8A3E0F9D083E3
:101E0800D082E0C398F508A3E099F509EE247FF5A0
:101E180082EF3400F583E064017069EE2480F58276
:101E2800EF3400F583E0F8A3E0F98E828F83A3A353
:101E3800A3A3A3A3A3E0FCA3E0FD8E828F83A3A3A7
:101E4800A3A3A3E0FAA3E0FBC3EA9CEB9D5010C355
:101E5800EC98ED99402EC3EA98EB995027800EC371
:101E6800EA98EB994007C3EC98ED9940177CDC7D24
:101E780004EEFAEFFB120C8EEE247FF582EF3400AD
:101E8800F583E4F0EE2434F8EF3400F9E8FCE9FDDA
:101E9800EE2435F582EF3400F583E0F8EE2437F5CB
:101EA80082EF3400F583E0F50AE508850AF0A4F529
:101EB80008AAF0850AF0E509A42AF509E82508F832
:101EC800E43509F97A257B001218B7EA8C828D83EC
:101ED800F0F8740758F97401B900028004C333D9C3
:101EE800FCFAE8131313541FF8EE28F8EF3400F93E
:101EF800E8245DF582E93400F583E05A6008EE24B1
:101F080034F582EF802CEE2434F582EF3400F5832B
:101F1800E0C0E0EE2436F582EF3400F583E0F5F01A
:101F2800D0E084A8F0EE28F8EF3400F9E82438F57A
:101F380082E93400F583E0F9122B43021DC1C08207
:101F4800C083851882851983E0F8A3E0F9C3EA9C69
:101F5800EB9D5010C3EC98ED99401BC3EA98EB99A0
:101F68005014800EC3EA98EB994007C3EC98ED999A
:101F78004004790180027900D083D08222EAC39C90
:101F8800FAEB9DFB2274EF121A1E9003A2E064087C
:101F98006005E06407702A9061C8E060249003D06F
:101FA800E0F4601DE0F875F003A4C8AAF02AF974FB
:101FB800D228FE740339FF8E828F83A3A3A3E07017
:101FC800030220BD906060E0C0E0EE2468F582EF77
:101FD8003400F583D0E0F0750C45750D05750800E3
:101FE800750900E5D914F50AE5D95403F50E60170B
:101FF8007403650E605CE50A6010EE2467F582EFF5
:102008003400F583E070030220A2900540E06401EB
:10201800602AEE2482F582EF3400F583E0600478CC
:102028000480027800850A08E508C398FA95E0FB61
:10203800120B4A8A088B09EA45097005120E92802C
:1020480074EE2482F582EF3400F583E070048A0C84
:102058008B0DE50A6012850C82850D83F50BE5D999
:10206800F0A3150BE50B70F6EE2482F582EF340031
:10207800F583E0604474FC250AF50A780C121BC548
:10208800AC0AA90EEEFAEFFB120D2A7402121958C7
:10209800E97026AA08AB09121426793D8E828F832F
:1020A800A3A3A3A3E0FA7B00120A1EEEFAEFFB1229
:1020B8000CA6120D3C790080747403650E60568579
:1020C8000A107511007810121BC5AC0CAD0DAA08CA
:1020D800AB09120D067402121958EE2468F582EF46
:1020E8003400F583E064807004747F8001E0F50CAF
:1020F800780C121BC9E50EF50C780C121BC9A90A3D
:10210800AC08AD099003D0E0FA7B001209E2740232
:1021180012195880139003A2E06408600BAC0CAD50
:102128000DEEFAEFFB120D96120E9E79017F0A0250
:102138001ACA74F5121A1E74FC121942EAFEEBFF51
:102148008908A2AFE433F509C2AF806AEE2463F8C8
:10215800EF3400F97A007B00A2AFE433F50AC2AF8E
:1021680088828983E0FCA3E0FDEC4D603A8882898F
:1021780083E0FAA3E0FB8A828B83E0FCA3E0FD887E
:10218800828983ECF0A3EDF08A828B83E4F0A3F0DC
:1021980088828983E0FCA3E0FDEC4D700A8882897F
:1021A80083A3A3E4F0A3F0E50AA2E092AF121426F9
:1021B8009004E3E004F0EE2463F582EF3400F58345
:1021C800E0F8A3E0F9E849603DEE2463F582EF34D6
:1021D80000F583E02402FAA3E03400FBEA2402F5C8
:1021E8000AEB3400F50B780A121BC58A828B83E050
:1021F800FCA3E0F9EEFAEFFB120CCA7402121958AC
:10220800E970030221549004E3E060639004E4E081
:10221800F89004E3E0C398500C740265087050907D
:1022280004E5E0604A8E828F83A3A3A3A3E0851808
:1022380082851983F0A3E4F09004E3E0F8740212B5
:10224800198EE8F0A3E4F09004E3E0F89004E2E0EB
:1022580028F0740212198EAC82AD83851882851914
:1022680083AA82AB8379011209EE9004E3E4F0E5D6
:1022780009A2E092AF7404121958021DC1000000AF
:102288008521878522C622C0E0C0D0E8C0E0E9C029
:10229800E0EAC0E0EBC0E0ECC0E0EDC0E0EEC0E09A
:1022A800C008C009C00AC00BC082C083C0F0A2AF7A
:1022B800E433FEC2AF759B00906182E0A2E0501249
:1022C800E591A2E0500C7591FE740165217003122E
:1022D8001F8DE0A2E55051E591A2E5504B7591DFC5
:1022E8009003A2E064076005E06408702374016548
:1022F80021703579019003D0E0FA75F003A4CAA8DB
:10230800F028FB74D22AFA74033BFB12213A801896
:10231800E0640D70139003C4E004F064287002E4D4
:10232800F07A00E0F9120EA4906182E0A2E6400380
:102338000223D6E591A2E640030223D67591BF9009
:1023480003A2E064057008120DCC120DD8800312A8
:102358000DD2752100120E32E99003A3F079001214
:102368000E26120BFE7A017B009003A1E0F91210F1
:10237800F6907803E064427055900544E014F070DC
:102388004DC2AF12238E00782AD0E0F618D0E0F6BE
:10239800E59F540770057509FF800375097FC4C060
:1023A800E07829E6F50808E65509F509740B780878
:1023B800121920D0E02508F8906270E0A2E740F8F2
:1023C800E8C333906272F0906270E0D2E0F09061FE
:1023D80081E0A2E35009E5E9A2E3500375E9F7A318
:1023E800E0A2E75009E591A2E7500375917FEEA2BC
:1023F800E092AFD0F0D083D082D00BD00AD009D0F1
:1024080008D0E0FED0E0FDD0E0FCD0E0FBD0E0FA60
:10241800D0E0F9D0E0F8D0D0D0E032C0E0C0D0C0F1
:1024280082C083906183E0A2E05009E5BFA2E0503A
:102438000375BFFEE0A2E15009E5BFA2E1500375B4
:10244800BFFDE0A2E25009E5BFA2E2500375BFFB61
:10245800E0A2E35009E5BFA2E3500375BFF7E0A28D
:10246800E45009E5BFA2E4500375BFEFE0A2E550D0
:1024780009E5BFA2E5500375BFDFE0A2E65009E514
:10248800BFA2E6500375BFBFD083D0828088C0E06A
:10249800C0D0E8C0E0E9C0E0EAC0E0EBC0E0ECC0D2
:1024A800E0EDC0E0C0F0E5A7A2E6500FE5A1A2E686
:1024B800500953A7BF75A1BF1224FBE5A7A2E55099
:1024C8000CE5A1A2E5500653A7DF75A1DFE5A7A299
:1024D800E15009E5A1A2E1500375A1FDE5A7A2E23B
:1024E800500CE5A1A2E2500653A7FB75A1FBD0F062
:1024F80002240C74F8121A1E7521019003A2E064DC
:10250800067015120D5A8A828B83A3A3A3A3A3A3D3
:10251800E0FAA3E0FB120DBAA2AFE433FED2AF900B
:1025280003A8E0640170187A207B009003A1E0F909
:102538001211807A207B009003A1E0F91210FC9020
:102548006182E0D2E6F0900541E0602185C62280F4
:10255800169003A7E064017008E5C654F84405F531
:10256800C653BEFC1222887401652160E4EEA2E025
:1025780092AF7F01021ACA008E238F248582288594
:102588008327851882851983E0CEA3E0CF8528822A
:10259800852783EBC9EAC8EDCBECCA75F010C3E810
:1025A80033C8E933C9EA33CAEB33CBC3EA9EF5260D
:1025B800EB9FF525B35004AB25AA26EC33CCED33BD
:1025C800CDD5F0DAAE23AF242274E9121A1E74F8BE
:1025D800121942851882851983ECF0A3EDF08A0858
:1025E8008B099003A2E024F7C394055006750801EF
:1025F800022768120D5A8A0A8B0BAE0AAF0BEE4FF0
:102608007003022765AC08AD09740212198EAA82FC
:10261800AB83120DEA8E828F83A3A3750CFF750D11
:10262800FF750EFF750F00780C1217BC7402121993
:102638008E7510FF7511FF7512FF75130078101253
:1026480017BC780C791012154F502A780C79101293
:1026580017817508017509C8750A00750B00780897
:10266800790C12154F5052850C08850D09850E0AF4
:10267800850F0B80507514017515C87516007517F0
:102688000085100885110985120A85130B780879C9
:102698000C1217817814790812154F401C75080020
:1026A800750900750A00750B0178087910121781F1
:1026B8007808790C121748800C750801750900759F
:1026C8000A00750B0074097808121729750C19F59A
:1026D8000DF50EF50F7808790C12160E8E828F8381
:1026E800A3A3A3A3A3A3E0F8A3E0F97AD07B0312E2
:1026F80018B7880C890DE4F50EF50F7808790C12D7
:102708001748740612198EE0F8A3E0F97AD07B0313
:102718001218B7E8FA8A0CE4F50D7808790C121546
:102728004F50077808790C1217819003A2E06408CB
:10273800600AE064066005E06405702D750C0D788C
:102748000C790812154F4021750CF4750DFF750EA4
:10275800FF750FFF7808790C121748800C75080070
:10276800750900750A00750B00851882851983E0C4
:10277800F8A3E0F583888278081217F17408121913
:10278800587F10021ACA74F7121A1E120DFC90050F
:102798003FE064017010906245E4F0A3F053F4F355
:1027A80043FE0C5390F3120DA8E5C654804449F536
:1027B800C6E59E547F644970F8906185740FF09067
:1027C800053DE0F47002A3E0604E90053EE060082D
:1027D80014601B14602E804075080175090090056F
:1027E8003DE0780812192FE508F45280802A750810
:1027F8000175090090053DE0780812192FE508F4E5
:102808005290801475080175090090053DE078081C
:1028180012192FE508F452A079007F02021ACA742F
:10282800F7121A1EE9FEEAFF74016E700C7A807BBB
:10283800009003A1E0F91210F6902BB0E493F46035
:1028480008E493F9120BF2800953C680E59E547F81
:1028580070FA120DAE90053FE064017003120C107F
:1028680090053DE0F47002A3E0604B90053EE06007
:102878000814601A14602C803D75080175090090D1
:10288800053DE0780812192FE50842808028750870
:102898000175090090053DE0780812192FE50842F6
:1028A80090801375080175090090053DE0780812BD
:1028B800192FE50842A0120DFC120D5A8A088B093F
:1028C800A808A909E8496015E5E170FCE82414F5B1
:1028D80082E93400F583E0F46003E0F5E174016F08
:1028E800700A7A019003A1E0F912115002282274AB
:1028F800ED121A1E8A088B098C0A8D0B7413121993
:102908008E780C1217E27808790C12154F751001A1
:102918007511C875120075130050127808790C12D9
:1029280017817810790812154F50168010780C7995
:10293800081217817810790C12154F40047901801C
:102948000279007F0C021ACA74ED121A1E8A088BCB
:10295800098C0A8D0B741312198E780C1217E278F1
:102968000C790812154F40117808790C121781AAB2
:1029780008AB09AC0AAD0B80227510007511007503
:1029880012007513017810790C12178178107908E4
:10299800121748AA10AB11AC12AD1380A68A828B0D
:1029A800837508FF7509FF750AFF750B0078081213
:1029B80017CF7F04021ACA74F5121A1E8C828D83EF
:1029C80078081217E28A828B837808121795EA240E
:1029D80004F8EB3400F98C828D83A3A3A3A3E0FC55
:1029E800A3E0FD88828983C3E09CF0A3E09DF08882
:1029F800828983C3E09420A3E0944E40268A828B88
:102A0800837508FF7509FF750AFF750BFF780812B3
:102A1800176E8A828B83A3A3A3A3E02420F0A3E0EC
:102A2800344EF00229A574F5121A1EE9FE9004F737
:102A3800E0FAA3E0FBEEC333F8E433F974E928F5D0
:102A480082748039F583E02AF508A3E03BF509781C
:102A580008121BC57A407B427C0F7D0012258074CA
:102A6800021219588A088B098C0A8D0B7410780881
:102A7800121710AA08AB097F04021ACA74F1121AB5
:102A88001E8A0C8B0D8C0E8D0F740F12198EE0FAA6
:102A9800A3E0FB741112198EE0F508A3E0F509789C
:102AA80008121BC5EA2401F508EB3400F509E4F522
:102AB8000AF50B780C790812158E750871750902DC
:102AC800780C790812158EAA0CAB0DAC0EAD0F124E
:102AD800258074021219588B09EA450960047A01A5
:102AE80080027A00EC2AFCED3400FD741312198E72
:102AF800E0F8A3E0F9E8FEE9FFECF8EDF97A717B7C
:102B0800021218B7880889098E828F8378081217ED
:102B1800F1ECF8EDF97A717B021218B78A088B0983
:102B28007405780812192F8E828F83A3A3A3A3E5B7
:102B380008F0A3E509F07F08021ACAC082C083E939
:102B4800906000F0D083D08222C2AF02000022C081
:102B5800E074F2121B0AA2AFE433FED2AFE589A2F9
:102B6800E04006E589A2E1500312136075890075FB
:102B78008900C2C5751A00EEA2E092AF7F01021B60
:102B880069C0E0C0D0E8C0E0E9C0E0E5A8D2AFC2C3
:102B9800C7751A00A2E7A2E792AFD0E0F9D0E0F833
:102BA800D0D0D0E032020132FFFFFFFFFFFFFFFF6E
:102BB800C082C083E9900A40F0022E4774F71219C8
:102BC800B2E99002E1F07C197D037AFF7BFF1209DC
:102BD8002E9002E274FFF0A3F0A3E4F0A3F07905CD
:102BE8001208B69002E1E0F91207D87A4C7B091274
:102BF8000AFC7F01021A8474F41219B28A088B093C
:102C0800EB548060309002E1E0F91210DE8A0A8B02
:102C18000BAE0AAF0BEE4F60138E828F83E064B069
:102C280070031208CEEEFAEFFB1210CCAA08E509E1
:102C38006480FB80047A007B00022E1674F212195D
:102C4800B274FC121942EAFEEBFFEE4F60387402D0
:102C580012198EEEF0A3EF12307BECF0A3ED1230D8
:102C68007BAA82AB831207D2E9F50870737412123B
:102C7800198E123C2FE50A450B60658E828F8312F0
:102C88002CF2EE4F700575080280557A067B00120B
:102C980011388A0C8B0DA80CA90DE8497005750828
:102CA80013803D88828983E4122CFCA3A3EEF0A351
:102CB800EF1240C8E50AF0A3E50BF09002E7122DE9
:102CC800849002E76017E0FCA3E08003EAFCEBFDD8
:102CD8008C828D83122D8470F38C828D83123B54E9
:102CE800A90874041219580242CAA3A3A3A3E0FEB8
:102CF800A3E0FF22F0A3F0888289832274F21219DC
:102D0800B2890AE975F017A4FEAFF09002E6E4F084
:102D18009002E4122D84600A12113E9002E4E4F05D
:102D2800A3F0EEFAEFFB1211388A088B09EA45097D
:102D3800602FEEFCEFFD79001210BA9002E4E5086E
:102D4800F0A3E509F07B008008122D6EE4F0A3F0F3
:102D58000BEBC3950A40F2E50A9002E6F079008091
:102D68000279130242CAEB75F017A4F8A9F0900291
:102D7800E4E028FAA3E0398A82F583221238EAEAE5
:102D88004B2274F41219B2750800750900740C12FC
:102D9800198E12409CFEE9FF800CE5082401F50815
:102DA800E5093400F509C3E5089CE5099D5032851D
:102DB800080A85090B7403780A12192FEA250AF8FC
:102DC800EB350BF988828983A3A3A3A3A3A3123CA1
:102DD8002FEE650A7003EF650B70BFE8FAE9FB8018
:102DE800047A007B00802774F41219B27900EAA2F1
:102DF800E0501B75084A7509817808121BC57C04C8
:102E08007D007A427B0A1208B074021219587F04B6
:102E1800021A84C082C0839002E7122E4E601C887A
:102E2800828983A3A3E06A7003A3E06B8882898305
:102E380070E8A3A3A3A31238E680047A007B00D02D
:102E480083D08202013212439DE8492274EE12199E
:102E5800B274FC121942EAFEEBFF851882851983C9
:102E6800E4F0A3F0EE2402123B38EE240512306998
:102E7800EE2404F50EEF12344EE024FE603924FCF3
:102E8800604624FE605224FE605E24FE7003022F1A
:102E98006E24FE7003022FE624FE7003022FF52431
:102EA800FE700302300424FC700302301324FE7009
:102EB8000302302202305F9003007417F0A3E4127B
:102EC800308312055002305F851882851983AC82E1
:102ED800AD831208D402302F851882851983AC82FD
:102EE800AD831208DA02302F850C08850D097402AB
:102EF80012198EAC82AD838508828509831238E663
:102F08001207F68A0C8B0DAC0CAD0DEC4D6042E44B
:102F1800F50CF50D780C121BC5750C00750D0378B2
:102F28000C121BC5750C01750D03780C121BC574AA
:102F38000812198E121BDC79161238E01209167461
:102F480008121958E9F50C700B1238DC1205688064
:102F58000F750C01850882850983123071123B5464
:102F6800850C08023032740212198EAC82AD83854A
:102F78000C82850D831238E61207F68A108B11AC85
:102F880010AD11EC4D6043850C82850D83A3A3120F
:102F98001BDC7510007511037810121BC575100124
:102FA8007511037810121BC5740812198E121BDCD8
:102FB80079161238E01209167408121958E9F50939
:102FC800700B1238DC12056E800F750901850C82B2
:102FD800850D83123071123B54850908804C851881
:102FE80082851983AC82AD831208E0803A85188205
:102FF800851983AC82AD831208E6802B85188285FB
:103008001983AC82AD831208EC801C85188285195F
:1030180083AC82AD831208F2800D851882851983EE
:10302800AC82AD831208F8E9F508E50860298E82BC
:103038008F83A3E06414601F850E82850F83E09060
:10304800030012307B124399900301123B54E508A8
:10305800A312308312054AEEFAEFFB120874023A03
:1030680040F50CEF3400F50D2212439D851882853A
:10307800198322F085188285198322F07C007D034C
:10308800850A82850B831238EA2274EE1219B2740B
:10309800FC1219428A0A8B0B8C0E8D0FEA2405F557
:1030A80008EB3400F5097C157D0079007A007B0374
:1030B8001210BAE5082402F50CE50912306C8518DF
:1030C800828519838582108583117810121BC58526
:1030D8000882850983A3A3A3A3123596121BC5E50D
:1030E800082405F510E5093400F5117810121BC500
:1030F800850C82850D831238F01207F074061219B8
:10310800588A108B11AE10AF11E50A2402F50AE5B2
:103118000B123B3BEE4F70030232588017740212B9
:10312800198E1238E688828983EAF0A3EBF09003BF
:1031380000E004F0900300E0C39405400302325815
:10314800E4F510F5117810121BC57510E975110218
:103158007810121BC57510EA7511027810121BC57C
:10316800740612198E121BDC7910EEFCEFFD123872
:10317800E01209167408121958E9705E85088285EC
:103188000983A3A3A3A3A3A3A3E0F89002E9E0689B
:103198007048123596121BC57CEA7D02E5082408A2
:1031A800FAE5093400FB1210B47402121958E960E8
:1031B800298E828F83A3A3A3A31238E6900300E08D
:1031C800F5107402781012192F74012510F5827405
:1031D800033511F583EAF0A3EBF0740212198E851A
:1031E80082108583117810121BC5740212198E1271
:1031F8001BDC850C82850D831243AE1207FC740418
:103208001219588A108B11AE10AF11900300E0F517
:10321800107511007402781012192F74002510F817
:1032280074033511F988828983A3122D84700302EF
:10323800311CE82403F8E93400F9EE4F6003023149
:10324800258882898374FFF0A3F0900300E004F0DE
:10325800900300E0600A1238DC12055C7900800BEC
:10326800850882850983123B4B790A023A4074EA41
:103278001219B274FE1219428C128D13EA2405F544
:103288000CEB124518122CF6750800750900EA2493
:1032980002F510EB3400F5118518828519838582B3
:1032A8000A85830B780A121BC5850C82850D83A3BA
:1032B800A3A3A3123458121BC5E50C2405F50AE58F
:1032C8000D123B3B780A121BC5850C82850D8312B3
:1032D80043AC1207F074061219588A0A8B0BEA4598
:1032E8000B7003023409EA2404F50EEB12344E1273
:1032F8002CF68A828B83A3A3A3E0F985108285111B
:10330800831238E61207DEE9F5096003023409E49E
:10331800F514F5157814121BC57514E9751502789E
:1033280014121BC57514EA7515027814121BC5749E
:103338000612198E121BDC7913AC0AAD0B851082AC
:103348008511831238E61209167408121958E9F51E
:103358000960030234099002E9E0F8E5087009E021
:103368002402900301F08017900301E0FCE8240296
:10337800FAE43400FBEA6C7001EB600302340D855B
:103388000882AA8212358D94141235855073850EE1
:1033980082850F83E0C0E074022A123445D0E0F041
:1033A8000508850E82850F83A3E0C0E085080A74AE
:1033B80002250A123445D0E0F005089002E91234DB
:1033C80058121BC57CEA7D0285080A7402250AFA90
:1033D80074033400FB1210A274021219589002E907
:1033E800E02508F50874FF6E700374FF6F6012EE35
:1033F80024010EEF3400FFE508C394145003023291
:10340800A0E50860131237D1851082851183123820
:10341800E612056279008014E509700375090A85CA
:103428001282851383EEF0A3EFF0A9097402121932
:10343800587F0E021A8485080C7402250CF58274D4
:10344800033400F583223400F50F850E82F58322BC
:103458001240DB2274EE1219B274FE1219428C0E5D
:103468008D0FEA2405F50CEB12306C750B009003F8
:1034780000E4F0F50AEA2402F508EB3400F50980C7
:1034880049900300E0FA9002E9E0F812358D9417AC
:10349800123585400D900300E0F87416C398900229
:1034A800E9F0123596121BC57CEA7D0274012AFAEE
:1034B80074033400FB1210A274021219589002E926
:1034C800E0F8900300E028F0050AE50C2416F582E0
:1034D800E50D123449E0F8E50AC398400302356E59
:1034E800900300E0C39416507DE50AC333F8E43333
:1034F800F9E50C28FEE50D39FF851882851983AC9E
:1035080082AD838E828F831238E61207F68A108B7B
:1035180011AC10AD11EC4D7005750B018043E4F54D
:1035280010F5117810121BC57510E9751102781085
:10353800121BC57510EA7511027810121BC57406A6
:1035480012198E121BDC79168508828509831238B8
:10355800E61209167408121958E9F50B70030234BB
:1035680089123B4780107C007D038508828509838A
:103578001238E6120574A90B7402023A42E9940063
:10358800C365D03322EA28F8E43400F9E822E0F5EC
:103598001075110078102274EA1219B274FC12190D
:1035A800428A0C8B0D8C128D13EA2405F50AEB1256
:1035B8003B3B750800750900E50A2402F510E50B88
:1035C8003400F511740212198E85820E85830F78E6
:1035D8000E121BC5850A82850B83A3A3A3A31240E1
:1035E80087121BC5E50A2405F50EE50B3400F50F17
:1035F800780E121BC5851082851183123B41123843
:10360800E01207F074061219588A0E8B0FAE0EAF2F
:103618000FE50C2402F50EE50D3400F50F80408807
:1036280082898374FFF0050812343E74FFF00508A0
:103638009002E9E0F50C750D00780C121BC57CEAC8
:103648007D0285080C7402250CFA74033400FB1201
:1036580010A274021219589002E9E02508F508EE44
:103668004F60718E828F83A3A3A3E0F9850E8285B4
:103678000F831238E61207DEE9F509EE240412304A
:1036880069E97044E4F514F5157814121BC575142E
:10369800E97515027814121BC57514EA75150278B8
:1036A80014121BC5740812198E121BDC7911EEFC5A
:1036B800EFFD850E82850F831238E612091674080D
:1036C800121958E9F5096027850C82850D83123790
:1036D800C7123B54E50870030237AD1237D1850E87
:1036E80082850F831238E612057A79000237C2857F
:1036F8000882AA82EA9002E97009E0240490030192
:10370800F08022E0F8900301E0F514E82404FCE4DA
:103718003400FDEC65147001ED70C012358D941203
:1037280012358550B6850C82850D83E0C0E07402A1
:103738002A123445D0E0F00508850C82850D83A354
:10374800E0C0E012343ED0E01237E385820C858376
:103758000D780C121BC5740412198E121BDC85100F
:10376800828511831243AE1207FC74041219588A19
:103778000C8B0DAE0CAF0D85080C7402250CF8747B
:10378800033400F9EE4F7003023627851882851935
:1037980083E0888289831237E3A3E0C0E012343ED5
:1037A800D0E0023635E509700375090A850A828575
:1037B8000B831237C7123B54A9097404023436121A
:1037C800439D85128285138322900301E0F5F0E57D
:1037D8000884900300F07C007D0322F0050885181A
:1037E800828519832274EC1219B274FE1219428A66
:1037F800088B098C0E8D0FEA2405FEEB3400FF853B
:103808001882851983AC82AD838E828F831238E645
:103818001207F68A0A8B0BEE2418123069EA450B58
:1038280070030238B7123A295032851882851983F5
:103838001238E612090A8A108B11EA4511606B7971
:1038480012AC0AAD0B8508828509831238E685100B
:10385800828511831219B0E9F50A7058E4F50AF562
:103868000B780A121BC58E828F83A3A3E0F50A7812
:103878000A121BC5EE2403123B38780A121BC58EA8
:10388800828F831238F012091C7406121958E9F550
:103898000A7021850C82850D83E0701F850882855A
:1038A80009831238E61205808011750A0E800975A1
:1038B8000A018004E50A6003123B47850C82850DE6
:1038C80083E0600479008002A90A74021219587F03
:1038D8000C021A847C007D03850A82850B831238CA
:1038E800EA22E0FAA3E0FB22E0FCA3E0FD850882DF
:1038F8008509831238EA2274EE1219B274FE12197D
:10390800428A088B098C0C8D0DEA2405FEEB3400E5
:10391800FF750E00851882851983AC82AD838E826F
:103928008F831238E61207F68A0A8B0BEA450B706A
:1039380003023A15123A29503585188285198312DF
:1039480038E612090A8A0E8B0FEA450F605E791273
:10395800AC0AAD0B8508828509831238E6850E828C
:10396800850F831219B0E9F50E6003023A1885082D
:1039780082850983123C2FAA0AFB1208FE8A108B43
:1039880011A810A911E849701E7AFF7BFF1208FEE2
:103998008A108B11A810A911E849606C8882898364
:1039A800E50AF0A3E50BF0750A008007750E0E8096
:1039B8005F050A9002E6E0FAE50AC39A504AE50A6A
:1039C80075F017A4FAABF088828983A3A3E02AFADA
:1039D800A3E03BFB8A828B83123B41EC4D70D2758E
:1039E8000A17750B00780A121BC5EEFCEFFD1210C2
:1039F800A27402121958EEFCEFFD8508828509832E
:103A08001238E61205868014750E098003750E01BA
:103A1800124395850C82850D83123B54A90E0235FD
:103A280080E5082402F508E5093400F5098A828B47
:103A380083A3A3A3E0A2E52274041219587F0A0203
:103A48001A8474EC1219B28C108D11EA2405F50C45
:103A5800EB12306C750F00EA2402F50AEB123B3BBF
:103A6800850A82F5831238E61208FE8A088B09EA6D
:103A780045097003023B2D750E008071850C828507
:103A88000D83E06401704F8E828F83A3A3121BDC29
:103A98008E828F83A3A3A3A3E0F512751300781277
:103AA800121BC5EE2405F512EF3400F51378121237
:103AB8001BC51238E012091C7406121958E9F50FD3
:103AC8006014850C82850D83E4F01243958510827D
:103AD800851183123B547C177D007900EEFAEFFBC9
:103AE8001210BA8E828F83E4F0A3F0050E9002E6DE
:103AF800E0F8E50EC398501EE50E75F017A4F8A976
:103B0800F0850882850983A3A3124522123B41EC64
:103B18004D6003023A8485088285098374FFF0A307
:103B2800F0E50F70061238E012058CA90F0238D79D
:103B3800F50AEF3400F50B22A3E0FCA3E0FD228E8A
:103B4800828F8312439D850E82850F83E8F0A3E957
:103B5800F022C082C0839002E2E06A7003A3E06BA7
:103B680070067AE27B0280047A007B00022E47C04E
:103B780082C08378008C828D83E06A7003A3E06B37
:103B88007010E875F003A4F8A9F0EC28FAED39FBF9
:103B98008015088C828D83A3A3A3E06A7003A3E039
:103BA8006B60DF7A007B00022E4774F61219B2129E
:103BB80008C88A828B83E582458370067A007B0079
:103BC8008007A3A3A3A31238E602424674F212198F
:103BD800B2E9FE740E12198E123C2F741012198E4F
:103BE8001240A78C828D83E064027036A31243A32F
:103BF800F50CA3E0F9A80C740268700374296970C5
:103C080021750C02750D00780C121BC57808121B63
:103C1800C5780A121BC5EEF9120940740612195824
:103C2800800279010242CAE0F50AA3E0F50B22748A
:103C3800E81219B274FB121942E9851882851983B2
:103C4800F08A168B17ECFEEDFF751000741D121923
:103C58008E124399741D12198E123B548E828F83D3
:103C6800A3A3A3E0A2E4502D741D12198E1238E606
:103C780012090A8A828B83E58245837003024078A1
:103C8800790AEEFCEFFDAA16AB171219B0E9F51088
:103C9800600302407B741F12198E1240A774211210
:103CA800198E123C2F742312198EE0F50EA3E0F53D
:103CB8000F8E828F83E064026003024026A31243C2
:103CC80099850882850983A3858212858313EE244A
:103CD8000612306988828983E0FAA3E0F9EA2400B1
:103CE800F514E439F5157814121C4F010000280169
:103CF800281B3D07000228E03D03284D3D002917F9
:103D08003F0129423F0229E33E0329173F0429C105
:103D18003F2640E50E450F6003024021850C828551
:103D28000D8312409CFAE9FB8A828B83E0850A8224
:103D3800850B831240D2121BC58A828B83A3E0FCB9
:103D4800A3E0023FABE50E450F6003024021850A60
:103D580082850B837401F01240AF85088285098340
:103D6800F07C007D008E828F83A3A3A3A3E02401AF
:103D7800FAA3E03400FB1207F6EA4B60418A828B13
:103D880083E02402F8850A82850B83E028F0EA2480
:103D980004F8EB3400F988828983E0851282851360
:103DA800831240E41240D2121BC58A828B83123BD5
:103DB80040E5082403FAE5093400FB023FB0850A10
:103DC80082850B83E02404F07C047D007900AA122C
:103DD800AB131210BA02407BE50E450F6003024098
:103DE800211240AFFEA3E0FF850A82850B8374048D
:103DF800F0EE850882850983F0EF851282851383AA
:103E0800F0740312198EAC82AD83EEFAEFFB120741
:103E1800F68A0C8B0DEA450D7003023EC48A828B2C
:103E280083A3A3122CF2740112198E85820E858346
:103E38000F780E121BC5740512198E121BDC7CFF3D
:103E48007DFF1207FC74041219588B0FEA450F7096
:103E580033850C82850D83124087121BC5850C8221
:103E6800850D83A3121BDC7C027D007A0E7B8212F7
:103E780006287404121958E9700A740112198E740C
:103E8800FFF0A3F08E828F83E064027039750C0214
:103E9800750D00780C121BC58E828F83123B40E58E
:103EA800082404FAE5093400FB1210A2740212195E
:103EB80058850A82850B83E024028009740112194F
:103EC8008EEEF0A3EFF0740112198E124098F07480
:103ED8000112198EA312409002401BE50E450F6097
:103EE80003024021850C82850D83123B41AA16AB43
:103EF80017120934850A82850B837402F0EA850853
:103F080082850983F0851282851383EB02401EE5C2
:103F18000E450F60030240211240AFF8A3E0F98577
:103F28000A82850B837402F0E8850882850983F08C
:103F3800E985128285138302401E850C82850D83D4
:103F48001238E612109CEAFC8C82A882C3950EE413
:103F5800950F405FE8650E7002E50F70047C0080E5
:103F680022851882851983E0FAE50E2AFAE50F34CE
:103F780000FBC3EA98EB94005003E08005E50ECC03
:103F8800C39CFCEC850A82850B83F08C0A750B00B8
:103F9800780A121BC5850C82850D83E0250EFCA3CB
:103FA800E0350FFDAA08AB091210A27402121958C5
:103FB80002407B75100702407BE50E450F705A855D
:103FC8000C82850D83124399850A82850B837407B9
:103FD800122CFE124090122CFEA3E085128285134B
:103FE80083F0E82402FAE93400FB8A828B831240CA
:103FF800901240BF124098A31240C81240A1F0E8A6
:104008002405F8E93400F9888289831240A1A312B3
:1040180040E4A3A3A3A3F0805A75100B8055741D28
:1040280012198E1238E61208C88A828B83E58245F7
:1040380083603D124399880C890DE8450D603178FD
:104048000E121BC5780A121BC57808121BC5740608
:1040580012198EE0F9EEFCEFFDAA16AB17850C825B
:10406800850D831219B07406121958E9F5108003EA
:1040780075100EA91074051219587F10021A84E0E1
:10408800F50E750F00780E22E085088285098322D7
:104098001240EE2212439DE8221240EEA3A322E032
:1040A800F508A3E0F50922850C82850D83E0F8A3C5
:1040B800E0F5838882E022A3A3F08A828B83A3227F
:1040C800F088828983A3A3A3A322F08A828B831218
:1040D80040DB22E0F50A750B00780A22F088828915
:1040E80083A31240EE22E0850882850983A3A322D8
:1040F80074EE1219B274FE1219428A0A8B0BECFA8A
:10410800EDFB741412198EE0F510A3E0F511741686
:1041180012198EE0FE741812198EE0F50EA3E0F560
:104128000F851882851983AC82AD831207F68A0C35
:104138008B0DEA450D60498518828519831238E68A
:104148001208C88A828B83E5824583602FA3A31255
:1041580040A7E50845096024780E121BC57810129F
:104168001BC5EEF9AC0CAD0DAA0AAB0B8508828510
:1041780009831219B074041219588006790E800246
:10418800790102358074F61219B274FE121942745C
:104198000C12198E12409C851882851983F07401BF
:1041A80012198EE9F0E4F508F5097808121BC575AF
:1041B80008027808121BC5740412198E85820885B6
:1041C80083097808121BC512091C74061219587441
:1041D80002121958806874F71219B2EAFEEBFF89C7
:1041E800087C197D03120934EA5402600BA908EE11
:1041F800FAEFFB1207EA80027901022BFA74F61231
:1042080019B274FF6A700374FF6B70168C828D8309
:1042180012424BE4F08C828D83A3A3A312424BA3DA
:1042280080181209048A088B09A808A909E84960B6
:104238000D8882898374FF122CFCA3A3E4F07F020B
:10424800021A8474FFF0A3F08C828D83A3A32274D6
:10425800F61219B21209048A828B83E582458360BB
:1042680006A3A3E0FA80027A007B0080D174F212E0
:1042780019B28A088B09ECFEEDFF740E12198EE054
:10428800F50A1209048A0C8B0DA80CA90DE84970CF
:1042980026EEFCEFFD7AFF7BFF1209048A0C8B0DDA
:1042A800A80CA90DE84970047911801688828983C1
:1042B800E508F0A3E509F088828983A3A3E50AF05D
:1042C80079007F06021A8474EE1219B2EAFEEBFF37
:1042D8008C088D09890C741412198E12439974165E
:1042E80012198E1238E6750D00E849600302438DF5
:1042F8007402650C6003024388741212198E12430B
:10430800A3FCA3E0F9EC2400F50EE439F50FEAF478
:10431800F8EBF4F9EC58F8E50F59F9E849705CE561
:10432800082406F8ED3400F9880A890B8882F58399
:104338001243AE1209348A108B11E50E6510700411
:10434800E50F65116042780E121BC5850A82850B40
:10435800831243AE12093A7402121958E9F50D7026
:1043680027780E121BC5850882850983A3A31243EB
:10437800AC1209527402121958800D750D8080080C
:10438800750D0D8003750D0BA90D023A458E828FB0
:104398008312439D22E0F8A3E0F92212439D88820C
:1043A8008983E022A3A3E0FCA3E0FDEEFAEFFB2261
:1043B80074E81219B274E7121942851882851983B4
:1043C800EAF0A3EBF08C168D17890E7508007509B5
:1043D80000743112198EE0F512A3E0F5137433124C
:1043E800198EE0F514A3E0F515743512198EE0F571
:1043F8000FE50975F003A4F8A9F0851882851983DB
:10440800124522E0F47003A3E0F47003024505EEC0
:104418002402F50CEF124518E070030245058516D5
:104428000A85170B780A121BC5AC14AD15AA12AB76
:10443800131208BC74021219588A0A8B0BEA450B2E
:104448007003024505E4F510F5117810121BC574C8
:104458000612198E8582108583117810121BC57477
:104468000912198E8582108583117810121BC58553
:104478001282851383A3A3A3A3121BDC7914AC0AAD
:10448800AD0B8E828F831238E61209167408121942
:1044980058E97069850A82850B83A3A3A3A31243F5
:1044A80099740212198E123B54850C82850D83E093
:1044B800A2E05018A90E740212198EAC82AD838E38
:1044C800828F831238E612080EE94208850C82852D
:1044D8000D83E0A2E15026E50FF50A780A121BC900
:1044E800A90E740312198EAC82AD838E828F83124B
:1044F80038E61208087401121958E942080509E556
:1045080009C3940250030243F9A908741902407FB1
:104518003400F50D850C82F58322E028FEA3E039EE
:10452800FF8E828F832274F21219B2EAFEEBFF89A2
:104538000B7401650B600E7402650B706A790112C9
:104548000B1AE97062EEFAEFFB1208FE8A088B0973
:10455800EA45096047750A00800B7C177D007900E1
:104568001210BA050A9002E6E0F8E50AC39850214D
:10457800E50A75F017A4F8A9F0850882850983A3D0
:10458800A3E028FAA3E039FB8A828B83122E4E70AF
:10459800C985088285098374FFF0A3F07C197D031F
:1045A800EEFAEFFB12092E0242CA74F21219B28A0D
:1045B800088B09ECFEEDFF740E12198E123C2F9039
:1045C8000A40E0F4603D7A097B001210C6EA4B60AD
:1045D800328A828B8374B1F0A3E41240C1A31240E3
:1045E800BFA3E508F0A3E50912460EEEF0A3EF120B
:1045F800460EA3A3E50AF0A3E50BF0900A40E0F904
:104608001210D20242CAF08A828B83A3A3A3A3A367
:1046180022C082C0839061907404F0A37448F0A310
:104628007402F09061807440F09061BC7403F09063
:1046380061877419F0906265741BF0906249E0C359
:10464800941390619C400A7409F09060667401802C
:1046580007740DF0906066E4F090619A7433F0A3EB
:104668007455F09061A0743AF090053FE0640170D1
:1046780009C2919003A6746780059003A67461F03F
:10468800902BB6E493906186F0902BB0E493F4609D
:1046980027E493540FF8906185E0686012E5C654EA
:1046A800804449F5C6E59E547F644970F8E8F053A4
:1046B800C680E59E547F70FA7905120E86024898E6
:1046C800C082C083E9540FF9906185E0696012E502
:1046D800C654804449F5C6E59E547F644970F8E99C
:1046E800F053C680E59E547F70FA024898C082C095
:1046F80083E5A8F853A87E906181E4F0A3F0A3F0C5
:10470800C2BA539AFEC289759B00C2C275E9007588
:10471800910075BF0075A91175B905906181F0A365
:1047280074C0F0A3E4F0D2BA439A0174805842A846
:10473800024898C082C08374F81219429003A4E01A
:10474800F8A3E0F9E84970030248699003A4E0542B
:104758004060237908851882851983AA82AB831261
:104768000CE8851882851983AA82AB831209CA903E
:1047780003A4E054BFF0E054806010790C7A657BA4
:1047880005120CE89003A4E0547FF0E0A2E0503159
:1047980090619A7433F0A37455F09061A0743AF064
:1047A80090053FE064017009C2919003A674678088
:1047B800059003A67461F01209D09003A4E054FE9A
:1047C800F0E05402603190619A743FF0A3745AF09B
:1047D8009061A0747FF090053FE064017009D29168
:1047E8009003A6747180059003A6746AF01209D02C
:1047F8009003A4E054FDF0E054046013902BB4E45B
:1048080093906186F01209D69003A4E054FBF0E07F
:1048180054086013902BB5E493906186F01209D682
:104828009003A4E054F7F0E054106013902BB6E422
:1048380093906186F01209D69003A4E054EFF0E05B
:104848005420600A1209D69003A4E054DFF0A3E0D4
:104858005401600D120C101209DC9003A5E054FEFF
:10486800F07408121958024898C082C083E9600899
:1048780014600A14600C8013902BB48008902BB538
:104888008003902BB6E493906186F08003F0A3F048
:10489800D083D08202013274EC1219B274F4121966
:1048A80042851882851983AC82AD837583817582B0
:1048B800C27404121855902BB493F46003024A2B67
:1048C800907808E0C394025003024A0B740412194A
:1048D8008EAC82AD8375838175822A74081218554F
:1048E80085188285198385821285831374041219A9
:1048F8008EAC82AD83750EFF750FFF7FFF7E00754E
:104908000C48750D78801574086E700302499F7401
:10491800096E700302499F740A6E607B850C82855C
:104928000D8378081217E28C828D83A909E50AC9DC
:10493800F8881074187808121710E5104508F8C39D
:10494800E098A3E099850C82850D8378081217E218
:1049580040188C828D8374187808121710E510455A
:1049680008F8E0C398F8A3E0801C741878081217B8
:1049780010E5104508FAE9FB8C828D83E0F8A3E086
:10498800F9EAC398F8EB99F9C3E8950EE9950F5041
:1049980006880E890FEEFF0EE50C2404F50CE50DD4
:1049A8003400F50DEEC39413500302490F74FF65EC
:1049B8000E700474FF650F60238F08740278081264
:1049C800192F74482508F58274783509F583780815
:1049D8001217E2851282851383E508F0EC2402FCA5
:1049E800ED3400FD851282851383A38582128583A9
:1049F80013740C12198EE5826C7003E5836D6003E5
:104A08000248FD7508017509007808121BC5740273
:104A180012198EAC82AD837AED7B0A12133C7402B4
:104A2800121958740C1219587F0C021A84C082C0CB
:104A3800839061AE7468F0A3746AF090624574FB69
:104A4800F0A304F053F4FD43FE0290053F7401F017
:104A58009061A0E0643A90619A70237433F0A37473
:104A680055F09061A0743AF0740164017009C29124
:104A78009003A6746780289003A674618021743F10
:104A8800F0A3745AF09061A0747FF074016401700F
:104A980009D2919003A6747180059003A6746A02E6
:104AA80048977F08021A84C082C0839004F1E064AA
:104AB80001700A9004F6E06004790C800279000223
:104AC8004898C082C08375E1F19004F4E0605B14FB
:104AD800600914605F14605714705E120C22900411
:104AE800EAE0F97AEB7B04120E087AD67BBE7C8961
:104AF8007D8E120E3E7A557B557C557D00120E1424
:104B08009004F5E0F9120E207901120E7A9004E86B
:104B1800E0F8A3E0C82416F582E83400F583743A77
:104B2800F0A3740CF07900024898120C2880AF1298
:104B38000C2E80AA120C3480A5791280EA74F01227
:104B480019B275D90D9004D5E0A2E0E4331313F837
:104B58009004EAE0C4333354C0484401F5D978E8F6
:104B6800790488828983A3A3A3E0F5D988828983FD
:104B7800A3A882A983E864EE7003E9640470E3786B
:104B8800D5790488828983A3E0F5D988828983A3AB
:104B9800A882A983E864DB7003E9640470E575E121
:104BA800959004D5E0F97AD67B04120E0E900A622D
:104BB80074C8F0A3740BF0A37430F0A3740DF0A3C1
:104BC8007430F0A3740DF0A37430F0A3740DF0A347
:104BD80074CEF0A3740BF0A37430F0A3740DF0A39B
:104BE80074E6F0A3740BF0900A707430F0A3740D9F
:104BF800F0A37430F0A3740DF0A37430F0A3740D17
:104C0800F0A37430F0A3740DF0A37430F0A3740D06
:104C1800F0A37430F0A3740DF09004F4E0640190F4
:104C280004E87012E0F8A3E0F5838882A3A375086E
:104C3800007509088010E0F8A3E0F5838882A3A333
:104C4800750804750900750A00750B0078081217B5
:104C58005B750CFF750DFF750EFF750F00780879F1
:104C68000C1217A99004E8E0F8A3E0C8240EF58216
:104C7800E83400F58378081217F19004E8E0F8A307
:104C8800E0C82414F582E83400F5837413F0900327
:104C9800A27402F0024AAA74F71219B29004FAE058
:104CA8002407F5D99004EAE0C4333354C0F5D97821
:104CB800E8790488828983A3A3A3E0F5D988828947
:104CC80083A3A882A983E864EE7003E9640470E30F
:104CD8009004FAE0601F78E87904FAE82413F58272
:104CE800E93400F583E0F5D988828983A3A882A9ED
:104CF800831AEA70E690051AE02407F5D99004EAC9
:104D0800E0C4333354C04404F5D978E87904888280
:104D18008983A3A3A3E0F5D988828983A3A882A95C
:104D280083E864EE7003E9640470E390051AE060B8
:104D38001F78E87904FAE82433F582E93400F5832A
:104D4800E0F5D988828983A3A882A9831AEA70E644
:104D580075E195900A6274D4F0A3740BF0A37430D3
:104D6800F0A3740DF0A37430F0A3740DF0A37430A5
:104D7800F0A3740DF0A374CEF0A3740BF0A37430F9
:104D8800F0A3740DF0A374E6F0A3740BF0900A700E
:104D98007430F0A3740DF0A37430F0A3740DF0A375
:104DA8007430F0A3740DF0A37430F0A3740DF0A365
:104DB8007430F0A3740DF0A37430F0A3740DF09068
:104DC80004E8E0F8A3E0C8240EF582E83400F5838F
:104DD80074FFF0A3F0A3F0A3F09004E8E0F8A3E0D8
:104DE800C82414F582E83400F5837412F09003A205
:104DF8007401F0FF021A8474F71219B29004FAE0F1
:104E08002407F5D99004EAE0C4333354C04402F5CA
:104E1800D978E8790488828983A3A3A3E0F5D9889F
:104E2800828983A3A882A983E864EE7003E96404F5
:104E380070E39004FAE0601F78E87904FAE8241334
:104E4800F582E93400F583E0F5D988828983A3A83F
:104E580082A9831AEA70E675E195900A6274E0F017
:104E6800A3740BF0A374E0F0A3740BF0A374E0F048
:104E7800A3740BF0A374E0F0A3740BF0A374E0F038
:104E8800A3740BF0A374E0F0A3740BF0A374E6F022
:104E9800A3740BF0900A707430F0A3740DF0A3742F
:104EA80030F0A3740DF0A37430F0A3740DF0A37464
:104EB80030F0A3740DF0A37430F0A3740DF0A37454
:104EC80030F0A3740DF09004E8E0F8A3E0C8240ED5
:104ED800F582E83400F58374FFF0A3F0A3F0A3F0A3
:104EE8009004E8E0F8A3E0C82414F582E83400F55B
:104EF800837414F09003A27404F00251C674F7127C
:104F080019B29004FAE02407F5D99004EAE0C43312
:104F18003354C04406F5D978E8790488828983A394
:104F2800A3A3E0F5D988828983A3A882A983E8642A
:104F3800EE7003E9640470E39004FAE0601F78E817
:104F48007904FAE82413F582E93400F583E0F5D909
:104F580088828983A3A882A9831AEA70E690051A31
:104F6800E02407F5D99004EAE0C4333354C044047C
:104F7800F5D978E8790488828983A3A3A3E0F5D9D1
:104F880088828983A3A882A983E864EE7003E96410
:104F98000470E390051AE0601F78E87904FAE824C1
:104FA80033F582E93400F583E0F5D988828983A353
:104FB800A882A9831AEA70E675E195900A6274DA04
:104FC800F0A3740BF0A37430F0A3740DF0A3743045
:104FD800F0A3740DF0A37430F0A3740DF0A3743033
:104FE800F0A3740DF0A37430F0A3740DF0A374E66D
:104FF800F0A3740BF0900A707430F0A3740DF0A352
:105008007430F0A3740DF0A37430F0A3740DF0A302
:105018007430F0A3740DF0A37430F0A3740DF0A3F2
:105028007430F0A3740DF09004E8E0F8A3E0C8240D
:105038000EF582E83400F58374FFF0A3F0A3F0A323
:10504800F09004E8E0F8A3E0C82414F582E83400FE
:10505800F5837415F09003A27403F00251C6C08260
:10506800C0839004E8E0F8A3E0C82406F582E83499
:1050780000F583E402489574F71219B29003D0E062
:10508800F875F003A4C8AAF02AF974D228F87403B2
:1050980039F9E82405FAE93400FB8A828B83E0FCBD
:1050A800A3E0FD88828983A3A3A3A3A3A3A3A3A3A7
:1050B800ECF0A3EDF088828983A3A3A3A3A3A3A301
:1050C800E024FFF8A3E034FFF98A828B83E8F0A399
:1050D800E9F00251C674F71219B2EAFEEBFF9061CB
:1050E800D0E060030251BA75D90E75D90375D90499
:1050F800EE248BF582EF3400F583E5822408F8E589
:10510800833400F9E0F5D9A3E865827003E9658383
:1051180070F2EE2483F582EF3400F583E5822404EF
:10512800F8E5833400F9E0F5D9A3E865827003E96E
:10513800658370F275E1957908EE248BFAEF3400F7
:10514800FB120CDC7904EE2483FAEF3400FB120C1A
:10515800DC7C00EEF8EFF9ECFAC3E49AFA95E0FB90
:10516800EE2AFAEF3BFBEA248AF582EB3400F5835A
:10517800E0C0E0E824AAF582E93400F583D0E0F045
:105188000C88828983A3A882A983ECC3940840C7AA
:10519800EE246FF582EF3400F583E0F8A3E0F9EE32
:1051A8002471F582EF3400F583E8F0A3E9F0790182
:1051B800800279008008F0EEA2E092AF79007F01CA
:1051C800021A84C082C08375D90275D90375D905BE
:1051D80075E195EA246FF582EB3400F583E0F8A3D6
:1051E800E0F9EA2471F582EB3400F583E8F0A3E9ED
:1051F800F0790102489874F61219B2EAFEEBFF90B2
:1052080005457406F07508457509057808121BC52B
:105218007C017903120D24740212195875D9067588
:10522800D903758245758305E0F5D9A3E582644AFB
:105238007004E583640570F075E1959003A2E0645D
:1052480008701EEE246FF582EF3400F583E0F8A3B2
:10525800E0F9EE2471F582EF3400F583E8F0A3E974
:10526800F079010254CC74F61219B2EAFEEBFF9001
:1052780061D0E070667801900545740BF09003A248
:10528800E0640770197508457509057808121BC58B
:105298007C017903120D24740212195878057401DF
:1052A80028F5D975D903758245758305E8FAE0F5BF
:1052B800D9A31AEA70F875E195EE246FF582EF34F8
:1052C80000F583E0F8A3E0F9EE2471F582EF3400ED
:1052D800F583E8F0A3E9F07901800279000254CC63
:1052E80074F71219B2EAFEEBFF75D90375D9037585
:1052F800D90DEE24DDF582EF3400F583E0F5D9759C
:10530800E1957904120E44EE246FF582EF3400F52E
:1053180083E0F8A3E0F9EE2471F582EF3400F58319
:10532800E8F0A3E9F079010251C674F61219B2EA5D
:10533800FEEBFF9061D0E0F87480C398FAEE248207
:10534800F582EF3400F583E0600478048002780089
:10535800E8240BF8EAC39850030253F77D09900537
:1053680045EDF0EE24E2F8EF3400F97A467B057C4F
:105378000888828983E08A828B83F088828983A364
:10538800A882A9838A828B83A3AA82AB831CEC7030
:10539800E0EE2482F582EF3400F583E0601D7508A5
:1053A800457509057808121BC57C097903EEFAEFE3
:1053B800FB120D2474021219587D0D74012DF5D9B4
:1053C80075D9037582457583058D08E0F5D9A31550
:1053D80008E50870F675E1957904120E44EE241D6F
:1053E800F582EF3400F583E4F0A3F07901800279C7
:1053F800000254CC74F61219B2EAFEEBFF9061D0A9
:10540800E0F87480C398FAEE2482F582EF3400F550
:1054180083E06004780480027800E82408F8EAC38E
:105428009850030254CA7806900545740CF090030E
:10543800BFE0900546F09003C0E0900547F0900368
:10544800C1E0900548F09003C2E0900549F0900350
:10545800C3E090054AF0EE2482F582EF3400F5832C
:10546800E0601B7508457509057808121BC57C06A0
:105478007903EEFA120D247402121958780A74018D
:1054880028F5D975D9037582457583058808E0F52F
:10549800D9A31508E50870F675E1957904120E444C
:1054A800EE246FF582EF3400F583E0F8A3E0F9EE1F
:1054B8002471F582EF3400F583E8F0A3E9F079016F
:1054C800800279007F02021A8474F61219B2EAFE89
:1054D800EBFF9061D0E0F87480C398FAEE2482F56F
:1054E80082EF3400F583E06004780480027800E8F5
:1054F8002404F8EAC39850030255AB780290054596
:10550800E8F0EE24F4F582EF3400F583E0900546E8
:10551800F0EE2482F582EF3400F583E0601B750815
:10552800457509057808121BC57C027903EEFA1245
:105538000D2474021219587806740128F5D975D902
:10554800037582457583058808E0F5D9A31508E534
:105558000870F675E195EE2473F582EF3400F58353
:10556800E4F0EE247FF582EF3400F583E4F0EE24D6
:105578001DF582EF3400F583E4F0A3F07904120EF0
:1055880044EE240DF582EF3400F583E0F8A3E0F94A
:10559800EE2471F582EF3400F583E8F0A3E9F079A1
:1055A80001800279000254CC74F61219B29061D0CD
:1055B800E0F87480C398FCEA2482F582EB3400F5A5
:1055C80083E06004780480027800E82404F8ECC3DF
:1055D80098405B79029005457407F0EA24F5F58256
:1055E800EB3400F583E0900546F0EA2482F582EB7F
:1055F8003400F583E06018750845750905780812C8
:105608001BC57C0209120D247402121958790674FC
:105618000129F5D975D903758245758305E9F8E03F
:10562800F5D9A318E870F875E19579018002790039
:105638000254CC74F51219B2E9FCA2AFE433F50AAE
:10564800C2AF7D0080010DEA246EF582EB3400F5CF
:1056580083E0F8EDC398501A8D08EA2508F8EB3472
:1056680000F9E8246AF582E93400F583E06C70D625
:105678008024EA246EF8EB3400F9E0FEEA2EFAEB17
:105688003400FBEA246AF582EB3400F583ECF088F9
:10569800828983E004F0E50AA2E092AF7F03021A50
:1056A8008474F61219B2A2AFE433FDC2AFEA246ED5
:1056B800F582EB3400F583E014F07C0060368C084A
:1056C800EA2508F8EB3400F9E8246BF582E93400A0
:1056D800F583E0C0E0E8246AF582E93400F583D078
:1056E800E0F00CEA246EF582EB3400F583E0F8EC88
:1056F800C39840CAEA246DF582EB3400F58374FF41
:10570800F0EA2469F582EB3400F583E4F0EDA2E0D9
:1057180092AF0254CCC082C083E5A8F8C2AFEA2495
:105728006AF582EB3400F583E9F0EA2469F582EB47
:105738003400F583E4F0E8A2E7A2E792AF024898C4
:1057480074F31219B2EAFEEBFFECFAEDFB8A828BD6
:1057580083A3A3A3A3E0541FF0EE2436F582EF340D
:1057680000F583E4F0F50AEEFCEFFD8A828B83E016
:10577800C0E0EC245DF582ED3400F583D0E0F075EF
:105788000B00E50A33333354F8F50C8A828B83E037
:10579800F508750900E50B7808121910E508A2E06C
:1057A800502FEE2436F8EF3400F988828983E0F52B
:1057B80008EE2508F508EF3400F509E5082438F562
:1057C80082E5093400F583E50CF088828983E004DA
:1057D800F0050B050CE50BC3940840AF050A8A8257
:1057E8008B83A3AA82AB838C828D83A3AC82AD8387
:1057F800E50AC3940550030257737F05021A84749F
:10580800F71219B29003CEE0640170030259657A69
:10581800009003D4E060030259657401F0A3E4F03A
:10582800A3F090043404F0900439F09003D7E4F026
:10583800A3F0A3F0A3F09003E104F0900407E4F0D0
:105848009003EAF0A3F0A3F0A3F0A3F0A3F0A3F071
:10585800900451F0900445F090043A7480F0A3E469
:10586800F0900440F09004BCF0A3F0A3F0A3F0A3E0
:10587800F0A3F0A3F0A3F09004C5F0900454F090C6
:1058880004A4F0A3F0A3F0A3F0A3F0A3F0A3F0A363
:10589800F0A3F0A3F09004B0F09004B2F09004AE3E
:1058A800F09004C8F0A3F0A3F0A3F0A3F0A3F0A332
:1058B800F0A3F078CE7903E8246EF582E93400F598
:1058C8008374FFF00A88828983A3A882A983EAC324
:1058D800940440E37ACE7B0378DC79048882898358
:1058E800E0C0E0EA2461F582EB3400F583D0E0F013
:1058F80088828983A3A882A9838A828B83A3AA82A8
:10590800AB83E864E17003E9640470D07ACE7B036A
:1059180078B5790388828983A3E0C0E0EA24E6F5B4
:1059280082EB3400F583D0E0F088828983A3A882D3
:10593800A9838A828B83A3AA82AB83E864BD7003A0
:10594800E9640370CF9003CEE004F064017008901E
:1059580003D6E09003D0F07AD27B0380047A007BF0
:10596800000251C6C082C0839003D5E4F09003D4EE
:10597800F09003CEF0A3F0A374FFF075E1F10248B4
:1059880098C082C083780079009003D5E0600478DD
:10599800D2790388828983A3A3A3A3E0F902489854
:1059A80074F61219B2EAFEEBFFEE2463F582EF34C7
:1059B80000F583E0F8A3E0F9E8497003025A4DEED8
:1059C8002463F8EF3400F97A007B00A2AFE433F5E2
:1059D80008C2AF88828983E0FCA3E0FDEC4D603A01
:1059E80088828983E0FAA3E0FB8A828B83E0FCA3A8
:1059F800E0FD88828983ECF0A3EDF08A828B83E452
:105A0800F0A3F088828983E0FCA3E0FDEC4D700AE6
:105A180088828983A3A3E4F0A3F0E508A2E092AF0B
:105A28001214269004E2E004F09004E3E004F0EE9F
:105A38002463F582EF3400F583E0F8A3E0F9E84940
:105A480060030259C78E828F83A3A3A3E0600F8EE1
:105A5800828F83A3A3A3E4F09003CFE014F0900314
:105A6800CEE014F070069003D074FFF08E828F831E
:105A7800A3A3E4F09004E1E0700D9003CFE064018B
:105A880070057900120E26EEFAEFFB120D5402543F
:105A9800CC74F71219B2EAFEEBFF8E828F83A3A3B0
:105AA800A3A3E0FA7B00120A1EEEFAEFFB120CA683
:105AB800120D3C0251C6C082C08378B57903888232
:105AC8008983A3E4F088828983A3A882A983E864F0
:105AD800BD7003E9640370E69003B6740102489749
:105AE80074F61219B2EAFEEBFFEC2403F8ED340069
:105AF800F988088909EC2407F8ED3400F9E8FCE98D
:105B0800FD8C828D83E0F8A3E0F9850882850983FE
:105B1800E0FAA3E0FB1218B7EE240DF582EF34008B
:105B2800F583E8F0A3E9F08C828D83E0F8A3E0F92F
:105B3800850882850983E0FAA3E0FB1218B78B0970
