:020000040000FA
:0600000002011A02238731
:03002B00022AEDB9
:030053000223FA8B
:03006B00022ABBAB
:100083000221F3E5C754F84401F5C77901220000C2
:100093000080FB120086B90003020104E479217891
:1000A30008B800028004F709D8FCE479297802B87B
:1000B30000028004F709D8FCE490028178F1790703
:1000C3008002F0A3D8FCD9FA781A90014A7A01BACF
:1000D30000028007E493A3F608DAF97A717B0990AA
:1000E300014B78C779048015E493A3AD82AE838A6C
:1000F300828B83F0A3AA82AB838D828E83D8E9D9C6
:10010300E77582EB7583B3740312012C75829175C5
:100113008300740012012C75D00075813F7518811E
:10012300751902759F00020096C09FF59FE473D076
:100133009F22D083D082C09FE493C0E0740193C018
:10014300E0740293F59F2201FF0000B40000280031
:100153002800283075A000A000A000A0000008001F
:1001630008E001F000100010001000100010001053
:100173000050005000500010001000D00700000095
:100183000000000F0001000500307507001000019A
:100193000081FF00000000FF0F072D071507FF0276
:1001A300020208025000A0000000E80302228101BD
:1001B3000000BC8102D981010000C80902DF81016E
:1001C3000000B30202D981010000C90902E18101E3
:1001D3000000C90202D981010000CA0902E38101BA
:1001E3000000CB0202D981010000CB0902E581089E
:1001F3000000CC0202D981010000CC0902E7810191
:100203000000CD09FF0100FF20022281010000CB85
:100213008102D981010000310A02E9810000000056
:100223000002DD810300001903E50CE50CE50CE594
:100233000CE50CE50CE50CE50CE50CE50CE50CE533
:100243000CE50C790F910F730FFFFF0A4163636590
:100253006C20456E61626C650000021400416363AB
:10026300656C2052616E6765000010101041636376
:10027300656C20582D436F6F7264696E61746500FD
:1002830000416363656C20592D436F6F7264696E1F
:100293006174650000416363656C205A2D436F6F81
:1002A3007264696E6174650000022281010000D4EA
:1002B3008102D981010000740A02EF810300005F0B
:1002C30007021B82010000750A02D9810100008325
:1002D3000A02F181010000840A021B8201000086E8
:1002E3000A02D981010000930A02F3810000006031
:1002F3000702DD810300006307021B8201000096F1
:100303000A02D981010000940A02098200000061F7
:100313000702DD810300006907021B82010000AAB6
:100323000A02D981010000950A02158200000062C9
:100333000702DD810300006F07021B82010000BE7C
:100343000A110199010F12640401022281010000C4
:10035300C28102D9810100006F0B021782010000E4
:10036300700B02DD810300007D0702EB81010000B9
:10037300710B020202020202020202010D000000DE
:100383001001022281010000D18102D98101000004
:100393009B0B020582010000840702D98101000042
:1003A3009C0B020382010000158102D98101000028
:1003B3009D0B020182010000078102D98101000027
:1003C3009E0B02FF81010000A58002D9810100007C
:1003D3009F0B02FD81010000B78002D9810100005B
:1003E300A00B02FB81010000938002D98101000070
:1003F300A10B02F981010000818002D98101000073
:10040300A20B02F781010000F98002D981010000EB
:10041300A30B02F581010000A40B01E803053F10C3
:100423000A0B094B6579666F6264656D6F0201059E
:100433000702031802180418544920424C45204B64
:100443006579666F620000000000000000871300FA
:10045300008D139313FF00013075030201060000A2
:100463000000000000000000000000000000000089
:1004730000000000000000000000FFFF0600800CE9
:10048300E8030A0412022281010000BF8102D9811C
:10049300010000AB0C0211820300006109022281FA
:1004A300010000C58102D981010000AC0C02118258
:1004B3000200006209022281010000CE8102D9817B
:1004C300010000AD0C021382010000630902DD810B
:1004D3000300006409104B65792050726573732023
:1004E300537461746500022281010000C88102D93E
:1004F30081010000FE0C021F820000006A0902DD78
:10050300810300006B09021B82010000FF0C120132
:10051300355DA10312013574A103120135A5A103B1
:10052300120135E0A1031201350AA2031201353489
:10053300A2031201354BA20312013562A203120179
:100543003579A203120135A2A203120135B5A20324
:10055300120135CBA203120135DEA20312013505C8
:10056300A303120135A4B302120135A8B402120188
:1005730035E0B40212013503B5021201350EB5029E
:1005830012013531B50212013540B602120135159B
:10059300B70212013590B70212013518B8021201E1
:1005A3003553B8021201358AB80212013518B9025F
:1005B300120135F1B90212013551BA021201355C4B
:1005C300BA02120135DBBA02120135DEBA02120198
:1005D30035E1BA0212013570BB0212013573BB0259
:1005E300120135A3BB02120135CDBB02120135BB8B
:1005F300BC021201356DBD0212013561E602120122
:100603003589E602120135B7E602120135EEE6023C
:100613001201354CE70212013597E702120135E268
:10062300E70212013522E80212013568E8021201DD
:100633003596E80212013553E9021201355DE902EC
:100643001201356AE9021201359DE9021201356989
:10065300EA0212013575EA021201358DEA0212012E
:100663003597EA0212013570AF031201357EAF03ED
:1006730012013596AF03120135AEAF031201359562
:10068300CA0112013541CB01120135BCCB01120164
:1006930035DDCC0112013519CD01120135C2CD0171
:1006A300120135A9CE011201350DD00112013564B5
:1006B300D001120135E5D001120135D5D101120166
:1006C3003522D201120135A8D201120135DAD20145
:1006D300120135EED40112013530D5011201354E28
:1006E300D501120135D1D501120135A5D60112016B
:1006F300356DD701120135A2D40212013575D50229
:100703001201351ED60212013571D60212013521AE
:10071300D702120135ADD70212013599D802120161
:1007230035C8D802120135DBD90212013523DA02AA
:10073300120135F8DA0212013534DB0212013550A9
:10074300DB0212013508B303120135AC8B0312012E
:1007530035C28B03120135E88B03120135048D0377
:100763001201350E8D03120135438E031201353B01
:100773008F031201353AE1021201356AE2021201D6
:10078300359DE202120135E7E202120135AEE402C1
:10079300120135A6BA0112013510BB011201356FE2
:1007A300BC011201357FBC01120135ACBC01120141
:1007B3003503BD01120135ACBD01120135B3BE01D4
:1007C3001201357DBF01120135DDC0011201352053
:1007D300C101120135C5C10112013512C201120155
:1007E3003538C20112013546C4011201354BC4012B
:1007F30012013550C6011201359DC6011201351093
:10080300C70112013543C701120135E5C7011201C2
:10081300358EC801120135C6C801120135C9C80198
:1008230012013511C90112013551C901120135A84F
:10083300C9011201355D9503120135759503120146
:1008430035BD9503120135D395031201351A96036D
:100853001201352E9703120135BB9703120135069A
:1008630098031201351C2B00120135282B001201AD
:1008730035632B00120135A82B00120135682C00BB
:10088300120135EE2C00120135532D001201357F74
:100893002D00120135B82D00120135F62F0012017B
:1008A30035DA3100120135C033001201350335004A
:1008B300120135513700120135633800120135AE8C
:1008C3003900120135BE3A00120135DB3A0012013C
:1008D30035163B00120135383B001201359B3B00B6
:1008E3001201355C4000120135F14000120135421E
:1008F3004100120135694100120135BB410012016B
:1009030035D941001201353342001201351C430031
:100913001201359244001201351645001201351EAD
:10092300EB0212013528EB021201356BEB021201C7
:100933003586EB0212013516EC021201353EEC024C
:100943001201357BEC02120135B2EC02120135DBE8
:10095300EC0212013550ED0212013565ED02120170
:10096300357AED02120135ABED02120135BFED020E
:10097300120135E4ED021201351EEE021201354A71
:10098300EE02120135D1EE0212013501EF0212011E
:10099300354AEF0212013574EF021201359FEF025F
:1009A3001201358CAA03120135A39B02120135D122
:1009B3009B021201351F9D02120135FF9D02120198
:1009C300351E9E021201359B9E02120135DE9E02E8
:1009D30012013534A002120135F5A0021201357C53
:1009E300A3021201351DA40212013513A50212013F
:1009F3003510A6021201356AA702120135F5A702C6
:100A030012013508A80312013571A803120135C577
:100A1300A803120135ECA8031201351DA903120125
:100A23003553F402120135C0F40212013507F50201
:100A33001201351FF6021201351BF702120135FEB2
:100A4300F70212013521F60112013563F601120195
:100A53003535F7011201350EF80112013508F90198
:100A6300120135EAF90112013553FA011201350970
:100A7300FB011201357DFB01120135E9FB01120176
:100A83003512FC011201358CFC0112013525FD01E3
:100A93001201358AFD011201359FFD01120135E571
:100AA300FD01120135FEFD0112013563FE01120144
:100AB3003566FE011201356492031201358C9203EF
:100AC300120135CA9203120135889303120135EFDF
:100AD30093031201350B940312013533940312016E
:100AE30035639403120135729403120135EF9403B5
:100AF30012013515950312013561AA011201353F23
:100B0300AC0112013571AE01120135ADAE01120116
:100B130035DAAE01120135C4AF011201350FB00150
:100B23001201355AB0011201356CB001120135AC16
:100B3300B001120135E1B0011201352FB1011201EB
:100B4300355EB10112013581B101120135CEB1011A
:100B530012013553B2011201356DB401120135ACE6
:100B6300B601120135EDB6011201358FB80112013C
:100B730035D0B80112013543B90112013599B901D4
:100B83001201359472001201359273001201352B54
:100B93007A001201354C7C00120135177E001201D8
:100BA300357F7F001201357D45001201352C46004B
:100BB3001201355946001201359F4600120135DFF7
:100BC3004700120135754900120135EF4900120142
:100BD300350A4A00120135854A00120135DF4B0000
:100BE3001201353F4D00120135454E00120135A665
:100BF3004F00120135BF4F001201351D5000120185
:100C0300350B51001201353E5100120135AE510032
:100C13001201352852001201357252001201353C7F
:100C23005300120135115400120135F05400120122
:100C3300357B5500120135E955001201355D56002B
:100C4300120135885600120135475700120135ACA1
:100C53005800120135C95800120135E85800120135
:100C630035D95900120135FE5900120135285A00B1
:100C7300120135A35A00120135FD5A0012013566DF
:100C83005C00120135145D00120135555D0012013F
:100C9300350080021201354E80021201355A80025E
:100CA3001201353881021201356981021201359A28
:100CB30081021201351A8202120135528202120197
:100CC30035A48202120135E18202120135FE84024B
:100CD3001201352487021201350F8902120135F9F9
:100CE3008A02120135112B001201354E96011201B1
:100CF300357E9601120135579D01120135DC9E01A7
:100D0300120135D9A401120135C1A501120135FE25
:100D1300A50112013521A60112013552A6011201C6
:100D2300355BA60112013565A60112013553A701F2
:100D330012013549A801120135855D001201358480
:100D430061001201358A6100120135C56800120184
:100D530035DE6D00120135DE870312013574880319
:100D63001201358A88031201350089031201357493
:100D73008903120135B28903120135268A03120150
:100D8300359F8A03120135A88A03120135B48A03F9
:100D9300120135C98A03120135078B031201351D70
:100DA3008B031201357C8B03120135C0F80212014B
:100DB30035CDF802120135E7F80212013526F902A2
:100DC30012013564F902120135C9F902120135DE47
:100DD300F902120135E9F902120135F6F90212019D
:100DE300350DFA021201351BFA0212013526FA02F9
:100DF30012013532FA0212013541FA021201354C61
:100E0300FA021201356FFA0212013516FB021201C2
:100E13003526FB0212013540FB021201355DFB0250
:100E230012013579FB021201359EFB02120135A92D
:100E3300FB02120135BEFB02120135D2FB02120185
:100E43003533FC0212013539FC021201353FFC0235
:100E530012013545FC021201355DFC021201359089
:100E6300FC02120135F7E7011201357BE80112019B
:100E7300352AE90112013589EA01120135AAEC018B
:100E830012013596ED01120135CBED01120135ED5D
:100E9300ED011201359CEE0112013594F0011201AE
:100EA30035BDF0011201354FF10112013581F10118
:100EB3001201358EF101120135E5F1011201350BF5
:100EC300F20112013578F4011201357BF5011201AB
:100ED30035D3F50112013586D90112013590DA01B6
:100EE30012013577DB0112013581DB01120135A3D4
:100EF300DB01120135AFDB0112013548DD011201BF
:100F03003577DD0112013593DE01120135ECDE0187
:100F130012013552E00112013531E1011201358D23
:100F2300E101120135FAE10112013535E201120145
:100F33003574E2011201352DE50112013547E50152
:100F4300120135D3E501120135E1E5011201353A0C
:100F5300E60112013548E601120135BBE601120133
:100F6300351FE70112013569E70112013576A80241
:100F730012013598A802120135BEAA02120135D317
:100F8300AD02120135EBAE021201359EAF02120122
:100F93003580B002120135C6A403120135EBA40358
:100FA3001201355DA503120135D4C502120135DDE9
:100FB300C502120135E6C502120135BDC602120192
:100FC300356EC802120135A4C802120135DEC8020B
:100FD30012013514C9021201354EC90212013582BC
:100FE300C902120135AEC902120135F7C902120155
:100FF3003531CA021201357ACA02120135D2CA0248
:1010030012013507CB0212013562CB021201359C66
:10101300CB02120135EDCB0212013523CC021201B2
:10102300355DCC021201358BCC02120135AECC02F8
:10103300120135C5B103120135F1B1031201354C6B
:10104300B20312013556B20312013566B20312011F
:1010530035C5DB02120135CFDB021201350DDC028F
:1010630012013556DC0212013590DC02120135E61D
:10107300DC0212013507DD0212013510DD02120117
:10108300355BDD0212013584DD021201358EDD028E
:10109300120135FADD0212013590DE02120135DA52
:1010A300DE021201350ADF0212013593DF0212015B
:1010B30035D3DF021201350BE0021201351DE002C8
:1010C3001201353CE00212013545E00212013510F0
:1010D300E102120135A9AC031201358CB3031201ED
:1010E300356E9F03120135A49F03120135DA9F0366
:1010F30012013523A10312013570B20312013586A3
:10110300B20312013590B203120135DAB2031201B0
:1011130035C7EF02120135DCEF021201358CF00204
:10112300120135CCF002120135E5F0021201351936
:10113300F10212013566F1021201359AF102120130
:1011430035DCF102120135E0F30212013546F402F7
:10115300120135A0AD03120135C9AD03120135F2F9
:10116300AD031201350AAE031201354CAE03120171
:10117300350484031201355F84031201357C840333
:101183001201358B8503120135D68503120135A172
:1011930086031201359187031201350DFD021201F9
:1011A3003544FD0212013563FD021201350EFE02C4
:1011B300120135A0FE0212013524FF021201358A05
:1011C300FE0112013509FF0112013519FF01120158
:1011D3003531FF0112013551FF01120135D5FF01F0
:1011E300120135E3FF0112013508B103120135295C
:1011F300B103120135BAB10312013530980312015C
:10120300355598031201357F980312013543B40312
:101213001201352482011201358884011201353906
:1012230086011201353B8701120135C48701120182
:10123300354888011201356D8801120135A68B01ED
:101243001201351A8C011201350B8D01120135453E
:101253008D01120135858D01120135388F0112017F
:10126300358B8F01120135D48F0112013542900164
:101273001201357490011201358C9001120135A1D0
:101283009101120135B19101120135CC9201120184
:1012930035EE9201120135249301120135C89401F0
:1012A30012013507950112013529960112013547BF
:1012B300B00312013558B003120135FDB00312011A
:1012C30035A97F00120135E87F00120135EAFF02DC
:1012D30012013591AE03120135A1AE03120135B6E9
:1012E300AE031201356AAF03120135A5AB03120138
:1012F300352AAC0312013590AC0312013563A903FF
:101303001201358AA903120135E0A903120135F24E
:10131300A90312013542AA0312013580AA0312015F
:101323003583AA03120135008003120135148003AB
:101333001201358D800312013562810312013534A8
:101343008303120135998303120135F083031201DC
:1013530035F87F00120135399D03120135C49E0310
:10136300120135259F031201356B9F031201354E80
:10137300CD021201352BCF0212013546D1021201E3
:1013830035E7D10212013506D2021201353BD302F1
:101393001201357BD302120135C3D3021201356B1F
:1013A300A603120135BBA60312013544A70312019C
:1013B30035AAA703120135FC9A03120135269B03B4
:1013C300120135EC9B03120135C79C03120135DE74
:1013D300BD021201359BBE02120135D6BE021201B7
:1013E30035FEBE0212013560BF02120135ACBF02E9
:1013F3001201350CC0021201359FC0021201359E45
:10140300C1021201352DC302120135B0C30212010C
:101413003517C4021201352EC40212013538C50234
:1014230012013576C502120135D48D02120135340D
:101433009102120135BC920212013513930212017B
:1014430035329302120135B09302120135409502F1
:10145300120135249602120135309A021201350029
:101463009B02120135458F03120135C38F0312010D
:1014730035E08F031201356990031201359490030F
:101483001201351D91031201352B920312013517F9
:10149300A3031201355CA303120135B0A3031201A8
:1014A300352EA4031201358DA4031201358AB4032A
:1014B300120135B6B403E066701008A3E066700A43
:1014C30008A3E066700408A3E06622C3E796080950
:1014D300E7960809E7960809E79622C3E09608A36A
:1014E300E09608A3E09608A3E09622C008C3E0961E
:1014F300F50808A3E096420808A3E096420808A36B
:10150300E09645087001D3D00822080808EAC0E035
:10151300EBC0E086F0E7A4FA180986F0E7A42AFAFC
:10152300180986F0E7A42AFA180986F0E7A42AFA2C
:101533001986F0E7A4FBE5F02AFA190886F0E7A478
:101543002BFBE5F03AFA190886F0E7A42BFBE5F04C
:101553003AFA18180986F0E7A4C5F02BFBE43AFA27
:101563001908E7C5F0C6A426F6E5F03BFBE43AFA12
:101573001886F0E7A4F6E5F00826F6E43B08F6E45F
:101583003A08F6D0E0FBD0E0FA22E4CFC0E0E4CEA4
:10159300C0E0E4CDC0E0E4CCC0E075F020E626F680
:1015A30008E633F608E633F608E633F6181818ECBF
:1015B30033FCED33FDEE33FEEF33FFC3EC9709ED60
:1015C3009709EE9709EF97191919400FFFEC97FC4C
:1015D30009ED97FD09EE97FE191906D5F0BFECF753
:1015E30009EDF709EEF709EFF7191919D0E0FCD067
:1015F300E0FDD0E0FED0E0FF2212166418181812A6
:10160300158D12165319191922121653191919087F
:101613000808E618181820E7E012158D121664184A
:10162300181822090909E719191920E7DC0808081D
:10163300E618181820E70302158D121664181818F7
:1016430012158D1216641818181216531919192227
:10165300E4C397F709E497F709E497F709E497F7E1
:1016630022E4C396F608E496F608E496F608E496B0
:10167300F6226017080808C6A2E713C618C613C6E1
:1016830018C613C618C613C6D5E0E92260160808A3
:1016930008C6C313C618C613C618C613C618C6137E
:1016A300C6D5E0EA2270090808082260161818183F
:1016B300C6C333C608C633C608C633C608C633C650
:1016C300D5E0EA22E627F60809E637F60809E63701
:1016D300F60809E637F622E026F608A3E036F60810
:1016E300A3E036F608A3E036F622E026F008A3E0EE
:1016F30036F008A3E036F008A3E036F022C3E697FD
:10170300F60809E697F60809E697F60809E697F654
:1017130022C3E096F008A3E096F008A3E096F00851
:10172300A3E096F022E657F60809E657F60809E61D
:1017330057F60809E657F622E056F608A3E056F6F0
:1017430008A3E056F608A3E056F622E056F008A3F5
:10175300E056F008A3E056F008A3E056F022E0F6C6
:1017630008A3E0F608A3E0F608A3E0F622E6F008F3
:10177300A3E6F008A3E6F008A3E6F022E0FAA3E06C
:10178300FBA3E0FCA3E0FD22EAF0A3EBF0A3ECF063
:10179300A3EDF022E0F8A3E0F9A3E0FAA3E0FB2233
:1017A300E8F0A3E9F0A3EAF0A3EBF022CAC0E0E675
:1017B300F0A308DAFAD0E0FA22CAC0E0E0A3C582B7
:1017C300CCC582C583CDC583F0A3C582CCC582C5F4
:1017D30083CDC583DAE6D0E0CA22C3E498F8E4995E
:1017E300F912181E8026C3E49AFAE49BFBE920E76A
:1017F300E912181EE498F8E499F922C3E498F8E48E
:1018030099F912181EE498F8E499F9C3E49AFAE4F2
:101813009BFB22EB20E7CFE920E7E0B90010BB00F8
:1018230008E88AF084F8AAF022E4FBC8FA22EB70F5
:10183300227B10C833C8C933C9335007C39AC3DBEB
:10184300F280069A50012ADBEAC833F4C8C933F49C
:10185300C9FA2275F008E4C833C8C933C933C99A31
:10186300C99B5004C92AC93BD5F0ECFBC833F4C863
:10187300E4C9FA22600D08C6A2E713C618C613C648
:10188300D5E0F322600C08C6C313C618C613C6D529
:10189300E0F422700422600D18C6C333C608C633B1
:1018A300C6D5E0F41822251810AF08F518400C151A
:1018B300198008F51840021519D2AF2200C0D025AF
:1018C3001810AF08F518500C05198008F5185002C8
:1018D3000519D2AFD0D0222518F58210AF08F5181C
:1018E300400C15198008F51840021519D2AF851957
:1018F30083222518F582E43519F583222518F8E4A7
:101903003519F9222518FAE43519FB222518FCE4C8
:101913003519FD22E4732518C582C0E0E51934FFAB
:10192300C583C0E0E518C3958224F810AF0885830A
:10193300198582188008858319858218D2AFCEF065
:10194300A3E520F0A37808E608F0A3DEFAEFF0A3FE
:10195300E58124FAF8E608F0A3E608F0A3E608F028
:10196300A30808E608F0A3E608F0A315811581D0C3
:10197300E0FED0E0F8158115811581E8C0E0EEC0E6
:10198300E0222518C582C0E0E51934FFC583C0E015
:10199300E518C3958224F910AF0885831985821849
:1019A3008008858319858218D2AFCEF0A3E520F095
:1019B300A37808E608F0A3DEFAEFF0A3E58124FBA1
:1019C300F8E608F0A3E608F0A30808E608F0A3E6A3
:1019D30008F0A315811581D0E0FED0E0F81581153C
:1019E30081E8C0E0EEC0E022851983851882E0A378
:1019F300FEE0A3F5207808E0A3F608DFFAE0A3FFF2
:101A0300E0A3C0E0E0A3C0E0E0A3C0E0E0A3C0E047
:101A1300E0A3C0E010AF088582188583198008858C
:101A23008218858319D2AFD083D0820201328519FF
:101A330083851882E0A3FEE0A3F5207808E0A3F6EF
:101A430008DFFAE0A3FFE0A3C0E0E0A3C0E0E0A367
:101A5300C0E0E0A3C0E010AF088582188583198039
:101A630008858218858319D2AFD083D08222C0D053
:101A73002518C582C0E0E51934FFC583C0E0E51829
:101A8300C3958224F310AF088583198582188008D3
:101A9300858319858218D2AFC8F0A3E9F0A3EAF0D1
:101AA300A3EBF0A37908E709F0A3D8FAECF0A3EDD0
:101AB300F0A3EEF0A3EFF0A3D0E0F0A3D0E0F0A307
:101AC300D0E0F0A3E520F0A3E5F0F0A3228519838D
:101AD300851882E0C0E0A3E0F9A3E0FAA3E0FBA34A
:101AE3007808E0F608A3DFFAE0FCA3E0FDA3E0FE3C
:101AF300A3E0FFA3E0C0E0A3E0C0E0A3E0F5D0A330
:101B0300E0F520A3E0A3F5F010AF088583198582E3
:101B1300188008858319858218D2AFD082D083D0EC
:101B2300E0F8D0E03274048006740280027401C0CD
:101B3300E0F4041218DAD0E01217AF227404800420
:101B430074028000CCC0E0EDC0E0E518C39CCCADCE
:101B53001950011D10AF068C188D1980068C188D35
:101B630019D2AF1217BCD0E0FDD0E0FC22D083D055
:101B730082E9C0E0E493A3C386F0C5F095F0F908C9
:101B8300E493A386F0C5F095F0700BE493A3C39997
:101B93004005E9048002A3E475F002A42582F582DE
:101BA300E5F03583F583D0E0F9E493A3C0E0E49353
:101BB300C0E022D083D082ECC0E0EDC0E0E493A388
:101BC300FCE493A3FDED4C600D121C02EC24FFFC1E
:101BD300ED34FFFD80EFE493A3FCE493A3FDED4C10
:101BE300600D121C41EC24FFFCED34FFFD80EFD0AF
:101BF300E0FDD0E0FCE493A3C0E0E493C0E022C0A6
:101C0300E0C3E49396087401939618400FE4936637
:101C1300700808740193661870007019A3A3C3E4D5
:101C23009396087401939618A3A3400DD0E0D0E0D7
:101C3300D0E0021BF2A3A3A3A3A3A3D0E022C0E09E
:101C4300C0F088F0E4936670080874019366187016
:101C530000A8F0A3A3700BD0F0D0E0D0E0D0E00256
:101C63001BF2A3A3D0F0D0E02274F5121985EAFE8B
:101C7300EBFFEE2434F8EF3400F988088909EE24E9
:101C830035F582EF3400F583E0F8EE2437F582EF83
:101C93003400F583E0F50AEC850AF0A4FCAAF0858C
:101CA3000AF0EDA42AFDE82CF8E43DF97A257B003F
:101CB30012181EEA850882850983F0F8740758F91B
:101CC3007401B900028004C333D9FCFAE813131377
:101CD300541FF8EE28F8EF3400F9E8245DF582E9A3
:101CE3003400F583E05A6008EE2434F582EF802C4B
:101CF300EE2434F582EF3400F583E0C0E0EE2436C1
:101D0300F582EF3400F583E0F5F0D0E084A8F0EE3F
:101D130028F8EF3400F9E82438F582E93400F58334
:101D2300E0F97F04021A3174F5121985EAFEEBFF1C
:101D3300EE2434F582EF3400F583E0C0E0EE243581
:101D4300F582EF3400F583D0E0F08E828F83A3A376
:101D5300A3A3A3A3A3C082C0838E828F83A3A3A3C1
:101D6300A3A3E0F8A3E0F9D083D082E0C398F508F9
:101D7300A3E099F509EE247FF582EF3400F583E0C3
:101D830064017069EE2480F582EF3400F583E0F896
:101D9300A3E0F98E828F83A3A3A3A3A3A3A3E0FC51
:101DA300A3E0FD8E828F83A3A3A3A3A3E0FAA3E002
:101DB300FBC3EA9CEB9D5010C3EC98ED99402EC3F6
:101DC300EA98EB995027800EC3EA98EB994007C332
:101DD300EC98ED9940177CDC7D04EEFAEFFB120CD6
:101DE30043EE247FF582EF3400F583E4F0EE2434F0
:101DF300F8EF3400F9E8FCE9FDEE2435F582EF3421
:101E030000F583E0F8EE2437F582EF3400F583E044
:101E1300F50AE508850AF0A4F508AAF0850AF0E5B5
:101E230009A42AF509E82508F8E43509F97A257B98
:101E33000012181EEA8C828D83F0F8740758F97427
:101E430001B900028004C333D9FCFAE81313135415
:101E53001FF8EE28F8EF3400F9E8245DF582E93441
:101E630000F583E05A6008EE2434F582EF802CEE0F
:101E73002434F582EF3400F583E0C0E0EE2436F538
:101E830082EF3400F583E0F5F0D0E084A8F0EE288B
:101E9300F8EF3400F9E82438F582E93400F583E0FB
:101EA300F9122AA7021D25C082C0838518828519CD
:101EB30083E0F8A3E0F9C3EA9CEB9D5010C3EC98D0
:101EC300ED99401BC3EA98EB995014800EC3EA982E
:101ED300EB994007C3EC98ED9940047901800279AE
:101EE30000D083D08222EAC39CFAEB9DFB2274EFDD
:101EF3001219859003A2E064086005E06407702A64
:101F03009061C8E060249003D0E0F4601DE0F875B0
:101F1300F003A4C8AAF02AF974D228FE740339FF87
:101F23008E828F83A3A3A3E07003022021906060BD
:101F3300E0C0E0EE2468F582EF3400F583D0E0F0F2
:101F4300750C45750D05750800750900E5D914F57F
:101F53000AE5D95403F50E60177403650E605CE55A
:101F63000A6010EE2467F582EF3400F583E0700316
:101F7300022006900540E06401602AEE2482F58287
:101F8300EF3400F583E06004780480027800850A6A
:101F930008E508C398FA95E0FB120B0B8A088B0936
:101FA300EA45097005120E478074EE2482F582EF2C
:101FB3003400F583E070048A0C8B0DE50A6012850A
:101FC3000C82850D83F50BE5D9F0A3150BE50B709A
:101FD300F6EE2482F582EF3400F583E0604474FC6E
:101FE300250AF50A780C121B2CAC0AA90EEEFAEF9F
:101FF300FB120CDF74021218BFE97026AA08AB09A2
:102003001213A5793D8E828F83A3A3A3A3E0FA7B4A
:10201300001209DFEEFAEFFB120C5B120CF17900F0
:1020230080747403650E6056850A1075110078106C
:10203300121B2CAC0CAD0DAA08AB09120CBB74021D
:102043001218BFEE2468F582EF3400F583E0648054
:102053007004747F8001E0F50C780C121B30E50EE0
:10206300F50C780C121B30A90AAC08AD099003D00B
:10207300E0FA7B001209A374021218BF80139003C5
:10208300A2E06408600BAC0CAD0DEEFAEFFB120D91
:102093004B120E5379017F0A021A3174F512198516
:1020A30074FC1218A9EAFEEBFF8908A2AFE433F52A
:1020B30009C2AF806AEE2463F8EF3400F97A007B3B
:1020C30000A2AFE433F50AC2AF88828983E0FCA3A0
:1020D300E0FDEC4D603A88828983E0FAA3E0FB8A55
:1020E300828B83E0FCA3E0FD88828983ECF0A3ED7F
:1020F300F08A828B83E4F0A3F088828983E0FCA3D7
:10210300E0FDEC4D700A88828983A3A3E4F0A3F079
:10211300E50AA2E092AF1213A59004E3E004F0EE07
:102123002463F582EF3400F583E0F8A3E0F9E8498E
:10213300603DEE2463F582EF3400F583E02402FA78
:10214300A3E03400FBEA2402F50AEB3400F50B7834
:102153000A121B2C8A828B83E0FCA3E0F9EEFAEFD0
:10216300FB120C7F74021218BFE970030220B890AF
:1021730004E3E060639004E4E0F89004E3E0C398D0
:10218300500C7402650870509004E5E0604A8E823A
:102193008F83A3A3A3A3E0851882851983F0A3E407
:1021A300F09004E3E0F874021218F5E8F0A3E4F009
:1021B3009004E3E0F89004E2E028F074021218F5CA
:1021C300AC82AD83851882851983AA82AB8379019A
:1021D3001209AF9004E3E4F0E509A2E092AF7404BE
:1021E3001218BF021D250000008521878522C62203
:1021F300C0E0C0D0E8C0E0E9C0E0EAC0E0EBC0E086
:10220300ECC0E0EDC0E0EEC0E0C008C009C00AC009
:102213000BC082C083C0F0A2AFE433FEC2AF759B94
:1022230000906182E0A2E05012E591A2E0500C75AB
:1022330091FE740165217003121EF1E0A2E5505175
:10224300E591A2E5504B7591DF9003A2E06407602E
:1022530005E06408702374016521703579019003EA
:10226300D0E0FA75F003A4CAA8F028FB74D22AFAC6
:1022730074033BFB12209E8018E0640D70139003DF
:10228300C4E004F064287002E4F07A00E0F9120E6E
:1022930059906182E0A2E6400302233AE591A2E667
:1022A300400302233A7591BF9003A2E064057008CE
:1022B300120D81120D8D8003120D87752100120DF1
:1022C300E7E99003A3F07900120DDB120BB97A0151
:1022D3007B009003A1E0F91210AB907803E0644215
:1022E3007055900544E014F0704DC2AF1222F20015
:1022F300782AD0E0F618D0E0F6E59F54077005750C
:1023030009FF800375097FC4C0E07829E6F5080852
:10231300E65509F509740B7808121887D0E02508EB
:10232300F8906270E0A2E740F8E8C333906272F07D
:10233300906270E0D2E0F0906181E0A2E35009E5A1
:10234300E9A2E3500375E9F7A3E0A2E75009E59199
:10235300A2E7500375917FEEA2E092AFD0F0D08355
:10236300D082D00BD00AD009D008D0E0FED0E0FD57
:10237300D0E0FCD0E0FBD0E0FAD0E0F9D0E0F8D038
:10238300D0D0E032C0E0C0D0C082C083906183E08F
:10239300A2E05009E5BFA2E0500375BFFEE0A2E151
:1023A3005009E5BFA2E1500375BFFDE0A2E2500969
:1023B300E5BFA2E2500375BFFBE0A2E35009E5BF0E
:1023C300A2E3500375BFF7E0A2E45009E5BFA2E41E
:1023D300500375BFEFE0A2E55009E5BFA2E5500346
:1023E30075BFDFE0A2E65009E5BFA2E6500375BF63
:1023F300BFD083D0828088C0E0C0D0E8C0E0E9C00D
:10240300E0EAC0E0EBC0E0ECC0E0EDC0E0C0F0E526
:10241300A7A2E6500FE5A1A2E6500953A7BF75A1F5
:10242300BF12245FE5A7A2E5500CE5A1A2E5500683
:1024330053A7DF75A1DFE5A7A2E15009E5A1A2E15A
:10244300500375A1FDE5A7A2E2500CE5A1A2E2505D
:102453000653A7FB75A1FBD0F002237074F8121981
:10246300857521019003A2E064067015120D0F8A91
:10247300828B83A3A3A3A3A3A3E0FAA3E0FB120D80
:102483006FA2AFE433FED2AF9003A8E064017018EB
:102493007A207B009003A1E0F91211357A207B00AA
:1024A3009003A1E0F91210B1906182E0D2E6F090BE
:1024B3000541E0602185C62280169003A7E06401F0
:1024C3007008E5C654F84405F5C653BEFC1221EC6A
:1024D3007401652160E4EEA2E092AF7F01021A313C
:1024E300008E238F2485822885832785188285196A
:1024F30083E0CEA3E0CF852882852783EBC9EAC892
:10250300EDCBECCA75F010C3E833C8E933C9EA333D
:10251300CAEB33CBC3EA9EF526EB9FF525B35004F4
:10252300AB25AA26EC33CCED33CDD5F0DAAE23AF11
:10253300242274E912198574F81218A98518828562
:102543001983ECF0A3EDF08A088B099003A2E02431
:10255300F7C3940550067508010226CC120D0F8AA5
:102563000A8B0BAE0AAF0BEE4F70030226C9AC0801
:10257300AD0974021218F5AA82AB83120D9F8E82E5
:102583008F83A3A3750CFF750DFF750EFF750F00E9
:10259300780C12173B74021218F57510FF7511FFB2
:1025A3007512FF751300781012173B780C7910120F
:1025B30014CE502A780C791012170075080175098A
:1025C300C8750A00750B007808790C1214CE5052A6
:1025D300850C08850D09850E0A850F0B805075142F
:1025E300017515C875160075170085100885110942
:1025F30085120A85130B7808790C12170078147961
:10260300081214CE401C750800750900750A007580
:102613000B01780879101217007808790C1216C785
:10262300800C750801750900750A00750B007409A3
:1026330078081216A8750C19F50DF50EF50F780824
:10264300790C12158D8E828F83A3A3A3A3A3A3E07A
:10265300F8A3E0F97AD07B0312181E880C890DE4E5
:10266300F50EF50F7808790C1216C774061218F5D3
:10267300E0F8A3E0F97AD07B0312181EE8FA8A0C7B
:10268300E4F50D7808790C1214CE50077808790C0C
:102693001217009003A2E06408600AE06406600574
:1026A300E06405702D750C0D780C79081214CE407A
:1026B30021750CF4750DFF750EFF750FFF78087902
:1026C3000C1216C7800C750800750900750A007591
:1026D3000B00851882851983E0F8A3E0F5838882CF
:1026E300780812177074081218BF7F10021A317419
:1026F300F7121985120DB190053FE0640170109037
:102703006245E4F0A3F053F4F343FE0C5390F31249
:102713000D5DE5C654804449F5C6E59E547F644982
:1027230070F8906185740FF090053DE0F47002A39A
:10273300E0604E90053EE0600814601B14602E803C
:102743004075080175090090053DE0780812189658
:10275300E508F45280802A75080175090090053D4B
:10276300E07808121896E508F45290801475080171
:1027730075090090053DE07808121896E508F452B3
:10278300A079007F02021A3174F7121985E9FEEA73
:10279300FF74016E700C7A807B009003A1E0F91244
:1027A30010AB902B14E493F46008E493F9120BAD8F
:1027B300800953C680E59E547F70FA120D6390051D
:1027C3003FE064017003120BC590053DE0F4700215
:1027D300A3E0604B90053EE0600814601A14602C7F
:1027E300803D75080175090090053DE078081218D1
:1027F30096E5084280802875080175090090053D1B
:10280300E07808121896E508429080137508017560
:10281300090090053DE07808121896E50842A012D9
:102823000DB1120D0F8A088B09A808A909E84960A0
:1028330015E5E170FCE82414F582E93400F583E042
:10284300F46003E0F5E174016F700A7A019003A16B
:10285300E0F912110502278674ED1219858A088B97
:10286300098C0A8D0B74131218F5780C1217617802
:1028730008790C1214CE7510017511C87512007504
:10288300130050127808790C121700781079081287
:1028930014CE50168010780C79081217007810792E
:1028A3000C1214CE40047901800279007F0C021AC5
:1028B3003174ED1219858A088B098C0A8D0B7413F8
:1028C3001218F5780C121761780C79081214CE409F
:1028D300117808790C121700AA08AB09AC0AAD0BE2
:1028E30080227510007511007512007513017810A0
:1028F300790C121700781079081216C7AA10AB11B9
:10290300AC12AD1380A68A828B837508FF7509FF0D
:10291300750AFF750B00780812174E7F04021A31EF
:1029230074F51219858C828D8378081217618A8257
:102933008B837808121714EA2404F8EB3400F98C1B
:10294300828D83A3A3A3A3E0FCA3E0FD88828983F4
:10295300C3E09CF0A3E09DF088828983C3E09420C8
:10296300A3E0944E40268A828B837508FF7509FF86
:10297300750AFF750BFF78081216ED8A828B83A305
:10298300A3A3A3E02420F0A3E0344EF002290974AA
:10299300F5121985E9FE9004F7E0FAA3E0FBEEC314
:1029A30033F8E433F974C928F582748039F583E088
:1029B3002AF508A3E03BF5097808121B2C7A407B23
:1029C300427C0F7D001224E474021218BF8A088B24
:1029D300098C0A8D0B7410780812168FAA08AB099C
:1029E3007F04021A3174F11219858A0C8B0D8C0E37
:1029F3008D0F740F1218F5E0FAA3E0FB741112188F
:102A0300F5E0F508A3E0F5097808121B2CEA240188
:102A1300F508EB3400F509E4F50AF50B780C7908B1
:102A230012150D750871750902780C790812150DC8
:102A3300AA0CAB0DAC0EAD0F1224E474021218BF36
:102A43008B09EA450960047A0180027A00EC2AFCCA
:102A5300ED3400FD74131218F5E0F8A3E0F9E8FE75
:102A6300E9FFECF8EDF97A717B0212181E880889E8
:102A7300098E828F837808121770ECF8EDF97A715A
:102A83007B0212181E8A088B09740578081218969F
:102A93008E828F83A3A3A3A3E508F0A3E509F07FA8
:102AA30008021A31C082C083E9906000F0D083D05D
:102AB3008222C2AF02000022C0E074F2121A71A295
:102AC300AFE433FED2AFE589A2E04006E589A2E197
:102AD3005003121315758900758900C2C5751A0054
:102AE300EEA2E092AF7F01021AD0C0E0C0D0E8C0EE
:102AF300E0E9C0E0E5A8D2AFC2C7751A00A2E7A219
:102B0300E792AFD0E0F9D0E0F8D0D0D0E0320201C4
:102B130032FFFFFFFFFFFFFFFFC082C083E9900A80
:102B230030F0022DAB74F7121919E99002E1F07C31
:102B3300197D037AFF7BFF1208F59002E274FFF020
:102B4300A3F0A3E4F0A3F0790512087D9002E1E07D
:102B5300F912079F7A137B09120ABD7F010219EB51
:102B630074F41219198A088B09EB548060309002AF
:102B7300E1E0F91210938A0A8B0BAE0AAF0BEE4F0A
:102B830060138E828F83E064B07003120895EEFAAF
:102B9300EFFB121081AA08E5096480FB80047A0028
:102BA3007B00022D7A74F212191974FC1218A9EA27
:102BB300FEEBFFEE4F603874021218F5EEF0A3EF50
:102BC300122FDFECF0A3ED122FDFAA82AB831207E3
:102BD30099E9F508707374121218F5123B93E50A1C
:102BE300450B60658E828F83122C56EE4F700575F0
:102BF300080280557A067B001210ED8A0C8B0DA813
:102C03000CA90DE8497005750813803D88828983F6
:102C1300E4122C60A3A3EEF0A3EF12402CE50AF01C
:102C2300A3E50BF09002E7122CE89002E76017E0AF
:102C3300FCA3E08003EAFCEBFD8C828D83122CE87D
:102C430070F38C828D83123AB8A90874041218BFEA
:102C530002422EA3A3A3A3E0FEA3E0FF22F0A3F06E
:102C6300888289832274F2121919890AE975F01787
:102C7300A4FEAFF09002E6E4F09002E4122CE860C8
:102C83000A1210F39002E4E4F0A3F0EEFAEFFB1261
:102C930010ED8A088B09EA4509602FEEFCEFFD79F8
:102CA3000012106F9002E4E508F0A3E509F07B0041
:102CB3008008122CD2E4F0A3F00BEBC3950A40F288
:102CC300E50A9002E6F079008002791302422EEBC6
:102CD30075F017A4F8A9F09002E4E028FAA3E0390C
:102CE3008A82F5832212384EEA4B2274F4121919A0
:102CF300750800750900740C1218F5124000FEE9FE
:102D0300FF800CE5082401F508E5093400F509C343
:102D1300E5089CE5099D503285080A85090B740373
:102D2300780A121896EA250AF8EB350BF988828996
:102D330083A3A3A3A3A3A3123B93EE650A7003EF9C
:102D4300650B70BFE8FAE9FB80047A007B008027FB
:102D530074F41219197900EAA2E0501B750838754A
:102D630009817808121B2C7C047D007A327B0A12BD
:102D7300087774021218BF7F040219EBC082C08364
:102D83009002E7122DB2601C88828983A3A3E06AB4
:102D93007003A3E06B8882898370E8A3A3A3A312C3
:102DA300384A80047A007B00D083D0820201321239
:102DB3004301E8492274EE12191974FC1218A9EAA6
:102DC300FEEBFF851882851983E4F0A3F0EE24025D
:102DD300123A9CEE2405122FCDEE2404F50EEF12C9
:102DE30033B2E024FE603924FC604624FE605224A2
:102DF300FE605E24FE7003022ED224FE7003022FB7
:102E03004A24FE7003022F5924FE7003022F682404
:102E1300FC7003022F7724FE7003022F86022FC358
:102E23009003007417F0A3E4122FE7120517022F83
:102E3300C3851882851983AC82AD8312089B022F48
:102E430093851882851983AC82AD831208A1022F62
:102E530093850C08850D0974021218F5AC82AD83B5
:102E630085088285098312384A1207BD8A0C8B0DA7
:102E7300AC0CAD0DEC4D6042E4F50CF50D780C1285
:102E83001B2C750C00750D03780C121B2C750C0193
:102E9300750D03780C121B2C74081218F5121B43C2
:102EA30079161238441208DD74081218BFE9F50CBC
:102EB300700B12384012052F800F750C01850882A4
:102EC300850983122FD5123AB8850C08022F967400
:102ED300021218F5AC82AD83850C82850D831238FE
:102EE3004A1207BD8A108B11AC10AD11EC4D604333
:102EF300850C82850D83A3A3121B437510007511E6
:102F0300037810121B2C7510017511037810121B16
:102F13002C74081218F5121B437916123844120840
:102F2300DD74081218BFE9F509700B123840120559
:102F330035800F750901850C82850D83122FD512FB
:102F43003AB8850908804C851882851983AC82AD0F
:102F5300831208A7803A851882851983AC82AD83D2
:102F63001208AD802B851882851983AC82AD83123C
:102F730008B3801C851882851983AC82AD8312083F
:102F8300B9800D851882851983AC82AD831208BF81
:102F9300E9F508E50860298E828F83A3E064146055
:102FA3001F850E82850F83E0900300122FDF1242EC
:102FB300FD900301123AB8E508A3122FE712051199
:102FC300EEFAEFFB12083B0239A4F50CEF3400F5DF
:102FD3000D2212430185188285198322F0851882F8
:102FE30085198322F07C007D03850A82850B831279
:102FF300384E2274EE12191974FC1218A98A0A8B1E
:103003000B8C0E8D0FEA2405F508EB3400F5097CD3
:10301300157D0079007A007B0312106FE508240206
:10302300F50CE509122FD085188285198385821046
:103033008583117810121B2C850882850983A3A32D
:10304300A3A31234FA121B2CE5082405F510E50995
:103053003400F5117810121B2C850C82850D831218
:1030630038541207B774061218BF8A108B11AE10AA
:10307300AF11E50A2402F50AE50B123A9FEE4F70F1
:10308300030231BC801774021218F512384A888281
:103093008983EAF0A3EBF0900300E004F0900300CF
:1030A300E0C3940540030231BCE4F510F511781038
:1030B300121B2C7510E97511027810121B2C751058
:1030C300EA7511027810121B2C74061218F5121BE4
:1030D300437910EEFCEFFD1238441208DD74081238
:1030E30018BFE9705E850882850983A3A3A3A3A300
:1030F300A3A3E0F89002E9E06870481234FA121BC7
:103103002C7CEA7D02E5082408FAE5093400FB1269
:10311300106974021218BFE960298E828F83A3A3FA
:10312300A3A312384A900300E0F51074027810123A
:10313300189674012510F58274033511F583EAF0AE
:10314300A3EBF074021218F58582108583117810B1
:10315300121B2C74021218F5121B43850C82850D69
:10316300831243121207C374041218BF8A108B11FF
:10317300AE10AF11900300E0F510751100740278E2
:103183001012189674002510F874033511F988820B
:103193008983A3122CE87003023080E82403F8E942
:1031A3003400F9EE4F60030230898882898374FF0B
:1031B300F0A3F0900300E004F0900300E0600A1233
:1031C30038401205237900800B8508828509831214
:1031D3003AAF790A0239A474EA12191974FE121863
:1031E300A98C128D13EA2405F50CEB12447C122CE6
:1031F3005A750800750900EA2402F510EB3400F54E
:103203001185188285198385820A85830B780A12B2
:103213001B2C850C82850D83A3A3A3A31233BC129D
:103223001B2CE50C2405F50AE50D123A9F780A12CA
:103233001B2C850C82850D831243101207B774066D
:103243001218BF8A0A8B0BEA450B700302336DEA2F
:103253002404F50EEB1233B2122C5A8A828B83A309
:10326300A3A3E0F985108285118312384A1207A5BA
:10327300E9F509600302336DE4F514F515781412CA
:103283001B2C7514E97515027814121B2C7514EA9E
:103293007515027814121B2C74061218F5121B43B1
:1032A3007913AC0AAD0B85108285118312384A124B
:1032B30008DD74081218BFE9F509600302336D9045
:1032C30002E9E0F8E5087009E02402900301F080C8
:1032D30017900301E0FCE82402FAE43400FBEA6CF3
:1032E3007001EB6003023371850882AA821234F104
:1032F30094141234E95073850E82850F83E0C0E085
:1033030074022A1233A9D0E0F00508850E82850FD6
:1033130083A3E0C0E085080A7402250A1233A9D00A
:10332300E0F005089002E91233BC121B2C7CEA7D05
:103333000285080A7402250AFA74033400FB12108A
:103343005774021218BF9002E9E02508F50874FFCC
:103353006E700374FF6F6012EE24010EEF3400FFF2
:10336300E508C394145003023204E50860131237CE
:103373003585108285118312384A12052979008018
:1033830014E509700375090A851282851383EEF02B
:10339300A3EFF0A90974021218BF7F0E0219EB857F
:1033A300080C7402250CF58274033400F58322346F
:1033B30000F50F850E82F5832212403F2274EE1230
:1033C300191974FE1218A98C0E8D0FEA2405F50C39
:1033D300EB122FD0750B00900300E4F0F50AEA24FA
:1033E30002F508EB3400F5098049900300E0FA90F8
:1033F30002E9E0F81234F194171234E9400D900316
:1034030000E0F87416C3989002E9F01234FA121B24
:103413002C7CEA7D0274012AFA74033400FB121037
:103423005774021218BF9002E9E0F8900300E028F5
:10343300F0050AE50C2416F582E50D1233ADE0F82C
:10344300E50AC39840030234D2900300E0C3941604
:10345300507DE50AC333F8E433F9E50C28FEE50DA6
:1034630039FF851882851983AC82AD838E828F8361
:1034730012384A1207BD8A108B11AC10AD11EC4DF6
:103483007005750B018043E4F510F5117810121BDC
:103493002C7510E97511027810121B2C7510EA7542
:1034A30011027810121B2C74061218F5121B4379A3
:1034B3001685088285098312384A1208DD740812BA
:1034C30018BFE9F50B70030233ED123AAB80107CA1
:1034D300007D0385088285098312384A12053BA9BA
:1034E3000B74020239A6E99400C365D03322EA289B
:1034F300F8E43400F9E822E0F510751100781022A1
:1035030074EA12191974FC1218A98A0C8B0D8C1207
:103513008D13EA2405F50AEB123A9F750800750925
:1035230000E50A2402F510E50B3400F511740212CC
:1035330018F585820E85830F780E121B2C850A825F
:10354300850B83A3A3A3A3123FEB121B2CE50A2431
:1035530005F50EE50B3400F50F780E121B2C8510C4
:1035630082851183123AA51238441207B7740612E2
:1035730018BF8A0E8B0FAE0EAF0FE50C2402F50EAB
:10358300E50D3400F50F80408882898374FFF005D0
:10359300081233A274FFF005089002E9E0F50C75F8
:1035A3000D00780C121B2C7CEA7D0285080C74023A
:1035B300250CFA74033400FB12105774021218BF5F
:1035C3009002E9E02508F508EE4F60718E828F8343
:1035D300A3A3A3E0F9850E82850F8312384A12074D
:1035E300A5E9F509EE2404122FCDE97044E4F5149E
:1035F300F5157814121B2C7514E97515027814123D
:103603001B2C7514EA7515027814121B2C740812FE
:1036130018F5121B437911EEFCEFFD850E82850F21
:103623008312384A1208DD74081218BFE9F50960DD
:1036330027850C82850D8312372B123AB8E5087063
:1036430003023711123735850E82850F8312384AEC
:103653001205417900023726850882AA82EA900280
:10366300E97009E02404900301F08022E0F890035C
:1036730001E0F514E82404FCE43400FDEC65147067
:1036830001ED70C01234F194121234E950B6850C76
:1036930082850D83E0C0E074022A1233A9D0E0F0E2
:1036A3000508850C82850D83A3E0C0E01233A2D008
:1036B300E012374785820C85830D780C121B2C741E
:1036C300041218F5121B43851082851183124312CD
:1036D3001207C374041218BF8A0C8B0DAE0CAF0D06
:1036E30085080C7402250CF874033400F9EE4F704E
:1036F3000302358B851882851983E08882898312BA
:103703003747A3E0C0E01233A2D0E0023599E509C0
:10371300700375090A850A82850B8312372B123AC7
:10372300B8A909740402339A1243018512828513DE
:103733008322900301E0F5F0E50884900300F07C18
:10374300007D0322F005088518828519832274EC15
:1037530012191974FE1218A98A088B098C0E8D0F81
:10376300EA2405FEEB3400FF851882851983AC82B9
:10377300AD838E828F8312384A1207BD8A0A8B0B60
:10378300EE2418122FCDEA450B700302381B1239B1
:103793008D503285188285198312384A1208D18ACE
:1037A300108B11EA4511606B7912AC0AAD0B8508D9
:1037B3008285098312384A8510828511831219176D
:1037C300E9F50A7058E4F50AF50B780A121B2C8EFA
:1037D300828F83A3A3E0F50A780A121B2CEE24033D
:1037E300123A9C780A121B2C8E828F831238541241
:1037F30008E374061218BFE9F50A7021850C828567
:103803000D83E0701F85088285098312384A1205EB
:10381300478011750A0E8009750A018004E50A6064
:1038230003123AAB850C82850D83E0600479008036
:1038330002A90A74021218BF7F0C0219EB7C007DE7
:1038430003850A82850B8312384E22E0FAA3E0FB3C
:1038530022E0FCA3E0FD85088285098312384E220D
:1038630074EE12191974FE1218A98A088B098C0CAC
:103873008D0DEA2405FEEB3400FF750E00851882DA
:10388300851983AC82AD838E828F8312384A1207E7
:10389300BD8A0A8B0BEA450B700302397912398D05
:1038A300503585188285198312384A1208D18A0E39
:1038B3008B0FEA450F605E7912AC0AAD0B85088267
:1038C30085098312384A850E82850F83121917E9F9
:1038D300F50E600302397C850882850983123B93C8
:1038E300AA0AFB1208C58A108B11A810A911E8496E
:1038F300701E7AFF7BFF1208C58A108B11A810A9CE
:1039030011E849606C88828983E50AF0A3E50BF02E
:10391300750A008007750E0E805F050A9002E6E0C7
:10392300FAE50AC39A504AE50A75F017A4FAABF010
:1039330088828983A3A3E02AFAA3E03BFB8A828BD4
:1039430083123AA5EC4D70D2750A17750B00780AED
:10395300121B2CEEFCEFFD12105774021218BFEE6F
:10396300FCEFFD85088285098312384A12054D80D4
:1039730014750E098003750E011242F9850C8285B8
:103983000D83123AB8A90E0234E4E5082402F508BF
:10399300E5093400F5098A828B83A3A3A3E0A2E59A
:1039A3002274041218BF7F0A0219EB74EC1219195E
:1039B3008C108D11EA2405F50CEB122FD0750F0036
:1039C300EA2402F50AEB123A9F850A82F58312383C
:1039D3004A1208C58A088B09EA45097003023A911D
:1039E300750E008071850C82850D83E06401704F34
:1039F3008E828F83A3A3121B438E828F83A3A3A3E1
:103A0300A3E0F5127513007812121B2CEE2405F5B2
:103A130012EF3400F5137812121B2C1238441208DB
:103A2300E374061218BFE9F50F6014850C82850D47
:103A330083E4F01242F9851082851183123AB87C2F
:103A4300177D007900EEFAEFFB12106F8E828F83E1
:103A5300E4F0A3F0050E9002E6E0F8E50EC39850FB
:103A63001EE50E75F017A4F8A9F085088285098371
:103A7300A3A3124486123AA5EC4D60030239E885EC
:103A8300088285098374FFF0A3F0E50F70061238EE
:103A930044120553A90F02383BF50AEF3400F50B26
:103AA30022A3E0FCA3E0FD228E828F8312430185D3
:103AB3000E82850F83E8F0A3E9F022C082C08390D1
:103AC30002E2E06A7003A3E06B70067AE27B028095
:103AD300047A007B00022DABC082C08378008C8205
:103AE3008D83E06A7003A3E06B7010E875F003A4A4
:103AF300F8A9F0EC28FAED39FB8015088C828D8348
:103B0300A3A3A3E06A7003A3E06B60DF7A007B00EA
:103B1300022DAB74F612191912088F8A828B83E572
:103B230082458370067A007B008007A3A3A3A312B8
:103B3300384A0241AA74F2121919E9FE740E1218D6
:103B4300F5123B9374101218F512400B8C828D837F
:103B5300E064027036A3124307F50CA3E0F9A80C46
:103B630074026870037429697021750C02750D0065
:103B7300780C121B2C7808121B2C780A121B2CEEC3
:103B8300F912090774061218BF8002790102422E46
:103B9300E0F50AA3E0F50B2274E812191974FB127D
:103BA30018A9E9851882851983F08A168B17ECFE0C
:103BB300EDFF751000741D1218F51242FD741D12ED
:103BC30018F5123AB88E828F83A3A3A3E0A2E45020
:103BD3002D741D1218F512384A1208D18A828B836C
:103BE300E58245837003023FDC790AEEFCEFFDAA10
:103BF30016AB17121917E9F5106003023FDF741FA4
:103C03001218F512400B74211218F5123B9374230A
:103C13001218F5E0F50EA3E0F50F8E828F83E064B2
:103C2300026003023F8AA31242FD8508828509834D
:103C3300A3858212858313EE2406122FCD888289F1
:103C430083E0FAA3E0F9EA2400F514E439F51578E2
:103C530014121BB60100002801287F3C070002282C
:103C6300443D0328B13C00297B3E0129A63E02299D
:103C7300473E03297B3E0429253F8A3FE50E450F36
:103C83006003023F85850C82850D83124000FAE9AB
:103C9300FB8A828B83E0850A82850B83124036126E
:103CA3001B2C8A828B83A3E0FCA3E0023F0FE50E6B
:103CB300450F6003023F85850A82850B837401F0FB
:103CC300124013850882850983F07C007D008E8273
:103CD3008F83A3A3A3A3E02401FAA3E03400FB1280
:103CE30007BDEA4B60418A828B83E02402F8850A90
:103CF30082850B83E028F0EA2404F8EB3400F9888A
:103D0300828983E0851282851383124048124036EC
:103D1300121B2C8A828B83123AA4E5082403FAE54A
:103D2300093400FB023F14850A82850B83E02404D7
:103D3300F07C047D007900AA12AB1312106F023FCE
:103D4300DFE50E450F6003023F85124013FEA3E03B
:103D5300FF850A82850B837404F0EE85088285094A
:103D630083F0EF851282851383F074031218F5AC88
:103D730082AD83EEFAEFFB1207BD8A0C8B0DEA4589
:103D83000D7003023E288A828B83A3A3122C5674E0
:103D9300011218F585820E85830F780E121B2C7481
:103DA300051218F5121B437CFF7DFF1207C3740431
:103DB3001218BF8B0FEA450F7033850C82850D8374
:103DC300123FEB121B2C850C82850D83A3121B4320
:103DD3007C027D007AD77B811205EF74041218BF31
:103DE300E9700A74011218F574FFF0A3F08E828F44
:103DF30083E064027039750C02750D00780C121B98
:103E03002C8E828F83123AA4E5082404FAE5093440
:103E130000FB12105774021218BF850A82850B83A8
:103E2300E02402800974011218F5EEF0A3EFF07498
:103E3300011218F5123FFCF074011218F5A3123F9A
:103E4300F4023F7FE50E450F6003023F85850C8238
:103E5300850D83123AA5AA16AB171208FB850A82B1
:103E6300850B837402F0EA850882850983F0851245
:103E730082851383EB023F82E50E450F6003023F09
:103E830085124013F8A3E0F9850A82850B83740237
:103E9300F0E8850882850983F0E98512828513831A
:103EA300023F82850C82850D8312384A121051EA33
:103EB300FC8C82A882C3950EE4950F405FE8650EE3
:103EC3007002E50F70047C008022851882851983B7
:103ED300E0FAE50E2AFAE50F3400FBC3EA98EB9407
:103EE300005003E08005E50ECCC39CFCEC850A8200
:103EF300850B83F08C0A750B00780A121B2C850C3A
:103F030082850D83E0250EFCA3E0350FFDAA08ABE7
:103F13000912105774021218BF023FDF751007020F
:103F23003FDFE50E450F705A850C82850D831242E3
:103F3300FD850A82850B837407122C62123FF412EB
:103F43002C62A3E0851282851383F0E82402FAE948
:103F53003400FB8A828B83123FF4124023123FFC0E
:103F6300A312402C124005F0E82405F8E93400F9C7
:103F730088828983124005A3124048A3A3A3A3F018
:103F8300805A75100B8055741D1218F512384A1299
:103F9300088F8A828B83E5824583603D1242FD88C8
:103FA3000C890DE8450D6031780E121B2C780A122E
:103FB3001B2C7808121B2C74061218F5E0F9EEFC82
:103FC300EFFDAA16AB17850C82850D8312191774A2
:103FD300061218BFE9F510800375100EA9107405B9
:103FE3001218BF7F100219EBE0F50E750F00780E63
:103FF30022E085088285098322124052221243015E
:10400300E822124052A3A322E0F508A3E0F5092217
:10401300850C82850D83E0F8A3E0F5838882E02296
:10402300A3A3F08A828B83A322F088828983A3A32C
:10403300A3A322F08A828B8312403F22E0F50A7504
:104043000B00780A22F088828983A312405222E06F
:10405300850882850983A3A32274EE12191974FEBD
:104063001218A98A0A8B0BECFAEDFB74141218F5DB
:10407300E0F510A3E0F51174161218F5E0FE7418BC
:104083001218F5E0F50EA3E0F50F85188285198364
:10409300AC82AD831207BD8A0C8B0DEA450D6049D6
:1040A30085188285198312384A12088F8A828B8376
:1040B300E5824583602FA3A312400BE50845096001
:1040C30024780E121B2C7810121B2CEEF9AC0CADBD
:1040D3000DAA0AAB0B85088285098312191774048C
:1040E3001218BF8006790E800279010234E474F657
:1040F30012191974FE1218A9740C1218F512400043
:10410300851882851983F074011218F5E9F0E4F536
:1041130008F5097808121B2C7508027808121B2C65
:1041230074041218F58582088583097808121B2CFC
:104133001208E374061218BF74021218BF80687461
:10414300F7121919EAFEEBFF89087C197D0312089F
:10415300FBEA5402600BA908EEFAEFFB1207B180E9
:10416300027901022B5E74F612191974FF6A700347
:1041730074FF6B70168C828D831241AFE4F08C82D6
:104183008D83A3A3A31241AFA380181208CB8A087F
:104193008B09A808A909E849600D8882898374FFFF
:1041A300122C60A3A3E4F07F020219EB74FFF0A3C7
:1041B300F08C828D83A3A32274F61219191208CBF3
:1041C3008A828B83E58245836006A3A3E0FA80029B
:1041D3007A007B0080D174F21219198A088B09ECDA
:1041E300FEEDFF740E1218F5E0F50A1208CB8A0CE7
:1041F3008B0DA80CA90DE8497026EEFCEFFD7AFFA4
:104203007BFF1208CB8A0C8B0DA80CA90DE8497013
:10421300047911801688828983E508F0A3E509F003
:1042230088828983A3A3E50AF079007F060219EB4C
:1042330074EE121919EAFEEBFF8C088D09890C74D0
:10424300141218F51242FD74161218F512384A7535
:104253000D00E84960030242F17402650C60030239
:1042630042EC74121218F5124307FCA3E0F9EC2494
:1042730000F50EE439F50FEAF4F8EBF4F9EC58F82D
:10428300E50F59F9E849705CE5082406F8ED3400B8
:10429300F9880A890B8882F5831243121208FB8A74
:1042A300108B11E50E65107004E50F6511604278FF
:1042B3000E121B2C850A82850B83124312120901ED
:1042C30074021218BFE9F50D7027780E121B2C85A6
:1042D3000882850983A3A3124310120919740212D9
:1042E30018BF800D750D808008750D0D8003750D49
:1042F3000BA90D0239A98E828F8312430122E0F8A4
:10430300A3E0F92212430188828983E022A3A3E078
:10431300FCA3E0FDEEFAEFFB2274E812191974E72F
:104323001218A9851882851983EAF0A3EBF08C167D
:104333008D17890E75080075090074311218F5E0A0
:10434300F512A3E0F51374331218F5E0F514A3E0A6
:10435300F51574351218F5E0F50FE50975F003A4AA
:10436300F8A9F0851882851983124486E0F4700356
:10437300A3E0F47003024469EE2402F50CEF124447
:104383007CE0700302446985160A85170B780A12CC
:104393001B2CAC14AD15AA12AB13120883740212B2
:1043A30018BF8A0A8B0BEA450B7003024469E4F5D4
:1043B30010F5117810121B2C74061218F585821053
:1043C3008583117810121B2C74091218F58582103D
:1043D3008583117810121B2C851282851383A3A366
:1043E300A3A3121B437914AC0AAD0B8E828F8312E5
:1043F300384A1208DD74081218BFE97069850A8209
:10440300850B83A3A3A3A31242FD74021218F51212
:104413003AB8850C82850D83E0A2E05018A90E748A
:10442300021218F5AC82AD838E828F8312384A1242
:1044330007D5E94208850C82850D83E0A2E1502669
:10444300E50FF50A780A121B30A90E74031218F54A
:10445300AC82AD838E828F8312384A1207CF7401E8
:104463001218BFE942080509E509C3940250030283
:10447300435DA9087419023FE33400F50D850C82EE
:10448300F58322E028FEA3E039FF8E828F83227416
:10449300F2121919EAFEEBFF890B7401650B600E2A
:1044A3007402650B706A7901120ADBE97062EEFA35
:1044B300EFFB1208C58A088B09EA45096047750AAC
:1044C30000800B7C177D00790012106F050A9002A3
:1044D300E6E0F8E50AC3985021E50A75F017A4F859
:1044E300A9F0850882850983A3A3E028FAA3E0390C
:1044F300FB8A828B83122DB270C98508828509835A
:1045030074FFF0A3F07C197D03EEFAEFFB1208F5BC
:1045130002422E74F21219198A088B09ECFEEDFF80
:10452300740E1218F5123B93900A30E0F4603D7A52
:10453300097B0012107BEA4B60328A828B8374B151
:10454300F0A3E4124025A3124023A3E508F0A3E55A
:1045530009124572EEF0A3EF124572A3A3E50AF028
:10456300A3E50BF0900A30E0F912108702422EF017
:104573008A828B83A3A3A3A3A322C082C083906157
:10458300907404F0A37448F0A37402F090618074F3
:1045930040F09061BC7403F09061877419F09062ED
:1045A30065741BF0906249E0C3941390619C400AC8
:1045B3007409F090606674018007740DF090606672
:1045C300E4F090619A7433F0A37455F09061A07491
:1045D3003AF090053FE064017009C2919003A6741C
:1045E3006780059003A67461F0902B1AE4939061A1
:1045F30086F0902B14E493F46027E493540FF8901F
:104603006185E0686012E5C654804449F5C6E59EBD
:10461300547F644970F8E8F053C680E59E547F7078
:10462300FA7905120E3B0247D8C082C083E9540FC2
:10463300F9906185E0696012E5C654804449F5C686
:10464300E59E547F644970F8E9F053C680E59E54B3
:104653007F70FA0247D8C082C083E5A8F853A87ECA
:10466300906181E4F0A3F0A3F0C2BA539AFEC28929
:10467300759B00C2C275E90075910075BF0075A9ED
:104683001175B905906181F0A374C0F0A3E4F0D271
:10469300BA439A0174805842A80247D8C082C083A3
:1046A30074F81218A99003A4E0F8A3E0F9E849709C
:1046B300030247CD9003A4E0544060237908851892
:1046C30082851983AA82AB83120C9D851882851972
:1046D30083AA82AB8312098B9003A4E054BFF0E05A
:1046E30054806010790C7A657B05120C9D9003A4AD
:1046F300E0547FF0E0A2E0503190619A7433F0A36C
:104703007455F09061A0743AF090053FE064017035
:1047130009C2919003A6746780059003A67461F0A3
:104723001209919003A4E054FEF0E054026031902A
:10473300619A743FF0A3745AF09061A0747FF09073
:10474300053FE064017009D2919003A6747180055E
:104753009003A6746AF01209919003A4E054FDF04B
:10476300E054046013902B18E493906186F01209CF
:10477300979003A4E054FBF0E054086013902B19C6
:10478300E493906186F01209979003A4E054F7F044
:10479300E054106013902B1AE493906186F0120991
:1047A300979003A4E054EFF0E05420600A120997B5
:1047B3009003A4E054DFF0A3E05401600D120BC595
:1047C30012099D9003A5E054FEF074081218BF026D
:1047D30047D8F0A3F0D083D08202013274EC1219CF
:1047E3001974F41218A9851882851983AC82AD83D4
:1047F30075838175826874041217BC902B1893F427
:10480300600302496B907808E0C3940250030249A5
:104813004B74041218F5AC82AD8375838175822ABB
:1048230074081217BC8518828519838582128583C3
:104833001374041218F5AC82AD83750EFF750FFF68
:104843007FFF7E00750C48750D78801574086E70B7
:10485300030248DF74096E70030248DF740A6E6056
:104863007B850C82850D8378081217618C828D837A
:10487300A909E50AC9F888107418780812168FE593
:10488300104508F8C3E098A3E099850C82850D8351
:10489300780812176140188C828D83741878081277
:1048A300168FE5104508F8E0C398F8A3E0801C7460
:1048B30018780812168FE5104508FAE9FB8C828DEB
:1048C30083E0F8A3E0F9EAC398F8EB99F9C3E89514
:1048D3000EE9950F5006880E890FEEFF0EE50C24A6
:1048E30004F50CE50D3400F50DEEC39413500302EB
:1048F300484F74FF650E700474FF650F60238F08C3
:104903007402780812189674482508F5827478356D
:1049130009F5837808121761851282851383E508E8
:10492300F0EC2402FCED3400FD851282851383A391
:10493300858212858313740C1218F5E5826C70035B
:10494300E5836D600302483D750801750900780829
:10495300121B2C74021218F5AC82AD837AC67B0A43
:104963001212F174021218BF740C1218BF7F0C02DA
:1049730019EBC082C0839061AE7468F0A3746AF0CF
:1049830090624574FBF0A304F053F4FD43FE0290E0
:10499300053F7401F09061A0E0643A90619A70233E
:1049A3007433F0A37455F09061A0743AF074016409
:1049B300017009C2919003A6746780289003A674BE
:1049C300618021743FF0A3745AF09061A0747FF06A
:1049D300740164017009D2919003A67471800590EB
:1049E30003A6746A0247D77F080219EBC082C0830B
:1049F3009004F1E06401700A9004F6E06004790C1D
:104A0300800279000247D8C082C08375E1F1900427
:104A1300F4E0605B14600914605F14605714705E07
:104A2300120BD79004EAE0F97AEB7B04120DBD7AFE
:104A3300D67BBE7C897D8E120DF37A557B557C55D2
:104A43007D00120DC99004F5E0F9120DD57901121C
:104A53000E2F9004E8E0F8A3E0C82416F582E834AA
:104A630000F58374EFF0A3740BF079000247D812BA
:104A73000BDD80AF120BE380AA120BE980A579123C
:104A830080EA74F012191975D90D9004D5E0A2E0EB
:104A9300E4331313F89004EAE0C4333354C04844B6
:104AA30001F5D978E8790488828983A3A3A3E0F583
:104AB300D988828983A3A882A983E864EE7003E975
:104AC300640470E378D5790488828983A3E0F5D9F7
:104AD30088828983A3A882A983E864DB7003E964DD
:104AE3000470E575E1959004D5E0F97AD67B04125C
:104AF3000DC3900A527483F0A3740BF0A374E5F012
:104B0300A3740CF0A374E5F0A3740CF0A374E5F0A4
:104B1300A3740CF0A37489F0A3740BF0A374E5F0F1
:104B2300A3740CF0A374A1F0A3740BF0900A607447
:104B3300E5F0A3740CF0A374E5F0A3740CF0A37474
:104B4300E5F0A3740CF0A374E5F0A3740CF0A37464
:104B5300E5F0A3740CF0A374E5F0A3740CF09004D7
:104B6300F4E064019004E87012E0F8A3E0F58388B0
:104B730082A3A37508007509088010E0F8A3E0F587
:104B8300838882A3A3750804750900750A00750B51
:104B93000078081216DA750CFF750DFF750EFF7598
:104BA3000F007808790C1217289004E8E0F8A3E0C6
:104BB300C8240EF582E83400F58378081217709044
:104BC30004E8E0F8A3E0C82414F582E83400F58390
:104BD3007413F09003A27402F00249EA74F71219F5
:104BE300199004FAE02407F5D99004EAE0C43333BA
:104BF30054C0F5D978E8790488828983A3A3A3E014
:104C0300F5D988828983A3A882A983E864EE700317
:104C1300E9640470E39004FAE0601F78E87904FA29
:104C2300E82413F582E93400F583E0F5D988828915
:104C330083A3A882A9831AEA70E690051AE02407E1
:104C4300F5D99004EAE0C4333354C04404F5D97869
:104C5300E8790488828983A3A3A3E0F5D9888289AC
:104C630083A3A882A983E864EE7003E9640470E374
:104C730090051AE0601F78E87904FAE82433F58296
:104C8300E93400F583E0F5D988828983A3A882A952
:104C9300831AEA70E675E195900A52748FF0A37453
:104CA3000BF0A374E5F0A3740CF0A374E5F0A37404
:104CB3000CF0A374E5F0A3740CF0A37489F0A3744F
:104CC3000BF0A374E5F0A3740CF0A374A1F0A37428
:104CD3000BF0900A6074E5F0A3740CF0A374E5F094
:104CE300A3740CF0A374E5F0A3740CF0A374E5F0C3
:104CF300A3740CF0A374E5F0A3740CF0A374E5F0B3
:104D0300A3740CF09004E8E0F8A3E0C8240EF58245
:104D1300E83400F58374FFF0A3F0A3F0A3F090044C
:104D2300E8E0F8A3E0C82414F582E83400F58374BE
:104D330012F09003A27401F0FF0219EB74F7121939
:104D4300199004FAE02407F5D99004EAE0C4333358
:104D530054C04402F5D978E8790488828983A3A3EF
:104D6300A3E0F5D988828983A3A882A983E864EEA6
:104D73007003E9640470E39004FAE0601F78E87953
:104D830004FAE82413F582E93400F583E0F5D988C1
:104D9300828983A3A882A9831AEA70E675E19590B4
:104DA3000A52749BF0A3740BF0A3749BF0A3740BCF
:104DB300F0A3749BF0A3740BF0A3749BF0A3740B88
:104DC300F0A3749BF0A3740BF0A3749BF0A3740B78
:104DD300F0A374A1F0A3740BF0900A6074E5F0A340
:104DE300740CF0A374E5F0A3740CF0A374E5F0A3C2
:104DF300740CF0A374E5F0A3740CF0A374E5F0A3B2
:104E0300740CF0A374E5F0A3740CF09004E8E0F8DC
:104E1300A3E0C8240EF582E83400F58374FFF0A301
:104E2300F0A3F0A3F09004E8E0F8A3E0C82414F59D
:104E330082E83400F5837414F09003A27404F00242
:104E4300510674F71219199004FAE02407F5D99062
:104E530004EAE0C4333354C04406F5D978E879044E
:104E630088828983A3A3A3E0F5D988828983A3A831
:104E730082A983E864EE7003E9640470E39004FAA2
:104E8300E0601F78E87904FAE82413F582E9340036
:104E9300F583E0F5D988828983A3A882A9831AEAD6
:104EA30070E690051AE02407F5D99004EAE0C433CC
:104EB3003354C04404F5D978E8790488828983A3FC
:104EC300A3A3E0F5D988828983A3A882A983E86490
:104ED300EE7003E9640470E390051AE0601F78E85C
:104EE3007904FAE82433F582E93400F583E0F5D94F
:104EF30088828983A3A882A9831AEA70E675E1955B
:104F0300900A527495F0A3740BF0A374E5F0A374A4
:104F13000CF0A374E5F0A3740CF0A374E5F0A37490
:104F23000CF0A374E5F0A3740CF0A374E5F0A37480
:104F33000CF0A374A1F0A3740BF0900A6074E5F075
:104F4300A3740CF0A374E5F0A3740CF0A374E5F060
:104F5300A3740CF0A374E5F0A3740CF0A374E5F050
:104F6300A3740CF0A374E5F0A3740CF09004E8E0D0
:104F7300F8A3E0C8240EF582E83400F58374FFF04B
:104F8300A3F0A3F0A3F09004E8E0F8A3E0C824148E
:104F9300F582E83400F5837415F09003A27403F0EE
:104FA300025106C082C0839004E8E0F8A3E0C8245D
:104FB30006F582E83400F583E40247D574F7121945
:104FC300199003D0E0F875F003A4C8AAF02AF97485
:104FD300D228F8740339F9E82405FAE93400FB8A86
:104FE300828B83E0FCA3E0FD88828983A3A3A3A330
:104FF300A3A3A3A3A3ECF0A3EDF088828983A3A3C7
:10500300A3A3A3A3A3E024FFF8A3E034FFF98A82B8
:105013008B83E8F0A3E9F002510674F7121919EA39
:10502300FEEBFF9061D0E060030250FA75D90E7574
:10503300D90375D904EE248BF582EF3400F583E5AB
:10504300822408F8E5833400F9E0F5D9A3E8658202
:105053007003E9658370F2EE2483F582EF3400F583
:1050630083E5822404F8E5833400F9E0F5D9A3E865
:1050730065827003E9658370F275E1957908EE2422
:105083008BFAEF3400FB120C917904EE2483FAEFD0
:105093003400FB120C917C00EEF8EFF9ECFAC3E458
:1050A3009AFA95E0FBEE2AFAEF3BFBEA248AF582B3
:1050B300EB3400F583E0C0E0E824AAF582E934008C
:1050C300F583D0E0F00C88828983A3A882A983ECBE
:1050D300C3940840C7EE246FF582EF3400F583E0F4
:1050E300F8A3E0F9EE2471F582EF3400F583E8F0DC
:1050F300A3E9F07901800279008008F0EEA2E09242
:10510300AF79007F010219EBC082C08375D90275A4
:10511300D90375D90575E195EA246FF582EB34005F
:10512300F583E0F8A3E0F9EA2471F582EB3400F5A6
:1051330083E8F0A3E9F079010247D874F61219194C
:10514300EAFEEBFF9005457406F075084575090501
:105153007808121B2C7C017903120CD974021218E3
:10516300BF75D90675D903758245758305E0F5D9F1
:10517300A3E582644A7004E583640570F075E195E4
:105183009003A2E06408701EEE246FF582EF3400F2
:10519300F583E0F8A3E0F9EE2471F582EF3400F52E
:1051A30083E8F0A3E9F0790102540C74F61219199B
:1051B300EAFEEBFF9061D0E07066780190054574DC
:1051C3000BF09003A2E06407701975084575090593
:1051D3007808121B2C7C017903120CD97402121863
:1051E300BF7805740128F5D975D903758245758390
:1051F30005E8FAE0F5D9A31AEA70F875E195EE240B
:105203006FF582EF3400F583E0F8A3E0F9EE247143
:10521300F582EF3400F583E8F0A3E9F07901800229
:10522300790002540C74F7121919EAFEEBFF75D9D1
:105233000375D90375D90DEE24DDF582EF3400F53E
:1052430083E0F5D975E1957904120DF9EE246FF534
:1052530082EF3400F583E0F8A3E0F9EE2471F582E0
:10526300EF3400F583E8F0A3E9F079010251067405
:10527300F6121919EAFEEBFF9061D0E0F87480C3CF
:1052830098FAEE2482F582EF3400F583E060047827
:105293000480027800E8240BF8EAC3985003025311
:1052A300377D09900545EDF0EE24E2F8EF3400F97F
:1052B3007A467B057C0888828983E08A828B83F027
:1052C30088828983A3A882A9838A828B83A3AA82E3
:1052D300AB831CEC70E0EE2482F582EF3400F5839F
:1052E300E0601D7508457509057808121B2C7C09BB
:1052F3007903EEFAEFFB120CD974021218BF7D0D7D
:1053030074012DF5D975D9037582457583058D080B
:10531300E0F5D9A31508E50870F675E1957904124F
:105323000DF9EE241DF582EF3400F583E4F0A3F0CC
:1053330079018002790002540C74F6121919EAFEFD
:10534300EBFF9061D0E0F87480C398FAEE2482F505
:1053530082EF3400F583E06004780480027800E88B
:105363002408F8EAC398500302540A7806900545C6
:10537300740CF09003BFE0900546F09003C0E090FA
:105383000547F09003C1E0900548F09003C2E09018
:105393000549F09003C3E090054AF0EE2482F582BC
:1053A300EF3400F583E0601B75084575090578083F
:1053B300121B2C7C067903EEFA120CD97402121814
:1053C300BF780A740128F5D975D9037582457583A9
:1053D300058808E0F5D9A31508E50870F675E19589
:1053E3007904120DF9EE246FF582EF3400F583E0B2
:1053F300F8A3E0F9EE2471F582EF3400F583E8F0C9
:10540300A3E9F07901800279007F020219EB74F6B7
:10541300121919EAFEEBFF9061D0E0F87480C3988B
:10542300FAEE2482F582EF3400F583E06004780419
:1054330080027800E82404F8EAC39850030254EB8E
:105443007802900545E8F0EE24F4F582EF3400F598
:1054530083E0900546F0EE2482F582EF3400F58375
:10546300E0601B7508457509057808121B2C7C0242
:105473007903EEFA120CD974021218BF780674017C
:1054830028F5D975D9037582457583058808E0F534
:10549300D9A31508E50870F675E195EE2473F58236
:1054A300EF3400F583E4F0EE247FF582EF3400F56A
:1054B30083E4F0EE241DF582EF3400F583E4F0A3DA
:1054C300F07904120DF9EE240DF582EF3400F58323
:1054D300E0F8A3E0F9EE2471F582EF3400F583E8F8
:1054E300F0A3E9F079018002790002540C74F612FA
:1054F30019199061D0E0F87480C398FCEA2482F50E
:1055030082EB3400F583E06004780480027800E8DD
:105513002404F8ECC398405B79029005457407F0C6
:10552300EA24F5F582EB3400F583E0900546F0EAD2
:105533002482F582EB3400F583E060187508457525
:1055430009057808121B2C7C0209120CD97402126B
:1055530018BF7906740129F5D975D9037582457584
:105563008305E9F8E0F5D9A318E870F875E19579B2
:10557300018002790002540C74F5121919E9FCA296
:10558300AFE433F50AC2AF7D0080010DEA246EF566
:1055930082EB3400F583E0F8EDC398501A8D08EAE6
:1055A3002508F8EB3400F9E8246AF582E93400F5BC
:1055B30083E06C70D68024EA246EF8EB3400F9E0C3
:1055C300FEEA2EFAEB3400FBEA246AF582EB3400A0
:1055D300F583ECF088828983E004F0E50AA2E09287
:1055E300AF7F030219EB74F6121919A2AFE433FD6E
:1055F300C2AFEA246EF582EB3400F583E014F07C4D
:105603000060368C08EA2508F8EB3400F9E8246BCF
:10561300F582E93400F583E0C0E0E8246AF582E925
:105623003400F583D0E0F00CEA246EF582EB34000D
:10563300F583E0F8ECC39840CAEA246DF582EB34B5
:1056430000F58374FFF0EA2469F582EB3400F583F7
:10565300E4F0EDA2E092AF02540CC082C083E5A84F
:10566300F8C2AFEA246AF582EB3400F583E9F0EA85
:105673002469F582EB3400F583E4F0E8A2E7A2E7BE
:1056830092AF0247D874F3121919EAFEEBFFECFA52
:10569300EDFB8A828B83A3A3A3A3E0541FF0EE2424
:1056A30036F582EF3400F583E4F0F50AEEFCEFFD06
:1056B3008A828B83E0C0E0EC245DF582ED3400F553
:1056C30083D0E0F0750B00E50A33333354F8F50C5F
:1056D3008A828B83E0F508750900E50B78081218B8
:1056E30077E508A2E0502FEE2436F8EF3400F9886E
:1056F300828983E0F508EE2508F508EF3400F50903
:10570300E5082438F582E5093400F583E50CF088D3
:10571300828983E004F0050B050CE50BC394084074
:10572300AF050A8A828B83A3AA82AB838C828D8383
:10573300A3AC82AD83E50AC3940550030256B37F3D
:10574300050219EB74F71219199003CEE064017086
:10575300030258A57A009003D4E060030258A574AD
:1057630001F0A3E4F0A3F090043404F0900439F0C2
:105773009003D7E4F0A3F0A3F0A3F09003E104F0C7
:10578300900407E4F09003EAF0A3F0A3F0A3F0A3DE
:10579300F0A3F0A3F0900451F0900445F090043A84
:1057A3007480F0A3E4F0900440F09004BCF0A3F004
:1057B300A3F0A3F0A3F0A3F0A3F0A3F09004C5F02B
:1057C300900454F09004A4F0A3F0A3F0A3F0A3F08A
:1057D300A3F0A3F0A3F0A3F0A3F09004B0F090041F
:1057E300B2F09004AEF09004C8F0A3F0A3F0A3F0DD
:1057F300A3F0A3F0A3F0A3F078CE7903E8246EF529
:1058030082E93400F58374FFF00A88828983A3A8B0
:1058130082A983EAC3940440E37ACE7B0378DC79DC
:105823000488828983E0C0E0EA2461F582EB3400D6
:10583300F583D0E0F088828983A3A882A9838A8232
:105843008B83A3AA82AB83E864E17003E9640470E9
:10585300D07ACE7B0378B5790388828983A3E0C0AD
:10586300E0EA24E6F582EB3400F583D0E0F08882A9
:105873008983A3A882A9838A828B83A3AA82AB8309
:10588300E864BD7003E9640370CF9003CEE004F0D5
:10589300640170089003D6E09003D0F07AD27B03C2
:1058A30080047A007B00025106C082C0839003D536
:1058B300E4F09003D4F09003CEF0A3F0A374FFF0D0
:1058C30075E1F10247D8C082C08378007900900364
:1058D300D5E0600478D2790388828983A3A3A3A344
:1058E300E0F90247D874F6121919EAFEEBFFEE2429
:1058F30063F582EF3400F583E0F8A3E0F9E849703B
:105903000302598DEE2463F8EF3400F97A007B002B
:10591300A2AFE433F508C2AF88828983E0FCA3E039
:10592300FDEC4D603A88828983E0FAA3E0FB8A822A
:105933008B83E0FCA3E0FD88828983ECF0A3EDF088
:105943008A828B83E4F0A3F088828983E0FCA3E05E
:10595300FDEC4D700A88828983A3A3E4F0A3F0E5EC
:1059630008A2E092AF1213A59004E2E004F09004C1
:10597300E3E004F0EE2463F582EF3400F583E0F80E
:10598300A3E0F9E84960030259078E828F83A3A33A
:10599300A3E0600F8E828F83A3A3A3E4F09003CFD1
:1059A300E014F09003CEE014F070069003D074FF7F
:1059B300F08E828F83A3A3E4F09004E1E0700D9056
:1059C30003CFE0640170057900120DDBEEFAEFFB03
:1059D300120D0902540C74F7121919EAFEEBFF8E2B
:1059E300828F83A3A3A3A3E0FA7B001209DFEEFA5D
:1059F300EFFB120C5B120CF1025106C082C08378DC
:105A0300B5790388828983A3E4F088828983A3A874
:105A130082A983E864BD7003E9640370E69003B66A
:105A230074010247D774F6121919EAFEEBFFEC244E
:105A330003F8ED3400F988088909EC2407F8ED34FC
:105A430000F9E8FCE9FD8C828D83E0F8A3E0F98599
:105A53000882850983E0FAA3E0FB12181EEE240DE9
:105A6300F582EF3400F583E8F0A3E9F08C828D83AF
:105A7300E0F8A3E0F9850882850983E0FAA3E0FB57
:105A830012181E8B09EA45096013EE240DF582EF07
:105A93003400F583E02401F0A3E03400F002540C59
:105AA30074F6121919EAFEEBFFEE242EF582EF3499
:105AB30000F583E0FCA3E0FD780079FAECFAEDFB56
:105AC30012181EEE246FF582EF3400F583E8F0A37D
:105AD300E9F0780079FAECFAEDFB12181E8B09EA6B
:105AE30045096013EE246FF582EF3400F583E0245B
:105AF30001F0A3E03400F002540C74EC121919EA1B
:105B0300FEEBFF74141218F57808121761120D9941
:105B13008A0C8B0D8C0E8D0F75100275110075128A
:105B230000751300780C79101216C77510FF7511E4
:105B3300FF7512FF780C7910121728780C121B28A6
